{
  "contractName": "DexFactory",
  "abi": [
    {
      "inputs": [
        {
          "internalType": "address",
          "name": "tokenA",
          "type": "address"
        },
        {
          "internalType": "address",
          "name": "tokenB",
          "type": "address"
        }
      ],
      "name": "createPair",
      "outputs": [
        {
          "internalType": "address",
          "name": "pair",
          "type": "address"
        }
      ],
      "stateMutability": "nonpayable",
      "type": "function"
    }
  ],
  "bytecode": "0x608060405234801561001057600080fd5b50610100806100206000396000f3fe6080604052348015600f57600080fd5b506004361060285760003560e01c8063c9c6539614602d575b600080fd5b603c6038366004607c565b6050565b6040516047919060a9565b60405180910390f35b5090565b803573ffffffffffffffffffffffffffffffffffffffff81168114607757600080fd5b919050565b60008060408385031215608d578182fd5b6094836054565b915060a0602084016054565b90509250929050565b73ffffffffffffffffffffffffffffffffffffffff9190911681526020019056fea264697066735822122072c385b544548397ac950a593497f00ae9ad11c90d9dd17acc8710747c03df5564736f6c63430008000033",
  "immutableReferences": {},
  "source": "// SPDX-License-Identifier: MIT\npragma solidity ^0.8.0;\n\ncontract DexFactory {\n    function createPair(address tokenA, address tokenB)\n        external\n        returns (address pair)\n    {\n        return address(tokenA);\n    }\n}\n\ncontract DexRouter {\n    DexFactory dexFactory;\n\n    constructor() public {\n        dexFactory = new DexFactory();\n    }\n\n    function factory() external view returns (address) {\n        return address(dexFactory);\n    }\n\n    function createPair(address tokenA, address tokenB)\n        external\n        returns (address pair)\n    {\n        return address(tokenA);\n    }\n\n    function WETH() external pure returns (address) {\n        // address randomish = address(\n        //     uint160(uint256(keccak256(abi.encodePacked(\"1\", \"\"))))\n        // );\n        // return randomish;\n    }\n\n    function addLiquidity(\n        address tokenA,\n        address tokenB,\n        uint256 amountADesired,\n        uint256 amountBDesired,\n        uint256 amountAMin,\n        uint256 amountBMin,\n        address to,\n        uint256 deadline\n    )\n        external\n        returns (\n            uint256 amountA,\n            uint256 amountB,\n            uint256 liquidity\n        )\n    {\n        // return (amountADesired, amountBDesired, amountBDesired);\n    }\n\n    function addLiquidityETH(\n        address token,\n        uint256 amountTokenDesired,\n        uint256 amountTokenMin,\n        uint256 amountETHMin,\n        address to,\n        uint256 deadline\n    )\n        external\n        payable\n        returns (\n            uint256 amountToken,\n            uint256 amountETH,\n            uint256 liquidity\n        )\n    {}\n\n    function swapExactTokensForTokensSupportingFeeOnTransferTokens(\n        uint256 amountIn,\n        uint256 amountOutMin,\n        address[] calldata path,\n        address to,\n        uint256 deadline\n    ) external {}\n\n    function swapExactETHForTokensSupportingFeeOnTransferTokens(\n        uint256 amountOutMin,\n        address[] calldata path,\n        address to,\n        uint256 deadline\n    ) external payable {}\n\n    function getBanalce() external view returns (uint256) {\n        return address(this).balance;\n    }\n\n    function swapExactTokensForETHSupportingFeeOnTransferTokens(\n        uint256 amountIn,\n        uint256 amountOutMin,\n        address[] calldata path,\n        address to,\n        uint256 deadline\n    ) external {}\n}\n",
  "sourcePath": "/Users/vladimir.djukic/Documents/reflecto-token/contracts/mock/DexRouter.sol",
  "compiler": {
    "name": "solc",
    "version": "0.8.0+commit.c7dfd78e.Emscripten.clang"
  },
  "schemaVersion": "3.4.1",
  "updatedAt": "2021-10-25T10:15:11.427Z",
  "devdoc": {
    "kind": "dev",
    "methods": {},
    "version": 1
  },
  "userdoc": {
    "kind": "user",
    "methods": {},
    "version": 1
  }
}