{
  "contractName": "DexRouter",
  "abi": [
    {
      "inputs": [],
      "stateMutability": "nonpayable",
      "type": "constructor"
    },
    {
      "inputs": [],
      "name": "factory",
      "outputs": [
        {
          "internalType": "address",
          "name": "",
          "type": "address"
        }
      ],
      "stateMutability": "view",
      "type": "function",
      "constant": true
    },
    {
      "inputs": [
        {
          "internalType": "address",
          "name": "tokenA",
          "type": "address"
        },
        {
          "internalType": "address",
          "name": "tokenB",
          "type": "address"
        }
      ],
      "name": "createPair",
      "outputs": [
        {
          "internalType": "address",
          "name": "pair",
          "type": "address"
        }
      ],
      "stateMutability": "nonpayable",
      "type": "function"
    },
    {
      "inputs": [],
      "name": "WETH",
      "outputs": [
        {
          "internalType": "address",
          "name": "",
          "type": "address"
        }
      ],
      "stateMutability": "pure",
      "type": "function",
      "constant": true
    },
    {
      "inputs": [
        {
          "internalType": "address",
          "name": "tokenA",
          "type": "address"
        },
        {
          "internalType": "address",
          "name": "tokenB",
          "type": "address"
        },
        {
          "internalType": "uint256",
          "name": "amountADesired",
          "type": "uint256"
        },
        {
          "internalType": "uint256",
          "name": "amountBDesired",
          "type": "uint256"
        },
        {
          "internalType": "uint256",
          "name": "amountAMin",
          "type": "uint256"
        },
        {
          "internalType": "uint256",
          "name": "amountBMin",
          "type": "uint256"
        },
        {
          "internalType": "address",
          "name": "to",
          "type": "address"
        },
        {
          "internalType": "uint256",
          "name": "deadline",
          "type": "uint256"
        }
      ],
      "name": "addLiquidity",
      "outputs": [
        {
          "internalType": "uint256",
          "name": "amountA",
          "type": "uint256"
        },
        {
          "internalType": "uint256",
          "name": "amountB",
          "type": "uint256"
        },
        {
          "internalType": "uint256",
          "name": "liquidity",
          "type": "uint256"
        }
      ],
      "stateMutability": "nonpayable",
      "type": "function"
    },
    {
      "inputs": [
        {
          "internalType": "address",
          "name": "token",
          "type": "address"
        },
        {
          "internalType": "uint256",
          "name": "amountTokenDesired",
          "type": "uint256"
        },
        {
          "internalType": "uint256",
          "name": "amountTokenMin",
          "type": "uint256"
        },
        {
          "internalType": "uint256",
          "name": "amountETHMin",
          "type": "uint256"
        },
        {
          "internalType": "address",
          "name": "to",
          "type": "address"
        },
        {
          "internalType": "uint256",
          "name": "deadline",
          "type": "uint256"
        }
      ],
      "name": "addLiquidityETH",
      "outputs": [
        {
          "internalType": "uint256",
          "name": "amountToken",
          "type": "uint256"
        },
        {
          "internalType": "uint256",
          "name": "amountETH",
          "type": "uint256"
        },
        {
          "internalType": "uint256",
          "name": "liquidity",
          "type": "uint256"
        }
      ],
      "stateMutability": "payable",
      "type": "function",
      "payable": true
    },
    {
      "inputs": [
        {
          "internalType": "uint256",
          "name": "amountIn",
          "type": "uint256"
        },
        {
          "internalType": "uint256",
          "name": "amountOutMin",
          "type": "uint256"
        },
        {
          "internalType": "address[]",
          "name": "path",
          "type": "address[]"
        },
        {
          "internalType": "address",
          "name": "to",
          "type": "address"
        },
        {
          "internalType": "uint256",
          "name": "deadline",
          "type": "uint256"
        }
      ],
      "name": "swapExactTokensForTokensSupportingFeeOnTransferTokens",
      "outputs": [],
      "stateMutability": "nonpayable",
      "type": "function"
    },
    {
      "inputs": [
        {
          "internalType": "uint256",
          "name": "amountOutMin",
          "type": "uint256"
        },
        {
          "internalType": "address[]",
          "name": "path",
          "type": "address[]"
        },
        {
          "internalType": "address",
          "name": "to",
          "type": "address"
        },
        {
          "internalType": "uint256",
          "name": "deadline",
          "type": "uint256"
        }
      ],
      "name": "swapExactETHForTokensSupportingFeeOnTransferTokens",
      "outputs": [],
      "stateMutability": "payable",
      "type": "function",
      "payable": true
    },
    {
      "inputs": [
        {
          "internalType": "uint256",
          "name": "amountIn",
          "type": "uint256"
        },
        {
          "internalType": "uint256",
          "name": "amountOutMin",
          "type": "uint256"
        },
        {
          "internalType": "address[]",
          "name": "path",
          "type": "address[]"
        },
        {
          "internalType": "address",
          "name": "to",
          "type": "address"
        },
        {
          "internalType": "uint256",
          "name": "deadline",
          "type": "uint256"
        }
      ],
      "name": "swapExactTokensForETHSupportingFeeOnTransferTokens",
      "outputs": [],
      "stateMutability": "nonpayable",
      "type": "function"
    }
  ],
  "bytecode": "0x608060405234801561001057600080fd5b5060405161001d9061005f565b604051809103906000f080158015610039573d6000803e3d6000fd5b50600080546001600160a01b0319166001600160a01b039290921691909117905561006c565b610105806104b083390190565b6104358061007b6000396000f3fe60806040526004361061007b5760003560e01c8063c45a01551161004e578063c45a0155146100e0578063c9c65396146100f5578063e8e3370014610115578063f305d719146101445761007b565b80635c11d79514610080578063791ac94714610080578063ad5c4648146100a2578063b6f9de95146100cd575b600080fd5b34801561008c57600080fd5b506100a061009b366004610367565b610157565b005b3480156100ae57600080fd5b506100b761015f565b6040516100c491906103d5565b60405180910390f35b6100a06100db366004610303565b610164565b3480156100ec57600080fd5b506100b761016b565b34801561010157600080fd5b506100b7610110366004610207565b61017a565b34801561012157600080fd5b50610135610130366004610239565b61017e565b6040516100c4939291906103e9565b6101356101523660046102ac565b610191565b505050505050565b600090565b5050505050565b6000546001600160a01b031690565b5090565b6000806000985098509895505050505050565b600080600096509650969350505050565b80356001600160a01b03811681146101b957600080fd5b919050565b60008083601f8401126101cf578182fd5b50813567ffffffffffffffff8111156101e6578182fd5b602083019150836020808302850101111561020057600080fd5b9250929050565b60008060408385031215610219578182fd5b610222836101a2565b9150610230602084016101a2565b90509250929050565b600080600080600080600080610100898b031215610255578384fd5b61025e896101a2565b975061026c60208a016101a2565b965060408901359550606089013594506080890135935060a0890135925061029660c08a016101a2565b915060e089013590509295985092959890939650565b60008060008060008060c087890312156102c4578182fd5b6102cd876101a2565b95506020870135945060408701359350606087013592506102f0608088016101a2565b915060a087013590509295509295509295565b60008060008060006080868803121561031a578081fd5b85359450602086013567ffffffffffffffff811115610337578182fd5b610343888289016101be565b90955093506103569050604087016101a2565b949793965091946060013592915050565b60008060008060008060a0878903121561037f578182fd5b8635955060208701359450604087013567ffffffffffffffff8111156103a3578283fd5b6103af89828a016101be565b90955093506103c29050606088016101a2565b9150608087013590509295509295509295565b6001600160a01b0391909116815260200190565b928352602083019190915260408201526060019056fea264697066735822122041a6d7b9fb3dea4e9a6e8972ac041014d76827bb9633ccb1108f78db5eab371b64736f6c63430008000033608060405234801561001057600080fd5b5060e68061001f6000396000f3fe6080604052348015600f57600080fd5b506004361060285760003560e01c8063c9c6539614602d575b600080fd5b603c6038366004606f565b6050565b60405160479190609c565b60405180910390f35b5090565b80356001600160a01b0381168114606a57600080fd5b919050565b600080604083850312156080578182fd5b6087836054565b91506093602084016054565b90509250929050565b6001600160a01b039190911681526020019056fea2646970667358221220147bdc8876047aa52956b3938259af02418f158dfbb830b9185091bbceb8c17064736f6c63430008000033",
  "immutableReferences": {},
  "source": "// SPDX-License-Identifier: MIT\npragma solidity ^0.8.0;\n\ncontract DexFactory {\n    function createPair(address tokenA, address tokenB)\n        external\n        returns (address pair)\n    {\n        return address(tokenA);\n    }\n}\n\ncontract DexRouter {\n    DexFactory dexFactory;\n    constructor () public {\n        dexFactory = new DexFactory();\n    }\n    function factory() external view returns (address) {\n        return address(dexFactory);\n    }\n\n    function createPair(address tokenA, address tokenB)\n        external\n        returns (address pair)\n    {\n        return address(tokenA);\n    }\n\n    function WETH() external pure returns (address) {\n        // address randomish = address(\n        //     uint160(uint256(keccak256(abi.encodePacked(\"1\", \"\"))))\n        // );\n        // return randomish;\n    }\n\n    function addLiquidity(\n        address tokenA,\n        address tokenB,\n        uint256 amountADesired,\n        uint256 amountBDesired,\n        uint256 amountAMin,\n        uint256 amountBMin,\n        address to,\n        uint256 deadline\n    )\n        external\n        returns (\n            uint256 amountA,\n            uint256 amountB,\n            uint256 liquidity\n        )\n    {\n        // return (amountADesired, amountBDesired, amountBDesired);\n    }\n\n    function addLiquidityETH(\n        address token,\n        uint256 amountTokenDesired,\n        uint256 amountTokenMin,\n        uint256 amountETHMin,\n        address to,\n        uint256 deadline\n    )\n        external\n        payable\n        returns (\n            uint256 amountToken,\n            uint256 amountETH,\n            uint256 liquidity\n        )\n    {}\n\n    function swapExactTokensForTokensSupportingFeeOnTransferTokens(\n        uint256 amountIn,\n        uint256 amountOutMin,\n        address[] calldata path,\n        address to,\n        uint256 deadline\n    ) external {}\n\n    function swapExactETHForTokensSupportingFeeOnTransferTokens(\n        uint256 amountOutMin,\n        address[] calldata path,\n        address to,\n        uint256 deadline\n    ) external payable {}\n\n    function swapExactTokensForETHSupportingFeeOnTransferTokens(\n        uint256 amountIn,\n        uint256 amountOutMin,\n        address[] calldata path,\n        address to,\n        uint256 deadline\n    ) external {}\n}\n",
  "sourcePath": "/Users/vladimir.djukic/Documents/reflecto-token/contracts/mock/DexRouter.sol",
  "compiler": {
    "name": "solc",
    "version": "0.8.0+commit.c7dfd78e.Emscripten.clang"
  },
  "schemaVersion": "3.4.1",
  "updatedAt": "2021-10-23T19:09:28.453Z",
  "networkType": "ethereum",
  "devdoc": {
    "kind": "dev",
    "methods": {},
    "version": 1
  },
  "userdoc": {
    "kind": "user",
    "methods": {},
    "version": 1
  }
}