{
  "contractName": "DexRouter",
  "abi": [
    {
      "inputs": [],
      "stateMutability": "nonpayable",
      "type": "constructor"
    },
    {
      "inputs": [],
      "name": "factory",
      "outputs": [
        {
          "internalType": "address",
          "name": "",
          "type": "address"
        }
      ],
      "stateMutability": "view",
      "type": "function"
    },
    {
      "inputs": [
        {
          "internalType": "address",
          "name": "tokenA",
          "type": "address"
        },
        {
          "internalType": "address",
          "name": "tokenB",
          "type": "address"
        }
      ],
      "name": "createPair",
      "outputs": [
        {
          "internalType": "address",
          "name": "pair",
          "type": "address"
        }
      ],
      "stateMutability": "nonpayable",
      "type": "function"
    },
    {
      "inputs": [],
      "name": "WETH",
      "outputs": [
        {
          "internalType": "address",
          "name": "",
          "type": "address"
        }
      ],
      "stateMutability": "pure",
      "type": "function"
    },
    {
      "inputs": [
        {
          "internalType": "address",
          "name": "tokenA",
          "type": "address"
        },
        {
          "internalType": "address",
          "name": "tokenB",
          "type": "address"
        },
        {
          "internalType": "uint256",
          "name": "amountADesired",
          "type": "uint256"
        },
        {
          "internalType": "uint256",
          "name": "amountBDesired",
          "type": "uint256"
        },
        {
          "internalType": "uint256",
          "name": "amountAMin",
          "type": "uint256"
        },
        {
          "internalType": "uint256",
          "name": "amountBMin",
          "type": "uint256"
        },
        {
          "internalType": "address",
          "name": "to",
          "type": "address"
        },
        {
          "internalType": "uint256",
          "name": "deadline",
          "type": "uint256"
        }
      ],
      "name": "addLiquidity",
      "outputs": [
        {
          "internalType": "uint256",
          "name": "amountA",
          "type": "uint256"
        },
        {
          "internalType": "uint256",
          "name": "amountB",
          "type": "uint256"
        },
        {
          "internalType": "uint256",
          "name": "liquidity",
          "type": "uint256"
        }
      ],
      "stateMutability": "nonpayable",
      "type": "function"
    },
    {
      "inputs": [
        {
          "internalType": "address",
          "name": "token",
          "type": "address"
        },
        {
          "internalType": "uint256",
          "name": "amountTokenDesired",
          "type": "uint256"
        },
        {
          "internalType": "uint256",
          "name": "amountTokenMin",
          "type": "uint256"
        },
        {
          "internalType": "uint256",
          "name": "amountETHMin",
          "type": "uint256"
        },
        {
          "internalType": "address",
          "name": "to",
          "type": "address"
        },
        {
          "internalType": "uint256",
          "name": "deadline",
          "type": "uint256"
        }
      ],
      "name": "addLiquidityETH",
      "outputs": [
        {
          "internalType": "uint256",
          "name": "amountToken",
          "type": "uint256"
        },
        {
          "internalType": "uint256",
          "name": "amountETH",
          "type": "uint256"
        },
        {
          "internalType": "uint256",
          "name": "liquidity",
          "type": "uint256"
        }
      ],
      "stateMutability": "payable",
      "type": "function"
    },
    {
      "inputs": [
        {
          "internalType": "uint256",
          "name": "amountIn",
          "type": "uint256"
        },
        {
          "internalType": "uint256",
          "name": "amountOutMin",
          "type": "uint256"
        },
        {
          "internalType": "address[]",
          "name": "path",
          "type": "address[]"
        },
        {
          "internalType": "address",
          "name": "to",
          "type": "address"
        },
        {
          "internalType": "uint256",
          "name": "deadline",
          "type": "uint256"
        }
      ],
      "name": "swapExactTokensForTokensSupportingFeeOnTransferTokens",
      "outputs": [],
      "stateMutability": "nonpayable",
      "type": "function"
    },
    {
      "inputs": [
        {
          "internalType": "uint256",
          "name": "amountOutMin",
          "type": "uint256"
        },
        {
          "internalType": "address[]",
          "name": "path",
          "type": "address[]"
        },
        {
          "internalType": "address",
          "name": "to",
          "type": "address"
        },
        {
          "internalType": "uint256",
          "name": "deadline",
          "type": "uint256"
        }
      ],
      "name": "swapExactETHForTokensSupportingFeeOnTransferTokens",
      "outputs": [],
      "stateMutability": "payable",
      "type": "function"
    },
    {
      "inputs": [],
      "name": "getBanalce",
      "outputs": [
        {
          "internalType": "uint256",
          "name": "",
          "type": "uint256"
        }
      ],
      "stateMutability": "view",
      "type": "function"
    },
    {
      "inputs": [
        {
          "internalType": "uint256",
          "name": "amountIn",
          "type": "uint256"
        },
        {
          "internalType": "uint256",
          "name": "amountOutMin",
          "type": "uint256"
        },
        {
          "internalType": "address[]",
          "name": "path",
          "type": "address[]"
        },
        {
          "internalType": "address",
          "name": "to",
          "type": "address"
        },
        {
          "internalType": "uint256",
          "name": "deadline",
          "type": "uint256"
        }
      ],
      "name": "swapExactTokensForETHSupportingFeeOnTransferTokens",
      "outputs": [],
      "stateMutability": "nonpayable",
      "type": "function"
    }
  ],
  "bytecode": "0x608060405234801561001057600080fd5b5060405161001d9061005f565b604051809103906000f080158015610039573d6000803e3d6000fd5b50600080546001600160a01b0319166001600160a01b039290921691909117905561006c565b6101208061052183390190565b6104a68061007b6000396000f3fe6080604052600436106100965760003560e01c8063b6f9de9511610069578063c9c653961161004e578063c9c6539614610132578063e8e3370014610152578063f305d7191461018157610096565b8063b6f9de951461010a578063c45a01551461011d57610096565b80635c11d7951461009b578063791ac9471461009b578063a5c58a68146100bd578063ad5c4648146100e8575b600080fd5b3480156100a757600080fd5b506100bb6100b63660046103c2565b610194565b005b3480156100c957600080fd5b506100d261019c565b6040516100df9190610451565b60405180910390f35b3480156100f457600080fd5b506100fd6101a0565b6040516100df9190610430565b6100bb61011836600461035e565b6101a5565b34801561012957600080fd5b506100fd6101ac565b34801561013e57600080fd5b506100fd61014d366004610262565b6101c8565b34801561015e57600080fd5b5061017261016d366004610294565b6101cc565b6040516100df9392919061045a565b61017261018f366004610307565b6101df565b505050505050565b4790565b600090565b5050505050565b60005473ffffffffffffffffffffffffffffffffffffffff1690565b5090565b6000806000985098509895505050505050565b600080600096509650969350505050565b803573ffffffffffffffffffffffffffffffffffffffff8116811461021457600080fd5b919050565b60008083601f84011261022a578182fd5b50813567ffffffffffffffff811115610241578182fd5b602083019150836020808302850101111561025b57600080fd5b9250929050565b60008060408385031215610274578182fd5b61027d836101f0565b915061028b602084016101f0565b90509250929050565b600080600080600080600080610100898b0312156102b0578384fd5b6102b9896101f0565b97506102c760208a016101f0565b965060408901359550606089013594506080890135935060a089013592506102f160c08a016101f0565b915060e089013590509295985092959890939650565b60008060008060008060c0878903121561031f578182fd5b610328876101f0565b955060208701359450604087013593506060870135925061034b608088016101f0565b915060a087013590509295509295509295565b600080600080600060808688031215610375578081fd5b85359450602086013567ffffffffffffffff811115610392578182fd5b61039e88828901610219565b90955093506103b19050604087016101f0565b949793965091946060013592915050565b60008060008060008060a087890312156103da578182fd5b8635955060208701359450604087013567ffffffffffffffff8111156103fe578283fd5b61040a89828a01610219565b909550935061041d9050606088016101f0565b9150608087013590509295509295509295565b73ffffffffffffffffffffffffffffffffffffffff91909116815260200190565b90815260200190565b928352602083019190915260408201526060019056fea2646970667358221220ea4e86ee5f844bc317d2926f0605ace22b9e1c046af397deaa95640488ef286a64736f6c63430008000033608060405234801561001057600080fd5b50610100806100206000396000f3fe6080604052348015600f57600080fd5b506004361060285760003560e01c8063c9c6539614602d575b600080fd5b603c6038366004607c565b6050565b6040516047919060a9565b60405180910390f35b5090565b803573ffffffffffffffffffffffffffffffffffffffff81168114607757600080fd5b919050565b60008060408385031215608d578182fd5b6094836054565b915060a0602084016054565b90509250929050565b73ffffffffffffffffffffffffffffffffffffffff9190911681526020019056fea264697066735822122072c385b544548397ac950a593497f00ae9ad11c90d9dd17acc8710747c03df5564736f6c63430008000033",
  "immutableReferences": {},
  "source": "// SPDX-License-Identifier: MIT\npragma solidity ^0.8.0;\n\ncontract DexFactory {\n    function createPair(address tokenA, address tokenB)\n        external\n        returns (address pair)\n    {\n        return address(tokenA);\n    }\n}\n\ncontract DexRouter {\n    DexFactory dexFactory;\n\n    constructor() public {\n        dexFactory = new DexFactory();\n    }\n\n    function factory() external view returns (address) {\n        return address(dexFactory);\n    }\n\n    function createPair(address tokenA, address tokenB)\n        external\n        returns (address pair)\n    {\n        return address(tokenA);\n    }\n\n    function WETH() external pure returns (address) {\n        // address randomish = address(\n        //     uint160(uint256(keccak256(abi.encodePacked(\"1\", \"\"))))\n        // );\n        // return randomish;\n    }\n\n    function addLiquidity(\n        address tokenA,\n        address tokenB,\n        uint256 amountADesired,\n        uint256 amountBDesired,\n        uint256 amountAMin,\n        uint256 amountBMin,\n        address to,\n        uint256 deadline\n    )\n        external\n        returns (\n            uint256 amountA,\n            uint256 amountB,\n            uint256 liquidity\n        )\n    {\n        // return (amountADesired, amountBDesired, amountBDesired);\n    }\n\n    function addLiquidityETH(\n        address token,\n        uint256 amountTokenDesired,\n        uint256 amountTokenMin,\n        uint256 amountETHMin,\n        address to,\n        uint256 deadline\n    )\n        external\n        payable\n        returns (\n            uint256 amountToken,\n            uint256 amountETH,\n            uint256 liquidity\n        )\n    {}\n\n    function swapExactTokensForTokensSupportingFeeOnTransferTokens(\n        uint256 amountIn,\n        uint256 amountOutMin,\n        address[] calldata path,\n        address to,\n        uint256 deadline\n    ) external {}\n\n    function swapExactETHForTokensSupportingFeeOnTransferTokens(\n        uint256 amountOutMin,\n        address[] calldata path,\n        address to,\n        uint256 deadline\n    ) external payable {}\n\n    function getBanalce() external view returns (uint256) {\n        return address(this).balance;\n    }\n\n    function swapExactTokensForETHSupportingFeeOnTransferTokens(\n        uint256 amountIn,\n        uint256 amountOutMin,\n        address[] calldata path,\n        address to,\n        uint256 deadline\n    ) external {}\n}\n",
  "sourcePath": "/Users/vladimir.djukic/Documents/reflecto-token/contracts/mock/DexRouter.sol",
  "compiler": {
    "name": "solc",
    "version": "0.8.0+commit.c7dfd78e.Emscripten.clang"
  },
  "schemaVersion": "3.4.1",
  "updatedAt": "2021-10-25T10:16:55.979Z",
  "networkType": "ethereum",
  "devdoc": {
    "kind": "dev",
    "methods": {},
    "version": 1
  },
  "userdoc": {
    "kind": "user",
    "methods": {},
    "version": 1
  }
}