{
  "contractName": "DistributorFactory",
  "abi": [
    {
      "inputs": [],
      "stateMutability": "nonpayable",
      "type": "constructor"
    },
    {
      "inputs": [
        {
          "internalType": "address",
          "name": "",
          "type": "address"
        }
      ],
      "name": "distributorsArray",
      "outputs": [
        {
          "internalType": "contract DividendDistributor",
          "name": "distributorAddress",
          "type": "address"
        },
        {
          "internalType": "uint256",
          "name": "index",
          "type": "uint256"
        },
        {
          "internalType": "string",
          "name": "tokenName",
          "type": "string"
        },
        {
          "internalType": "bool",
          "name": "exists",
          "type": "bool"
        }
      ],
      "stateMutability": "view",
      "type": "function"
    },
    {
      "inputs": [
        {
          "internalType": "uint256",
          "name": "",
          "type": "uint256"
        }
      ],
      "name": "distributorsIndexes",
      "outputs": [
        {
          "internalType": "address",
          "name": "",
          "type": "address"
        }
      ],
      "stateMutability": "view",
      "type": "function"
    },
    {
      "inputs": [
        {
          "internalType": "address",
          "name": "_router",
          "type": "address"
        },
        {
          "internalType": "address",
          "name": "_BEP_TOKEN",
          "type": "address"
        },
        {
          "internalType": "address",
          "name": "_wbnb",
          "type": "address"
        }
      ],
      "name": "addDistributor",
      "outputs": [
        {
          "internalType": "bool",
          "name": "",
          "type": "bool"
        }
      ],
      "stateMutability": "nonpayable",
      "type": "function"
    },
    {
      "inputs": [
        {
          "internalType": "address",
          "name": "_BEP_TOKEN",
          "type": "address"
        }
      ],
      "name": "deleteDistributor",
      "outputs": [
        {
          "internalType": "bool",
          "name": "",
          "type": "bool"
        }
      ],
      "stateMutability": "nonpayable",
      "type": "function"
    },
    {
      "inputs": [],
      "name": "getDistributorsAddresses",
      "outputs": [
        {
          "internalType": "address[]",
          "name": "",
          "type": "address[]"
        }
      ],
      "stateMutability": "view",
      "type": "function"
    },
    {
      "inputs": [
        {
          "internalType": "address",
          "name": "shareholder",
          "type": "address"
        },
        {
          "internalType": "uint256",
          "name": "amount",
          "type": "uint256"
        }
      ],
      "name": "setShare",
      "outputs": [],
      "stateMutability": "nonpayable",
      "type": "function"
    },
    {
      "inputs": [
        {
          "internalType": "uint256",
          "name": "gas",
          "type": "uint256"
        }
      ],
      "name": "process",
      "outputs": [],
      "stateMutability": "nonpayable",
      "type": "function"
    },
    {
      "inputs": [],
      "name": "deposit",
      "outputs": [],
      "stateMutability": "payable",
      "type": "function"
    },
    {
      "inputs": [
        {
          "internalType": "address",
          "name": "_BEP_TOKEN",
          "type": "address"
        }
      ],
      "name": "getDistributor",
      "outputs": [
        {
          "internalType": "contract DividendDistributor",
          "name": "",
          "type": "address"
        }
      ],
      "stateMutability": "view",
      "type": "function"
    },
    {
      "inputs": [],
      "name": "getTotalUsers",
      "outputs": [
        {
          "internalType": "uint256",
          "name": "",
          "type": "uint256"
        }
      ],
      "stateMutability": "view",
      "type": "function"
    },
    {
      "inputs": [
        {
          "internalType": "address",
          "name": "_BEP_TOKEN",
          "type": "address"
        },
        {
          "internalType": "uint256",
          "name": "_minPeriod",
          "type": "uint256"
        },
        {
          "internalType": "uint256",
          "name": "_minDistribution",
          "type": "uint256"
        }
      ],
      "name": "setDistributionCriteria",
      "outputs": [],
      "stateMutability": "nonpayable",
      "type": "function"
    }
  ],
  "bytecode": "0x608060405234801561001057600080fd5b50600080546001600160a01b031916331790556122db806100326000396000f3fe608060405260043610620000ce5760003560e01c80639be572f6116200007f578063cd78f2fc1162000055578063cd78f2fc146200023a578063d0e30db0146200025f578063ffb2c479146200026957620000ce565b80639be572f614620001b5578063bc23725814620001dc578063c322a355146200021357620000ce565b806379c7a9dd11620000b557806379c7a9dd1462000137578063993df8c6146200016b5780639a236fd5146200019057620000ce565b806314b6ca9614620000d357806338081d5014620000fa575b600080fd5b348015620000e057600080fd5b50620000f8620000f236600462000f71565b6200028e565b005b3480156200010757600080fd5b506200011f6200011936600462001081565b620003ec565b6040516200012e91906200109a565b60405180910390f35b3480156200014457600080fd5b506200015c6200015636600462000f28565b62000417565b6040516200012e919062001139565b3480156200017857600080fd5b506200011f6200018a36600462000f0b565b6200064f565b3480156200019d57600080fd5b506200015c620001af36600462000f0b565b62000670565b348015620001c257600080fd5b50620001cd6200094c565b6040516200012e91906200122c565b348015620001e957600080fd5b5062000201620001fb36600462000f0b565b62000952565b6040516200012e949392919062001144565b3480156200022057600080fd5b506200022b62000a1b565b6040516200012e9190620010ea565b3480156200024757600080fd5b50620000f86200025936600462000f9d565b62000a7f565b620000f862000b2c565b3480156200027657600080fd5b50620000f86200028836600462001081565b62000c8f565b6000546001600160a01b03163314620002a657600080fd5b60025460005b81811015620003e6576001600060028381548110620002db57634e487b7160e01b600052603260045260246000fd5b60009182526020808320909101546001600160a01b0390811684529083019390935260409091019020541615620003d15760016000600283815481106200033257634e487b7160e01b600052603260045260246000fd5b60009182526020808320909101546001600160a01b03908116845290830193909352604091820190205490517f14b6ca960000000000000000000000000000000000000000000000000000000081529116906314b6ca96906200039c9087908790600401620010d1565b600060405180830381600087803b158015620003b757600080fd5b505af1158015620003cc573d6000803e3d6000fd5b505050505b80620003dd81620012ea565b915050620002ac565b50505050565b60028181548110620003fd57600080fd5b6000918252602090912001546001600160a01b0316905081565b600080546001600160a01b031633146200043057600080fd5b6001600160a01b03831660009081526001602052604090206003015460ff1615620004785760405162461bcd60e51b81526004016200046f9062001198565b60405180910390fd5b60008390506000858585604051620004909062000dfa565b6200049e93929190620010ae565b604051809103906000f080158015620004bb573d6000803e3d6000fd5b5060028054600180820183557f405787fa12a823e0f2b7631cc41b3ba8828b3321ca811111fa75cd3aa3bb5ace909101805473ffffffffffffffffffffffffffffffffffffffff199081166001600160a01b038b8116918217909355600090815260208490526040902080549091169185169190911790559054919250620005439162001264565b60016000876001600160a01b03166001600160a01b0316815260200190815260200160002060010181905550816001600160a01b03166306fdde036040518163ffffffff1660e01b815260040160006040518083038186803b158015620005a957600080fd5b505afa158015620005be573d6000803e3d6000fd5b505050506040513d6000823e601f3d908101601f19168201604052620005e8919081019062000fd2565b6001600160a01b038616600090815260016020908152604090912082516200061b93600290920192919091019062000e08565b5050506001600160a01b0383166000908152600160208190526040909120600301805460ff19168217905590509392505050565b6001600160a01b03808216600090815260016020526040902054165b919050565b600080546001600160a01b031633146200068957600080fd5b6001600160a01b03821660009081526001602052604090206003015460ff16620006c75760405162461bcd60e51b81526004016200046f90620011f5565b6001600160a01b0380831660009081526001602081815260408084208151608081018352815490961686529283015491850191909152600282018054939493918401916200071590620012ad565b80601f01602080910402602001604051908101604052809291908181526020018280546200074390620012ad565b8015620007945780601f10620007685761010080835404028352916020019162000794565b820191906000526020600020905b8154815290600101906020018083116200077657829003601f168201915b50505091835250506003919091015460ff161515602090910152600254909150620007c29060019062001264565b81602001511462000895576002805460009190620007e39060019062001264565b815481106200080257634e487b7160e01b600052603260045260246000fd5b9060005260206000200160009054906101000a90046001600160a01b031690508060028360200151815481106200084957634e487b7160e01b600052603260045260246000fd5b6000918252602080832091909101805473ffffffffffffffffffffffffffffffffffffffff19166001600160a01b03948516179055848101519390921681526001918290526040902001555b6001600160a01b03831660009081526001602081905260408220805473ffffffffffffffffffffffffffffffffffffffff1916815590810182905590620008e0600283018262000e97565b50600301805460ff1916905560028054620008fe9060019062001264565b815481106200091d57634e487b7160e01b600052603260045260246000fd5b6000918252602090912001805473ffffffffffffffffffffffffffffffffffffffff1916905550600192915050565b60025490565b60016020819052600091825260409091208054918101546002820180546001600160a01b03909416939192916200098990620012ad565b80601f0160208091040260200160405190810160405280929190818152602001828054620009b790620012ad565b801562000a085780601f10620009dc5761010080835404028352916020019162000a08565b820191906000526020600020905b815481529060010190602001808311620009ea57829003601f168201915b5050506003909301549192505060ff1684565b6060600280548060200260200160405190810160405280929190818152602001828054801562000a7557602002820191906000526020600020905b81546001600160a01b0316815260019091019060200180831162000a56575b5050505050905090565b6000546001600160a01b0316331462000a9757600080fd5b6001600160a01b03808416600090815260016020526040908190205490517f2d48e896000000000000000000000000000000000000000000000000000000008152911690632d48e8969062000af3908590859060040162001235565b600060405180830381600087803b15801562000b0e57600080fd5b505af115801562000b23573d6000803e3d6000fd5b50505050505050565b6000546001600160a01b0316331462000b4457600080fd5b600254600062000b55348362000de5565b905060005b8281101562000c8a57600160006002838154811062000b8957634e487b7160e01b600052603260045260246000fd5b60009182526020808320909101546001600160a01b039081168452908301939093526040909101902054161562000c7557600160006002838154811062000be057634e487b7160e01b600052603260045260246000fd5b60009182526020808320909101546001600160a01b03908116845290830193909352604091820181205482517fd0e30db0000000000000000000000000000000000000000000000000000000008152925193169263d0e30db0928692600480830193919282900301818588803b15801562000c5a57600080fd5b505af115801562000c6f573d6000803e3d6000fd5b50505050505b8062000c8181620012ea565b91505062000b5a565b505050565b6000546001600160a01b0316331462000ca757600080fd5b60025460005b8181101562000c8a57600160006002838154811062000cdc57634e487b7160e01b600052603260045260246000fd5b60009182526020808320909101546001600160a01b039081168452908301939093526040909101902054161562000dd057600160006002838154811062000d3357634e487b7160e01b600052603260045260246000fd5b60009182526020808320909101546001600160a01b03908116845290830193909352604091820190205490517fffb2c47900000000000000000000000000000000000000000000000000000000815291169063ffb2c4799062000d9b9086906004016200122c565b600060405180830381600087803b15801562000db657600080fd5b505af115801562000dcb573d6000803e3d6000fd5b505050505b8062000ddc81620012ea565b91505062000cad565b600062000df3828462001243565b9392505050565b610f71806200133583390190565b82805462000e1690620012ad565b90600052602060002090601f01602090048101928262000e3a576000855562000e85565b82601f1062000e5557805160ff191683800117855562000e85565b8280016001018555821562000e85579182015b8281111562000e8557825182559160200191906001019062000e68565b5062000e9392915062000edc565b5090565b50805462000ea590620012ad565b6000825580601f1062000eb9575062000ed9565b601f01602090049060005260206000209081019062000ed9919062000edc565b50565b5b8082111562000e93576000815560010162000edd565b80356001600160a01b03811681146200066b57600080fd5b60006020828403121562000f1d578081fd5b62000df38262000ef3565b60008060006060848603121562000f3d578182fd5b62000f488462000ef3565b925062000f586020850162000ef3565b915062000f686040850162000ef3565b90509250925092565b6000806040838503121562000f84578182fd5b62000f8f8362000ef3565b946020939093013593505050565b60008060006060848603121562000fb2578283fd5b62000fbd8462000ef3565b95602085013595506040909401359392505050565b60006020828403121562000fe4578081fd5b815167ffffffffffffffff8082111562000ffc578283fd5b818401915084601f83011262001010578283fd5b8151818111156200102557620010256200131e565b604051601f8201601f1916810160200183811182821017156200104c576200104c6200131e565b60405281815283820160200187101562001064578485fd5b620010778260208301602087016200127e565b9695505050505050565b60006020828403121562001093578081fd5b5035919050565b6001600160a01b0391909116815260200190565b6001600160a01b0393841681529183166020830152909116604082015260600190565b6001600160a01b03929092168252602082015260400190565b6020808252825182820181905260009190848201906040850190845b818110156200112d5783516001600160a01b03168352928401929184019160010162001106565b50909695505050505050565b901515815260200190565b60006001600160a01b03861682528460208301526080604083015283518060808401526200117a8160a08501602088016200127e565b921515606083015250601f91909101601f19160160a0019392505050565b60208082526023908201527f5265666c6563746f2f4469737472696275746f7220616c72656164792065786960408201527f7374730000000000000000000000000000000000000000000000000000000000606082015260800190565b6020808252601e908201527f5265666c6563746f2f4469737472696275746f72206e6f7420666f756e640000604082015260600190565b90815260200190565b918252602082015260400190565b6000826200125f57634e487b7160e01b81526012600452602481fd5b500490565b60008282101562001279576200127962001308565b500390565b60005b838110156200129b57818101518382015260200162001281565b83811115620003e65750506000910152565b600281046001821680620012c257607f821691505b60208210811415620012e457634e487b7160e01b600052602260045260246000fd5b50919050565b600060001982141562001301576200130162001308565b5060010190565b634e487b7160e01b600052601160045260246000fd5b634e487b7160e01b600052604160045260246000fdfe60806040526ec097ce7bc90715b34b9f1000000000600c55610e10600d55670de0b6b3a7640000600e5534801561003557600080fd5b50604051610f71380380610f71833981016040819052610054916100e6565b6001600160a01b03831661007c577310ed43c718714eb63d5aa57b78b54704e256024e61007e565b825b600380546001600160a01b03199081166001600160a01b039384161790915560008054339083161790556001805482169483169490941790935560028054909316911617905550610128565b80516001600160a01b03811681146100e157600080fd5b919050565b6000806000606084860312156100fa578283fd5b610103846100ca565b9250610111602085016100ca565b915061011f604085016100ca565b90509250925092565b610e3a806101376000396000f3fe6080604052600436106100dd5760003560e01c8063ce7c2ac21161007f578063efca2eed11610059578063efca2eed146101fa578063f0fc6bca1461020f578063ffb2c47914610224578063ffd49c8414610244576100dd565b8063ce7c2ac2146101ae578063d0e30db0146101dd578063e2d2e219146101e5576100dd565b80632d48e896116100bb5780632d48e8961461014f5780633a98ef391461016f5780634fab0ae814610184578063997664d714610199576100dd565b806311ce023d146100e257806314b6ca961461010d57806328fd31981461012f575b600080fd5b3480156100ee57600080fd5b506100f7610259565b6040516101049190610d46565b60405180910390f35b34801561011957600080fd5b5061012d610128366004610c16565b61025f565b005b34801561013b57600080fd5b506100f761014a366004610bfc565b610384565b34801561015b57600080fd5b5061012d61016a366004610c8f565b610410565b34801561017b57600080fd5b506100f7610432565b34801561019057600080fd5b506100f7610438565b3480156101a557600080fd5b506100f761043e565b3480156101ba57600080fd5b506101ce6101c9366004610bfc565b610444565b60405161010493929190610d4f565b61012d610465565b3480156101f157600080fd5b506100f76106f1565b34801561020657600080fd5b506100f76106f7565b34801561021b57600080fd5b5061012d6106fd565b34801561023057600080fd5b5061012d61023f366004610c5f565b610708565b34801561025057600080fd5b506100f7610827565b600c5481565b6000546001600160a01b0316331461027657600080fd5b6001600160a01b0382166000908152600760205260409020541561029d5761029d8261082d565b6000811180156102c357506001600160a01b038216600090815260076020526040902054155b156102d6576102d182610971565b610309565b801580156102fb57506001600160a01b03821660009081526007602052604090205415155b1561030957610309826109df565b6001600160a01b03821660009081526007602052604090205460085461033a91839161033491610b46565b90610b59565b6008556001600160a01b038216600090815260076020526040902081905561036181610b65565b6001600160a01b0390921660009081526007602052604090206001019190915550565b6001600160a01b0381166000908152600760205260408120546103a95750600061040b565b6001600160a01b0382166000908152600760205260408120546103cb90610b65565b6001600160a01b0384166000908152600760205260409020600101549091508082116103fc5760009250505061040b565b6104068282610b46565b925050505b919050565b6000546001600160a01b0316331461042757600080fd5b600d91909155600e55565b60085481565b600e5481565b60095481565b60076020526000908152604090208054600182015460029092015490919083565b6000546001600160a01b0316331461047c57600080fd5b6001546040516370a0823160e01b81526000916001600160a01b0316906370a08231906104ad903090600401610cb0565b60206040518083038186803b1580156104c557600080fd5b505afa1580156104d9573d6000803e3d6000fd5b505050506040513d601f19601f820116820180604052508101906104fd9190610c77565b6040805160028082526060820183529293506000929091602083019080368337505060025482519293506001600160a01b03169183915060009061055157634e487b7160e01b600052603260045260246000fd5b6001600160a01b039283166020918202929092010152600180548351921691839190811061058f57634e487b7160e01b600052603260045260246000fd5b6001600160a01b0392831660209182029290920101526003546040517fb6f9de9500000000000000000000000000000000000000000000000000000000815291169063b6f9de959034906105ee90600090869030904290600401610cdd565b6000604051808303818588803b15801561060757600080fd5b505af115801561061b573d6000803e3d6000fd5b50506001546040516370a0823160e01b8152600094506106af93508692506001600160a01b03909116906370a0823190610659903090600401610cb0565b60206040518083038186803b15801561067157600080fd5b505afa158015610685573d6000803e3d6000fd5b505050506040513d601f19601f820116820180604052508101906106a99190610c77565b90610b46565b6009549091506106bf9082610b59565b600955600854600c546106e9916106e0916106da9085610b88565b90610b94565b600b5490610b59565b600b55505050565b600b5481565b600a5481565b6107063361082d565b565b6000546001600160a01b0316331461071f57600080fd5b6004548061072d5750610824565b6000805a905060005b848310801561074457508381105b1561081f5783600f5410610758576000600f555b6107986004600f548154811061077e57634e487b7160e01b600052603260045260246000fd5b6000918252602090912001546001600160a01b0316610ba0565b156107dd576107dd6004600f54815481106107c357634e487b7160e01b600052603260045260246000fd5b6000918252602090912001546001600160a01b031661082d565b6107f26107eb5a8490610b46565b8490610b59565b92505a600f8054919350600061080783610dd3565b9190505550808061081790610dd3565b915050610736565b505050505b50565b600d5481565b6001600160a01b03811660009081526007602052604090205461084f57610824565b600061085a82610384565b9050801561096d57600a5461086f9082610b59565b600a556001546040517fa9059cbb0000000000000000000000000000000000000000000000000000000081526001600160a01b039091169063a9059cbb906108bd9085908590600401610cc4565b602060405180830381600087803b1580156108d757600080fd5b505af11580156108eb573d6000803e3d6000fd5b505050506040513d601f19601f8201168201806040525081019061090f9190610c3f565b506001600160a01b038216600090815260066020908152604080832042905560079091529020600201546109439082610b59565b6001600160a01b038316600090815260076020526040902060028101919091555461036190610b65565b5050565b600480546001600160a01b039092166000818152600560205260408120849055600184018355919091527f8a35acfbc15ff81a39ae7d344fd709f28e8600b4aa8c65c6b64bfe7fe36bd19b909101805473ffffffffffffffffffffffffffffffffffffffff19169091179055565b600480546109ef90600190610dbc565b81548110610a0d57634e487b7160e01b600052603260045260246000fd5b60009182526020808320909101546001600160a01b0384811684526005909252604090922054600480549290931692918110610a5957634e487b7160e01b600052603260045260246000fd5b6000918252602080832091909101805473ffffffffffffffffffffffffffffffffffffffff19166001600160a01b03948516179055918316815260059182905260408120546004805491939291610ab290600190610dbc565b81548110610ad057634e487b7160e01b600052603260045260246000fd5b60009182526020808320909101546001600160a01b031683528201929092526040019020556004805480610b1457634e487b7160e01b600052603160045260246000fd5b6000828152602090208101600019908101805473ffffffffffffffffffffffffffffffffffffffff1916905501905550565b6000610b528284610dbc565b9392505050565b6000610b528284610d65565b6000610b82600c546106da600b5485610b8890919063ffffffff16565b92915050565b6000610b528284610d9d565b6000610b528284610d7d565b600d546001600160a01b03821660009081526006602052604081205490914291610bca9190610d65565b108015610b825750600e54610bde83610384565b1192915050565b80356001600160a01b038116811461040b57600080fd5b600060208284031215610c0d578081fd5b610b5282610be5565b60008060408385031215610c28578081fd5b610c3183610be5565b946020939093013593505050565b600060208284031215610c50578081fd5b81518015158114610b52578182fd5b600060208284031215610c70578081fd5b5035919050565b600060208284031215610c88578081fd5b5051919050565b60008060408385031215610ca1578182fd5b50508035926020909101359150565b6001600160a01b0391909116815260200190565b6001600160a01b03929092168252602082015260400190565b600060808201868352602060808185015281875180845260a0860191508289019350845b81811015610d265784516001600160a01b031683529383019391830191600101610d01565b50506001600160a01b039690961660408501525050506060015292915050565b90815260200190565b9283526020830191909152604082015260600190565b60008219821115610d7857610d78610dee565b500190565b600082610d9857634e487b7160e01b81526012600452602481fd5b500490565b6000816000190483118215151615610db757610db7610dee565b500290565b600082821015610dce57610dce610dee565b500390565b6000600019821415610de757610de7610dee565b5060010190565b634e487b7160e01b600052601160045260246000fdfea2646970667358221220f7ced21a8a6ea352ae9dd54945032d68e71e47c2c9db36770ca4f00925a1df2664736f6c63430008000033a2646970667358221220b3e8cf92220744f75c0aee35ae849b169cc4443e009d834122c41e6d300b29d064736f6c63430008000033",
  "immutableReferences": {},
  "source": "// SPDX-License-Identifier: MIT\npragma solidity ^0.8.0;\n\nimport \"./DividendDistributor.sol\";\nimport \"./libs/IBEP20.sol\";\nimport \"./libs/SafeMath.sol\";\n\ncontract DistributorFactory {\n    using SafeMath for uint256;\n    address _token;\n\n    struct structDistributors {\n        DividendDistributor distributorAddress;\n        uint256 index;\n        string tokenName;\n        bool exists;\n    }\n\n    mapping(address => structDistributors) public distributorsArray;\n    address[] public distributorsIndexes;\n\n    modifier onlyToken() {\n        require(msg.sender == _token);\n        _;\n    }\n\n    constructor() {\n        _token = msg.sender;\n    }\n\n    function addDistributor(\n        address _router,\n        address _BEP_TOKEN,\n        address _wbnb\n    ) external onlyToken returns (bool) {\n        require(\n            !distributorsArray[_BEP_TOKEN].exists,\n            \"Reflecto/Distributor already exists\"\n        );\n\n        IBEP20 BEP_TOKEN = IBEP20(_BEP_TOKEN);\n        DividendDistributor distributor = new DividendDistributor(\n            _router,\n            _BEP_TOKEN,\n            _wbnb\n        );\n\n        distributorsIndexes.push(_BEP_TOKEN);\n        distributorsArray[_BEP_TOKEN].distributorAddress = distributor;\n        distributorsArray[_BEP_TOKEN].index = distributorsIndexes.length - 1;\n        distributorsArray[_BEP_TOKEN].tokenName = BEP_TOKEN.name();\n        distributorsArray[_BEP_TOKEN].exists = true;\n\n        return true;\n    }\n\n    function deleteDistributor(address _BEP_TOKEN)\n        external\n        onlyToken\n        returns (bool)\n    {\n        require(\n            distributorsArray[_BEP_TOKEN].exists,\n            \"Reflecto/Distributor not found\"\n        );\n\n        structDistributors memory deletedDistributer = distributorsArray[\n            _BEP_TOKEN\n        ];\n        // if index is not the last entry\n        if (deletedDistributer.index != distributorsIndexes.length - 1) {\n            // delete distributorsIndexes[deletedDistributer.index];\n            // last strucDistributer\n            address lastAddress = distributorsIndexes[\n                distributorsIndexes.length - 1\n            ];\n            distributorsIndexes[deletedDistributer.index] = lastAddress;\n            distributorsArray[lastAddress].index = deletedDistributer.index;\n        }\n        delete distributorsArray[_BEP_TOKEN];\n        delete distributorsIndexes[distributorsIndexes.length - 1];\n        return true;\n    }\n\n    function getDistributorsAddresses() public view returns (address[] memory) {\n        return distributorsIndexes;\n    }\n\n    function setShare(address shareholder, uint256 amount) external onlyToken {\n        uint256 arrayLength = distributorsIndexes.length;\n        for (uint256 i = 0; i < arrayLength; i++) {\n            if (\n                0x0000000000000000000000000000000000000000 !=\n                address(\n                    distributorsArray[distributorsIndexes[i]].distributorAddress\n                )\n            ) {\n                distributorsArray[distributorsIndexes[i]]\n                    .distributorAddress\n                    .setShare(shareholder, amount);\n            }\n        }\n    }\n\n    function process(uint256 gas) external onlyToken {\n        uint256 arrayLength = distributorsIndexes.length;\n        for (uint256 i = 0; i < arrayLength; i++) {\n            if (\n                0x0000000000000000000000000000000000000000 !=\n                address(\n                    distributorsArray[distributorsIndexes[i]].distributorAddress\n                )\n            ) {\n                distributorsArray[distributorsIndexes[i]]\n                    .distributorAddress\n                    .process(gas);\n            }\n        }\n    }\n\n    function deposit() external payable onlyToken {\n        uint256 arrayLength = distributorsIndexes.length;\n        uint256 valuePerToken = msg.value.div(arrayLength);\n\n        for (uint256 i = 0; i < arrayLength; i++) {\n            if (\n                0x0000000000000000000000000000000000000000 !=\n                address(\n                    distributorsArray[distributorsIndexes[i]].distributorAddress\n                )\n            ) {\n                distributorsArray[distributorsIndexes[i]]\n                    .distributorAddress\n                    .deposit{value: valuePerToken}();\n            }\n        }\n    }\n\n    function getDistributor(address _BEP_TOKEN)\n        public\n        view\n        returns (DividendDistributor)\n    {\n        return distributorsArray[_BEP_TOKEN].distributorAddress;\n    }\n\n    function getTotalUsers() public view returns (uint256) {\n        return distributorsIndexes.length;\n    }\n\n    function setDistributionCriteria(\n        address _BEP_TOKEN,\n        uint256 _minPeriod,\n        uint256 _minDistribution\n    ) external onlyToken {\n        distributorsArray[_BEP_TOKEN]\n            .distributorAddress\n            .setDistributionCriteria(_minPeriod, _minDistribution);\n    }\n}\n",
  "sourcePath": "/Users/vladimir.djukic/Documents/reflecto-token/contracts/DistributorFactory.sol",
  "compiler": {
    "name": "solc",
    "version": "0.8.0+commit.c7dfd78e.Emscripten.clang"
  },
  "schemaVersion": "3.4.1",
  "updatedAt": "2021-10-25T10:15:11.389Z",
  "devdoc": {
    "kind": "dev",
    "methods": {},
    "version": 1
  },
  "userdoc": {
    "kind": "user",
    "methods": {},
    "version": 1
  }
}