{
  "contractName": "DividendDistributor",
  "abi": [
    {
      "inputs": [
        {
          "internalType": "address",
          "name": "_router",
          "type": "address"
        },
        {
          "internalType": "address",
          "name": "_BEP_TOKEN",
          "type": "address"
        },
        {
          "internalType": "address",
          "name": "_wbnb",
          "type": "address"
        }
      ],
      "stateMutability": "nonpayable",
      "type": "constructor"
    },
    {
      "inputs": [],
      "name": "dividendsPerShare",
      "outputs": [
        {
          "internalType": "uint256",
          "name": "",
          "type": "uint256"
        }
      ],
      "stateMutability": "view",
      "type": "function"
    },
    {
      "inputs": [],
      "name": "dividendsPerShareAccuracyFactor",
      "outputs": [
        {
          "internalType": "uint256",
          "name": "",
          "type": "uint256"
        }
      ],
      "stateMutability": "view",
      "type": "function"
    },
    {
      "inputs": [],
      "name": "minDistribution",
      "outputs": [
        {
          "internalType": "uint256",
          "name": "",
          "type": "uint256"
        }
      ],
      "stateMutability": "view",
      "type": "function"
    },
    {
      "inputs": [],
      "name": "minPeriod",
      "outputs": [
        {
          "internalType": "uint256",
          "name": "",
          "type": "uint256"
        }
      ],
      "stateMutability": "view",
      "type": "function"
    },
    {
      "inputs": [
        {
          "internalType": "address",
          "name": "",
          "type": "address"
        }
      ],
      "name": "shares",
      "outputs": [
        {
          "internalType": "uint256",
          "name": "amount",
          "type": "uint256"
        },
        {
          "internalType": "uint256",
          "name": "totalExcluded",
          "type": "uint256"
        },
        {
          "internalType": "uint256",
          "name": "totalRealised",
          "type": "uint256"
        }
      ],
      "stateMutability": "view",
      "type": "function"
    },
    {
      "inputs": [],
      "name": "totalDistributed",
      "outputs": [
        {
          "internalType": "uint256",
          "name": "",
          "type": "uint256"
        }
      ],
      "stateMutability": "view",
      "type": "function"
    },
    {
      "inputs": [],
      "name": "totalDividends",
      "outputs": [
        {
          "internalType": "uint256",
          "name": "",
          "type": "uint256"
        }
      ],
      "stateMutability": "view",
      "type": "function"
    },
    {
      "inputs": [],
      "name": "totalShares",
      "outputs": [
        {
          "internalType": "uint256",
          "name": "",
          "type": "uint256"
        }
      ],
      "stateMutability": "view",
      "type": "function"
    },
    {
      "inputs": [
        {
          "internalType": "uint256",
          "name": "_minPeriod",
          "type": "uint256"
        },
        {
          "internalType": "uint256",
          "name": "_minDistribution",
          "type": "uint256"
        }
      ],
      "name": "setDistributionCriteria",
      "outputs": [],
      "stateMutability": "nonpayable",
      "type": "function"
    },
    {
      "inputs": [
        {
          "internalType": "address",
          "name": "shareholder",
          "type": "address"
        },
        {
          "internalType": "uint256",
          "name": "amount",
          "type": "uint256"
        }
      ],
      "name": "setShare",
      "outputs": [],
      "stateMutability": "nonpayable",
      "type": "function"
    },
    {
      "inputs": [],
      "name": "deposit",
      "outputs": [],
      "stateMutability": "payable",
      "type": "function"
    },
    {
      "inputs": [
        {
          "internalType": "uint256",
          "name": "gas",
          "type": "uint256"
        }
      ],
      "name": "process",
      "outputs": [],
      "stateMutability": "nonpayable",
      "type": "function"
    },
    {
      "inputs": [],
      "name": "claimDividend",
      "outputs": [],
      "stateMutability": "nonpayable",
      "type": "function"
    },
    {
      "inputs": [
        {
          "internalType": "address",
          "name": "shareholder",
          "type": "address"
        }
      ],
      "name": "getUnpaidEarnings",
      "outputs": [
        {
          "internalType": "uint256",
          "name": "",
          "type": "uint256"
        }
      ],
      "stateMutability": "view",
      "type": "function"
    }
  ],
  "bytecode": "0x60806040526ec097ce7bc90715b34b9f1000000000600c55610e10600d55670de0b6b3a7640000600e5534801561003557600080fd5b50604051610f71380380610f71833981016040819052610054916100e6565b6001600160a01b03831661007c577310ed43c718714eb63d5aa57b78b54704e256024e61007e565b825b600380546001600160a01b03199081166001600160a01b039384161790915560008054339083161790556001805482169483169490941790935560028054909316911617905550610128565b80516001600160a01b03811681146100e157600080fd5b919050565b6000806000606084860312156100fa578283fd5b610103846100ca565b9250610111602085016100ca565b915061011f604085016100ca565b90509250925092565b610e3a806101376000396000f3fe6080604052600436106100dd5760003560e01c8063ce7c2ac21161007f578063efca2eed11610059578063efca2eed146101fa578063f0fc6bca1461020f578063ffb2c47914610224578063ffd49c8414610244576100dd565b8063ce7c2ac2146101ae578063d0e30db0146101dd578063e2d2e219146101e5576100dd565b80632d48e896116100bb5780632d48e8961461014f5780633a98ef391461016f5780634fab0ae814610184578063997664d714610199576100dd565b806311ce023d146100e257806314b6ca961461010d57806328fd31981461012f575b600080fd5b3480156100ee57600080fd5b506100f7610259565b6040516101049190610d46565b60405180910390f35b34801561011957600080fd5b5061012d610128366004610c16565b61025f565b005b34801561013b57600080fd5b506100f761014a366004610bfc565b610384565b34801561015b57600080fd5b5061012d61016a366004610c8f565b610410565b34801561017b57600080fd5b506100f7610432565b34801561019057600080fd5b506100f7610438565b3480156101a557600080fd5b506100f761043e565b3480156101ba57600080fd5b506101ce6101c9366004610bfc565b610444565b60405161010493929190610d4f565b61012d610465565b3480156101f157600080fd5b506100f76106f1565b34801561020657600080fd5b506100f76106f7565b34801561021b57600080fd5b5061012d6106fd565b34801561023057600080fd5b5061012d61023f366004610c5f565b610708565b34801561025057600080fd5b506100f7610827565b600c5481565b6000546001600160a01b0316331461027657600080fd5b6001600160a01b0382166000908152600760205260409020541561029d5761029d8261082d565b6000811180156102c357506001600160a01b038216600090815260076020526040902054155b156102d6576102d182610971565b610309565b801580156102fb57506001600160a01b03821660009081526007602052604090205415155b1561030957610309826109df565b6001600160a01b03821660009081526007602052604090205460085461033a91839161033491610b46565b90610b59565b6008556001600160a01b038216600090815260076020526040902081905561036181610b65565b6001600160a01b0390921660009081526007602052604090206001019190915550565b6001600160a01b0381166000908152600760205260408120546103a95750600061040b565b6001600160a01b0382166000908152600760205260408120546103cb90610b65565b6001600160a01b0384166000908152600760205260409020600101549091508082116103fc5760009250505061040b565b6104068282610b46565b925050505b919050565b6000546001600160a01b0316331461042757600080fd5b600d91909155600e55565b60085481565b600e5481565b60095481565b60076020526000908152604090208054600182015460029092015490919083565b6000546001600160a01b0316331461047c57600080fd5b6001546040516370a0823160e01b81526000916001600160a01b0316906370a08231906104ad903090600401610cb0565b60206040518083038186803b1580156104c557600080fd5b505afa1580156104d9573d6000803e3d6000fd5b505050506040513d601f19601f820116820180604052508101906104fd9190610c77565b6040805160028082526060820183529293506000929091602083019080368337505060025482519293506001600160a01b03169183915060009061055157634e487b7160e01b600052603260045260246000fd5b6001600160a01b039283166020918202929092010152600180548351921691839190811061058f57634e487b7160e01b600052603260045260246000fd5b6001600160a01b0392831660209182029290920101526003546040517fb6f9de9500000000000000000000000000000000000000000000000000000000815291169063b6f9de959034906105ee90600090869030904290600401610cdd565b6000604051808303818588803b15801561060757600080fd5b505af115801561061b573d6000803e3d6000fd5b50506001546040516370a0823160e01b8152600094506106af93508692506001600160a01b03909116906370a0823190610659903090600401610cb0565b60206040518083038186803b15801561067157600080fd5b505afa158015610685573d6000803e3d6000fd5b505050506040513d601f19601f820116820180604052508101906106a99190610c77565b90610b46565b6009549091506106bf9082610b59565b600955600854600c546106e9916106e0916106da9085610b88565b90610b94565b600b5490610b59565b600b55505050565b600b5481565b600a5481565b6107063361082d565b565b6000546001600160a01b0316331461071f57600080fd5b6004548061072d5750610824565b6000805a905060005b848310801561074457508381105b1561081f5783600f5410610758576000600f555b6107986004600f548154811061077e57634e487b7160e01b600052603260045260246000fd5b6000918252602090912001546001600160a01b0316610ba0565b156107dd576107dd6004600f54815481106107c357634e487b7160e01b600052603260045260246000fd5b6000918252602090912001546001600160a01b031661082d565b6107f26107eb5a8490610b46565b8490610b59565b92505a600f8054919350600061080783610dd3565b9190505550808061081790610dd3565b915050610736565b505050505b50565b600d5481565b6001600160a01b03811660009081526007602052604090205461084f57610824565b600061085a82610384565b9050801561096d57600a5461086f9082610b59565b600a556001546040517fa9059cbb0000000000000000000000000000000000000000000000000000000081526001600160a01b039091169063a9059cbb906108bd9085908590600401610cc4565b602060405180830381600087803b1580156108d757600080fd5b505af11580156108eb573d6000803e3d6000fd5b505050506040513d601f19601f8201168201806040525081019061090f9190610c3f565b506001600160a01b038216600090815260066020908152604080832042905560079091529020600201546109439082610b59565b6001600160a01b038316600090815260076020526040902060028101919091555461036190610b65565b5050565b600480546001600160a01b039092166000818152600560205260408120849055600184018355919091527f8a35acfbc15ff81a39ae7d344fd709f28e8600b4aa8c65c6b64bfe7fe36bd19b909101805473ffffffffffffffffffffffffffffffffffffffff19169091179055565b600480546109ef90600190610dbc565b81548110610a0d57634e487b7160e01b600052603260045260246000fd5b60009182526020808320909101546001600160a01b0384811684526005909252604090922054600480549290931692918110610a5957634e487b7160e01b600052603260045260246000fd5b6000918252602080832091909101805473ffffffffffffffffffffffffffffffffffffffff19166001600160a01b03948516179055918316815260059182905260408120546004805491939291610ab290600190610dbc565b81548110610ad057634e487b7160e01b600052603260045260246000fd5b60009182526020808320909101546001600160a01b031683528201929092526040019020556004805480610b1457634e487b7160e01b600052603160045260246000fd5b6000828152602090208101600019908101805473ffffffffffffffffffffffffffffffffffffffff1916905501905550565b6000610b528284610dbc565b9392505050565b6000610b528284610d65565b6000610b82600c546106da600b5485610b8890919063ffffffff16565b92915050565b6000610b528284610d9d565b6000610b528284610d7d565b600d546001600160a01b03821660009081526006602052604081205490914291610bca9190610d65565b108015610b825750600e54610bde83610384565b1192915050565b80356001600160a01b038116811461040b57600080fd5b600060208284031215610c0d578081fd5b610b5282610be5565b60008060408385031215610c28578081fd5b610c3183610be5565b946020939093013593505050565b600060208284031215610c50578081fd5b81518015158114610b52578182fd5b600060208284031215610c70578081fd5b5035919050565b600060208284031215610c88578081fd5b5051919050565b60008060408385031215610ca1578182fd5b50508035926020909101359150565b6001600160a01b0391909116815260200190565b6001600160a01b03929092168252602082015260400190565b600060808201868352602060808185015281875180845260a0860191508289019350845b81811015610d265784516001600160a01b031683529383019391830191600101610d01565b50506001600160a01b039690961660408501525050506060015292915050565b90815260200190565b9283526020830191909152604082015260600190565b60008219821115610d7857610d78610dee565b500190565b600082610d9857634e487b7160e01b81526012600452602481fd5b500490565b6000816000190483118215151615610db757610db7610dee565b500290565b600082821015610dce57610dce610dee565b500390565b6000600019821415610de757610de7610dee565b5060010190565b634e487b7160e01b600052601160045260246000fdfea2646970667358221220f7ced21a8a6ea352ae9dd54945032d68e71e47c2c9db36770ca4f00925a1df2664736f6c63430008000033",
  "immutableReferences": {},
  "source": "// SPDX-License-Identifier: MIT\npragma solidity ^0.8.0;\n\nimport \"./libs/IDividendDistributor.sol\";\nimport \"./libs/SafeMath.sol\";\nimport \"./libs/IBEP20.sol\";\nimport \"./libs/IDEX.sol\";\n\ncontract DividendDistributor is IDividendDistributor {\n    using SafeMath for uint256;\n\n    address _token;\n\n    struct Share {\n        uint256 amount;\n        uint256 totalExcluded;\n        uint256 totalRealised;\n    }\n\n    IBEP20 BEP_TOKEN;\n\n    address WBNB;\n    IDEXRouter router;\n\n    address[] shareholders;\n    mapping(address => uint256) shareholderIndexes;\n    mapping(address => uint256) shareholderClaims;\n\n    mapping(address => Share) public shares;\n\n    uint256 public totalShares;\n    uint256 public totalDividends;\n    uint256 public totalDistributed;\n    uint256 public dividendsPerShare;\n    uint256 public dividendsPerShareAccuracyFactor = 10**36;\n\n    uint256 public minPeriod = 1 hours;\n    uint256 public minDistribution = 1 * (10**18);\n\n    uint256 currentIndex;\n\n    bool initialized;\n    modifier initialization() {\n        require(!initialized);\n        _;\n        initialized = true;\n    }\n\n    modifier onlyToken() {\n        require(msg.sender == _token);\n        _;\n    }\n\n    constructor(\n        address _router,\n        address _BEP_TOKEN,\n        address _wbnb\n    ) {\n        router = _router != address(0)\n            ? IDEXRouter(_router)\n            : IDEXRouter(0x10ED43C718714eb63d5aA57B78B54704E256024E);\n        _token = msg.sender;\n        BEP_TOKEN = IBEP20(_BEP_TOKEN);\n        WBNB = _wbnb;\n    }\n\n    function setDistributionCriteria(\n        uint256 _minPeriod,\n        uint256 _minDistribution\n    ) external override onlyToken {\n        minPeriod = _minPeriod;\n        minDistribution = _minDistribution;\n    }\n\n    function setShare(address shareholder, uint256 amount)\n        external\n        override\n        onlyToken\n    {\n        if (shares[shareholder].amount > 0) {\n            distributeDividend(shareholder);\n        }\n\n        if (amount > 0 && shares[shareholder].amount == 0) {\n            addShareholder(shareholder);\n        } else if (amount == 0 && shares[shareholder].amount > 0) {\n            removeShareholder(shareholder);\n        }\n\n        totalShares = totalShares.sub(shares[shareholder].amount).add(amount);\n        shares[shareholder].amount = amount;\n        shares[shareholder].totalExcluded = getCumulativeDividends(\n            shares[shareholder].amount\n        );\n    }\n\n    function deposit() external payable override onlyToken {\n        uint256 balanceBefore = BEP_TOKEN.balanceOf(address(this));\n\n        address[] memory path = new address[](2);\n        path[0] = WBNB;\n        path[1] = address(BEP_TOKEN);\n\n        router.swapExactETHForTokensSupportingFeeOnTransferTokens{\n            value: msg.value\n        }(0, path, address(this), block.timestamp);\n\n        uint256 amount = BEP_TOKEN.balanceOf(address(this)).sub(balanceBefore);\n\n        totalDividends = totalDividends.add(amount);\n        dividendsPerShare = dividendsPerShare.add(\n            dividendsPerShareAccuracyFactor.mul(amount).div(totalShares)\n        );\n    }\n\n    function process(uint256 gas) external override onlyToken {\n        uint256 shareholderCount = shareholders.length;\n\n        if (shareholderCount == 0) {\n            return;\n        }\n\n        uint256 gasUsed = 0;\n        uint256 gasLeft = gasleft();\n\n        uint256 iterations = 0;\n\n        while (gasUsed < gas && iterations < shareholderCount) {\n            if (currentIndex >= shareholderCount) {\n                currentIndex = 0;\n            }\n\n            if (shouldDistribute(shareholders[currentIndex])) {\n                distributeDividend(shareholders[currentIndex]);\n            }\n\n            gasUsed = gasUsed.add(gasLeft.sub(gasleft()));\n            gasLeft = gasleft();\n            currentIndex++;\n            iterations++;\n        }\n    }\n\n    function shouldDistribute(address shareholder)\n        internal\n        view\n        returns (bool)\n    {\n        return\n            shareholderClaims[shareholder] + minPeriod < block.timestamp &&\n            getUnpaidEarnings(shareholder) > minDistribution;\n    }\n\n    function distributeDividend(address shareholder) internal {\n        if (shares[shareholder].amount == 0) {\n            return;\n        }\n\n        uint256 amount = getUnpaidEarnings(shareholder);\n        if (amount > 0) {\n            totalDistributed = totalDistributed.add(amount);\n            BEP_TOKEN.transfer(shareholder, amount);\n            shareholderClaims[shareholder] = block.timestamp;\n            shares[shareholder].totalRealised = shares[shareholder]\n                .totalRealised\n                .add(amount);\n            shares[shareholder].totalExcluded = getCumulativeDividends(\n                shares[shareholder].amount\n            );\n        }\n    }\n\n    function claimDividend() external {\n        distributeDividend(msg.sender);\n    }\n\n    function getUnpaidEarnings(address shareholder)\n        public\n        view\n        returns (uint256)\n    {\n        if (shares[shareholder].amount == 0) {\n            return 0;\n        }\n\n        uint256 shareholderTotalDividends = getCumulativeDividends(\n            shares[shareholder].amount\n        );\n        uint256 shareholderTotalExcluded = shares[shareholder].totalExcluded;\n\n        if (shareholderTotalDividends <= shareholderTotalExcluded) {\n            return 0;\n        }\n\n        return shareholderTotalDividends.sub(shareholderTotalExcluded);\n    }\n\n    function getCumulativeDividends(uint256 share)\n        internal\n        view\n        returns (uint256)\n    {\n        return\n            share.mul(dividendsPerShare).div(dividendsPerShareAccuracyFactor);\n    }\n\n    function addShareholder(address shareholder) internal {\n        shareholderIndexes[shareholder] = shareholders.length;\n        shareholders.push(shareholder);\n    }\n\n    function removeShareholder(address shareholder) internal {\n        shareholders[shareholderIndexes[shareholder]] = shareholders[\n            shareholders.length - 1\n        ];\n        shareholderIndexes[\n            shareholders[shareholders.length - 1]\n        ] = shareholderIndexes[shareholder];\n        shareholders.pop();\n    }\n}\n",
  "sourcePath": "/Users/vladimir.djukic/Documents/reflecto-token/contracts/DividendDistributor.sol",
  "compiler": {
    "name": "solc",
    "version": "0.8.0+commit.c7dfd78e.Emscripten.clang"
  },
  "schemaVersion": "3.4.1",
  "updatedAt": "2021-10-25T10:15:11.394Z",
  "devdoc": {
    "kind": "dev",
    "methods": {},
    "version": 1
  },
  "userdoc": {
    "kind": "user",
    "methods": {},
    "version": 1
  }
}