{
  "contractName": "DividendDistributor",
  "abi": [
    {
      "inputs": [
        {
          "internalType": "address",
          "name": "_router",
          "type": "address"
        }
      ],
      "stateMutability": "nonpayable",
      "type": "constructor"
    },
    {
      "inputs": [],
      "name": "dividendsPerShare",
      "outputs": [
        {
          "internalType": "uint256",
          "name": "",
          "type": "uint256"
        }
      ],
      "stateMutability": "view",
      "type": "function"
    },
    {
      "inputs": [],
      "name": "dividendsPerShareAccuracyFactor",
      "outputs": [
        {
          "internalType": "uint256",
          "name": "",
          "type": "uint256"
        }
      ],
      "stateMutability": "view",
      "type": "function"
    },
    {
      "inputs": [],
      "name": "minDistribution",
      "outputs": [
        {
          "internalType": "uint256",
          "name": "",
          "type": "uint256"
        }
      ],
      "stateMutability": "view",
      "type": "function"
    },
    {
      "inputs": [],
      "name": "minPeriod",
      "outputs": [
        {
          "internalType": "uint256",
          "name": "",
          "type": "uint256"
        }
      ],
      "stateMutability": "view",
      "type": "function"
    },
    {
      "inputs": [
        {
          "internalType": "address",
          "name": "",
          "type": "address"
        }
      ],
      "name": "shares",
      "outputs": [
        {
          "internalType": "uint256",
          "name": "amount",
          "type": "uint256"
        },
        {
          "internalType": "uint256",
          "name": "totalExcluded",
          "type": "uint256"
        },
        {
          "internalType": "uint256",
          "name": "totalRealised",
          "type": "uint256"
        }
      ],
      "stateMutability": "view",
      "type": "function"
    },
    {
      "inputs": [],
      "name": "totalDistributed",
      "outputs": [
        {
          "internalType": "uint256",
          "name": "",
          "type": "uint256"
        }
      ],
      "stateMutability": "view",
      "type": "function"
    },
    {
      "inputs": [],
      "name": "totalDividends",
      "outputs": [
        {
          "internalType": "uint256",
          "name": "",
          "type": "uint256"
        }
      ],
      "stateMutability": "view",
      "type": "function"
    },
    {
      "inputs": [],
      "name": "totalShares",
      "outputs": [
        {
          "internalType": "uint256",
          "name": "",
          "type": "uint256"
        }
      ],
      "stateMutability": "view",
      "type": "function"
    },
    {
      "inputs": [
        {
          "internalType": "uint256",
          "name": "_minPeriod",
          "type": "uint256"
        },
        {
          "internalType": "uint256",
          "name": "_minDistribution",
          "type": "uint256"
        }
      ],
      "name": "setDistributionCriteria",
      "outputs": [],
      "stateMutability": "nonpayable",
      "type": "function"
    },
    {
      "inputs": [
        {
          "internalType": "address",
          "name": "shareholder",
          "type": "address"
        },
        {
          "internalType": "uint256",
          "name": "amount",
          "type": "uint256"
        }
      ],
      "name": "setShare",
      "outputs": [],
      "stateMutability": "nonpayable",
      "type": "function"
    },
    {
      "inputs": [],
      "name": "deposit",
      "outputs": [],
      "stateMutability": "payable",
      "type": "function"
    },
    {
      "inputs": [
        {
          "internalType": "uint256",
          "name": "gas",
          "type": "uint256"
        }
      ],
      "name": "process",
      "outputs": [],
      "stateMutability": "nonpayable",
      "type": "function"
    },
    {
      "inputs": [],
      "name": "claimDividend",
      "outputs": [],
      "stateMutability": "nonpayable",
      "type": "function"
    },
    {
      "inputs": [
        {
          "internalType": "address",
          "name": "shareholder",
          "type": "address"
        }
      ],
      "name": "getUnpaidEarnings",
      "outputs": [
        {
          "internalType": "uint256",
          "name": "",
          "type": "uint256"
        }
      ],
      "stateMutability": "view",
      "type": "function"
    }
  ],
  "bytecode": "0x6080604052600180546001600160a01b031990811673e9e7cea3dedca5984780bafc599bd69add087d561790915560028054821673da6802bbec06ab447a68294a63de47ed4506acaa1790556003805490911673bb4cdb9cbd36b01bd1cbaebf2de08d9173bc095c1790556ec097ce7bc90715b34b9f1000000000600d55610e10600e55670de0b6b3a7640000600f5534801561009b57600080fd5b50604051610f31380380610f318339810160408190526100ba91610114565b6001600160a01b0381166100e2577310ed43c718714eb63d5aa57b78b54704e256024e6100e4565b805b600480546001600160a01b03929092166001600160a01b0319928316179055600080549091163317905550610142565b600060208284031215610125578081fd5b81516001600160a01b038116811461013b578182fd5b9392505050565b610de0806101516000396000f3fe6080604052600436106100dd5760003560e01c8063ce7c2ac21161007f578063efca2eed11610059578063efca2eed146101fa578063f0fc6bca1461020f578063ffb2c47914610224578063ffd49c8414610244576100dd565b8063ce7c2ac2146101ae578063d0e30db0146101dd578063e2d2e219146101e5576100dd565b80632d48e896116100bb5780632d48e8961461014f5780633a98ef391461016f5780634fab0ae814610184578063997664d714610199576100dd565b806311ce023d146100e257806314b6ca961461010d57806328fd31981461012f575b600080fd5b3480156100ee57600080fd5b506100f7610259565b6040516101049190610cec565b60405180910390f35b34801561011957600080fd5b5061012d610128366004610bbc565b61025f565b005b34801561013b57600080fd5b506100f761014a366004610ba2565b610384565b34801561015b57600080fd5b5061012d61016a366004610c35565b610410565b34801561017b57600080fd5b506100f7610432565b34801561019057600080fd5b506100f7610438565b3480156101a557600080fd5b506100f761043e565b3480156101ba57600080fd5b506101ce6101c9366004610ba2565b610444565b60405161010493929190610cf5565b61012d610465565b3480156101f157600080fd5b506100f76106d7565b34801561020657600080fd5b506100f76106dd565b34801561021b57600080fd5b5061012d6106e3565b34801561023057600080fd5b5061012d61023f366004610c05565b6106ee565b34801561025057600080fd5b506100f761080d565b600d5481565b6000546001600160a01b0316331461027657600080fd5b6001600160a01b0382166000908152600860205260409020541561029d5761029d82610813565b6000811180156102c357506001600160a01b038216600090815260086020526040902054155b156102d6576102d18261093e565b610309565b801580156102fb57506001600160a01b03821660009081526008602052604090205415155b15610309576103098261099f565b6001600160a01b03821660009081526008602052604090205460095461033a91839161033491610aec565b90610aff565b6009556001600160a01b038216600090815260086020526040902081905561036181610b0b565b6001600160a01b0390921660009081526008602052604090206001019190915550565b6001600160a01b0381166000908152600860205260408120546103a95750600061040b565b6001600160a01b0382166000908152600860205260408120546103cb90610b0b565b6001600160a01b0384166000908152600860205260409020600101549091508082116103fc5760009250505061040b565b6104068282610aec565b925050505b919050565b6000546001600160a01b0316331461042757600080fd5b600e91909155600f55565b60095481565b600f5481565b600a5481565b60086020526000908152604090208054600182015460029092015490919083565b6000546001600160a01b0316331461047c57600080fd5b6001546040516370a0823160e01b81526000916001600160a01b0316906370a08231906104ad903090600401610c56565b60206040518083038186803b1580156104c557600080fd5b505afa1580156104d9573d6000803e3d6000fd5b505050506040513d601f19601f820116820180604052508101906104fd9190610c1d565b6040805160028082526060820183529293506000929091602083019080368337505060035482519293506001600160a01b03169183915060009061055157634e487b7160e01b600052603260045260246000fd5b6001600160a01b039283166020918202929092010152600180548351921691839190811061058f57634e487b7160e01b600052603260045260246000fd5b6001600160a01b0392831660209182029290920101526004805460405163b6f9de9560e01b815292169163b6f9de959134916105d49160009187913091429101610c83565b6000604051808303818588803b1580156105ed57600080fd5b505af1158015610601573d6000803e3d6000fd5b50506001546040516370a0823160e01b81526000945061069593508692506001600160a01b03909116906370a082319061063f903090600401610c56565b60206040518083038186803b15801561065757600080fd5b505afa15801561066b573d6000803e3d6000fd5b505050506040513d601f19601f8201168201806040525081019061068f9190610c1d565b90610aec565b600a549091506106a59082610aff565b600a55600954600d546106cf916106c6916106c09085610b2e565b90610b3a565b600c5490610aff565b600c55505050565b600c5481565b600b5481565b6106ec33610813565b565b6000546001600160a01b0316331461070557600080fd5b60055480610713575061080a565b6000805a905060005b848310801561072a57508381105b1561080557836010541061073e5760006010555b61077e60056010548154811061076457634e487b7160e01b600052603260045260246000fd5b6000918252602090912001546001600160a01b0316610b46565b156107c3576107c36005601054815481106107a957634e487b7160e01b600052603260045260246000fd5b6000918252602090912001546001600160a01b0316610813565b6107d86107d15a8490610aec565b8490610aff565b92505a6010805491935060006107ed83610d79565b919050555080806107fd90610d79565b91505061071c565b505050505b50565b600e5481565b6001600160a01b0381166000908152600860205260409020546108355761080a565b600061084082610384565b9050801561093a57600b546108559082610aff565b600b5560015460405163a9059cbb60e01b81526001600160a01b039091169063a9059cbb9061088a9085908590600401610c6a565b602060405180830381600087803b1580156108a457600080fd5b505af11580156108b8573d6000803e3d6000fd5b505050506040513d601f19601f820116820180604052508101906108dc9190610be5565b506001600160a01b038216600090815260076020908152604080832042905560089091529020600201546109109082610aff565b6001600160a01b038316600090815260086020526040902060028101919091555461036190610b0b565b5050565b600580546001600160a01b039092166000818152600660205260408120849055600184018355919091527f036b6384b5eca791c62761152d0c79bb0604c104a5fb6f4eb0703f3154bb3db090910180546001600160a01b0319169091179055565b600580546109af90600190610d62565b815481106109cd57634e487b7160e01b600052603260045260246000fd5b60009182526020808320909101546001600160a01b0384811684526006909252604090922054600580549290931692918110610a1957634e487b7160e01b600052603260045260246000fd5b600091825260208083209190910180546001600160a01b0319166001600160a01b03948516179055918316815260069182905260408120546005805491939291610a6590600190610d62565b81548110610a8357634e487b7160e01b600052603260045260246000fd5b60009182526020808320909101546001600160a01b031683528201929092526040019020556005805480610ac757634e487b7160e01b600052603160045260246000fd5b600082815260209020810160001990810180546001600160a01b031916905501905550565b6000610af88284610d62565b9392505050565b6000610af88284610d0b565b6000610b28600d546106c0600c5485610b2e90919063ffffffff16565b92915050565b6000610af88284610d43565b6000610af88284610d23565b600e546001600160a01b03821660009081526007602052604081205490914291610b709190610d0b565b108015610b285750600f54610b8483610384565b1192915050565b80356001600160a01b038116811461040b57600080fd5b600060208284031215610bb3578081fd5b610af882610b8b565b60008060408385031215610bce578081fd5b610bd783610b8b565b946020939093013593505050565b600060208284031215610bf6578081fd5b81518015158114610af8578182fd5b600060208284031215610c16578081fd5b5035919050565b600060208284031215610c2e578081fd5b5051919050565b60008060408385031215610c47578182fd5b50508035926020909101359150565b6001600160a01b0391909116815260200190565b6001600160a01b03929092168252602082015260400190565b600060808201868352602060808185015281875180845260a0860191508289019350845b81811015610ccc5784516001600160a01b031683529383019391830191600101610ca7565b50506001600160a01b039690961660408501525050506060015292915050565b90815260200190565b9283526020830191909152604082015260600190565b60008219821115610d1e57610d1e610d94565b500190565b600082610d3e57634e487b7160e01b81526012600452602481fd5b500490565b6000816000190483118215151615610d5d57610d5d610d94565b500290565b600082821015610d7457610d74610d94565b500390565b6000600019821415610d8d57610d8d610d94565b5060010190565b634e487b7160e01b600052601160045260246000fdfea26469706673582212201a9f8197f52975ab49ee6ae4e7b67cb522b26cc4370a81c185bdc5d4f1af2cdc64736f6c63430008000033",
  "immutableReferences": {},
  "source": "// SPDX-License-Identifier: MIT\npragma solidity ^0.8.0;\n\nimport \"./libs/IDividendDistributor.sol\";\nimport \"./libs/SafeMath.sol\";\nimport \"./libs/IBEP20.sol\";\nimport \"./libs/IDEX.sol\";\n\ncontract DividendDistributor is IDividendDistributor {\n    using SafeMath for uint256;\n\n    address _token;\n\n    struct Share {\n        uint256 amount;\n        uint256 totalExcluded;\n        uint256 totalRealised;\n    }\n\n    IBEP20 BUSD = IBEP20(0xe9e7CEA3DedcA5984780Bafc599bD69ADd087D56);\n    IBEP20 CRYPT = IBEP20(0xDa6802BbEC06Ab447A68294A63DE47eD4506ACAA);\n\n    address WBNB = 0xbb4CdB9CBd36B01bD1cBaEBF2De08d9173bc095c;\n    IDEXRouter router;\n\n    address[] shareholders;\n    mapping(address => uint256) shareholderIndexes;\n    mapping(address => uint256) shareholderClaims;\n\n    mapping(address => Share) public shares;\n\n    uint256 public totalShares;\n    uint256 public totalDividends;\n    uint256 public totalDistributed;\n    uint256 public dividendsPerShare;\n    uint256 public dividendsPerShareAccuracyFactor = 10**36;\n\n    uint256 public minPeriod = 1 hours;\n    uint256 public minDistribution = 1 * (10**18);\n\n    uint256 currentIndex;\n\n    bool initialized;\n    modifier initialization() {\n        require(!initialized);\n        _;\n        initialized = true;\n    }\n\n    modifier onlyToken() {\n        require(msg.sender == _token);\n        _;\n    }\n\n    constructor(address _router) {\n        router = _router != address(0)\n            ? IDEXRouter(_router)\n            : IDEXRouter(0x10ED43C718714eb63d5aA57B78B54704E256024E);\n        _token = msg.sender;\n    }\n\n    function setDistributionCriteria(\n        uint256 _minPeriod,\n        uint256 _minDistribution\n    ) external override onlyToken {\n        minPeriod = _minPeriod;\n        minDistribution = _minDistribution;\n    }\n\n    function setShare(address shareholder, uint256 amount)\n        external\n        override\n        onlyToken\n    {\n        if (shares[shareholder].amount > 0) {\n            distributeDividend(shareholder);\n        }\n\n        if (amount > 0 && shares[shareholder].amount == 0) {\n            addShareholder(shareholder);\n        } else if (amount == 0 && shares[shareholder].amount > 0) {\n            removeShareholder(shareholder);\n        }\n\n        totalShares = totalShares.sub(shares[shareholder].amount).add(amount);\n        shares[shareholder].amount = amount;\n        shares[shareholder].totalExcluded = getCumulativeDividends(\n            shares[shareholder].amount\n        );\n    }\n\n    function deposit() external payable override onlyToken {\n        uint256 balanceBefore = BUSD.balanceOf(address(this));\n\n        address[] memory path = new address[](2);\n        path[0] = WBNB;\n        path[1] = address(BUSD);\n\n        router.swapExactETHForTokensSupportingFeeOnTransferTokens{\n            value: msg.value\n        }(0, path, address(this), block.timestamp);\n\n        uint256 amount = BUSD.balanceOf(address(this)).sub(balanceBefore);\n\n        totalDividends = totalDividends.add(amount);\n        dividendsPerShare = dividendsPerShare.add(\n            dividendsPerShareAccuracyFactor.mul(amount).div(totalShares)\n        );\n    }\n\n    function process(uint256 gas) external override onlyToken {\n        uint256 shareholderCount = shareholders.length;\n\n        if (shareholderCount == 0) {\n            return;\n        }\n\n        uint256 gasUsed = 0;\n        uint256 gasLeft = gasleft();\n\n        uint256 iterations = 0;\n\n        while (gasUsed < gas && iterations < shareholderCount) {\n            if (currentIndex >= shareholderCount) {\n                currentIndex = 0;\n            }\n\n            if (shouldDistribute(shareholders[currentIndex])) {\n                distributeDividend(shareholders[currentIndex]);\n            }\n\n            gasUsed = gasUsed.add(gasLeft.sub(gasleft()));\n            gasLeft = gasleft();\n            currentIndex++;\n            iterations++;\n        }\n    }\n\n    function shouldDistribute(address shareholder)\n        internal\n        view\n        returns (bool)\n    {\n        return\n            shareholderClaims[shareholder] + minPeriod < block.timestamp &&\n            getUnpaidEarnings(shareholder) > minDistribution;\n    }\n\n    function distributeDividend(address shareholder) internal {\n        if (shares[shareholder].amount == 0) {\n            return;\n        }\n\n        uint256 amount = getUnpaidEarnings(shareholder);\n        if (amount > 0) {\n            totalDistributed = totalDistributed.add(amount);\n            BUSD.transfer(shareholder, amount);\n            shareholderClaims[shareholder] = block.timestamp;\n            shares[shareholder].totalRealised = shares[shareholder]\n                .totalRealised\n                .add(amount);\n            shares[shareholder].totalExcluded = getCumulativeDividends(\n                shares[shareholder].amount\n            );\n        }\n    }\n\n    function claimDividend() external {\n        distributeDividend(msg.sender);\n    }\n\n    function getUnpaidEarnings(address shareholder)\n        public\n        view\n        returns (uint256)\n    {\n        if (shares[shareholder].amount == 0) {\n            return 0;\n        }\n\n        uint256 shareholderTotalDividends = getCumulativeDividends(\n            shares[shareholder].amount\n        );\n        uint256 shareholderTotalExcluded = shares[shareholder].totalExcluded;\n\n        if (shareholderTotalDividends <= shareholderTotalExcluded) {\n            return 0;\n        }\n\n        return shareholderTotalDividends.sub(shareholderTotalExcluded);\n    }\n\n    function getCumulativeDividends(uint256 share)\n        internal\n        view\n        returns (uint256)\n    {\n        return\n            share.mul(dividendsPerShare).div(dividendsPerShareAccuracyFactor);\n    }\n\n    function addShareholder(address shareholder) internal {\n        shareholderIndexes[shareholder] = shareholders.length;\n        shareholders.push(shareholder);\n    }\n\n    function removeShareholder(address shareholder) internal {\n        shareholders[shareholderIndexes[shareholder]] = shareholders[\n            shareholders.length - 1\n        ];\n        shareholderIndexes[\n            shareholders[shareholders.length - 1]\n        ] = shareholderIndexes[shareholder];\n        shareholders.pop();\n    }\n}\n",
  "sourcePath": "/Users/vladimir.djukic/Documents/reflecto-token/contracts/DividendDistributor.sol",
  "compiler": {
    "name": "solc",
    "version": "0.8.0+commit.c7dfd78e.Emscripten.clang"
  },
  "schemaVersion": "3.4.1",
  "updatedAt": "2021-10-23T13:30:12.183Z",
  "devdoc": {
    "kind": "dev",
    "methods": {},
    "version": 1
  },
  "userdoc": {
    "kind": "user",
    "methods": {},
    "version": 1
  }
}