{
  "contractName": "Reflecto",
  "abi": [
    {
      "inputs": [
        {
          "internalType": "address",
          "name": "_dexRouter",
          "type": "address"
        }
      ],
      "stateMutability": "nonpayable",
      "type": "constructor"
    },
    {
      "anonymous": false,
      "inputs": [
        {
          "indexed": true,
          "internalType": "address",
          "name": "owner",
          "type": "address"
        },
        {
          "indexed": true,
          "internalType": "address",
          "name": "spender",
          "type": "address"
        },
        {
          "indexed": false,
          "internalType": "uint256",
          "name": "value",
          "type": "uint256"
        }
      ],
      "name": "Approval",
      "type": "event"
    },
    {
      "anonymous": false,
      "inputs": [
        {
          "indexed": false,
          "internalType": "uint256",
          "name": "amountBNB",
          "type": "uint256"
        },
        {
          "indexed": false,
          "internalType": "uint256",
          "name": "amountBOG",
          "type": "uint256"
        }
      ],
      "name": "AutoLiquify",
      "type": "event"
    },
    {
      "anonymous": false,
      "inputs": [
        {
          "indexed": false,
          "internalType": "uint256",
          "name": "duration",
          "type": "uint256"
        }
      ],
      "name": "BuybackMultiplierActive",
      "type": "event"
    },
    {
      "anonymous": false,
      "inputs": [
        {
          "indexed": false,
          "internalType": "address",
          "name": "owner",
          "type": "address"
        }
      ],
      "name": "OwnershipTransferred",
      "type": "event"
    },
    {
      "anonymous": false,
      "inputs": [
        {
          "indexed": true,
          "internalType": "address",
          "name": "from",
          "type": "address"
        },
        {
          "indexed": true,
          "internalType": "address",
          "name": "to",
          "type": "address"
        },
        {
          "indexed": false,
          "internalType": "uint256",
          "name": "value",
          "type": "uint256"
        }
      ],
      "name": "Transfer",
      "type": "event"
    },
    {
      "inputs": [],
      "name": "DOMAIN_SEPARATOR",
      "outputs": [
        {
          "internalType": "bytes32",
          "name": "",
          "type": "bytes32"
        }
      ],
      "stateMutability": "view",
      "type": "function",
      "constant": true
    },
    {
      "inputs": [],
      "name": "MASK",
      "outputs": [
        {
          "internalType": "uint256",
          "name": "",
          "type": "uint256"
        }
      ],
      "stateMutability": "view",
      "type": "function",
      "constant": true
    },
    {
      "inputs": [],
      "name": "PERMIT_TYPEHASH",
      "outputs": [
        {
          "internalType": "bytes32",
          "name": "",
          "type": "bytes32"
        }
      ],
      "stateMutability": "view",
      "type": "function",
      "constant": true
    },
    {
      "inputs": [],
      "name": "WBNB",
      "outputs": [
        {
          "internalType": "address",
          "name": "",
          "type": "address"
        }
      ],
      "stateMutability": "view",
      "type": "function",
      "constant": true
    },
    {
      "inputs": [],
      "name": "_maxTxAmount",
      "outputs": [
        {
          "internalType": "uint256",
          "name": "",
          "type": "uint256"
        }
      ],
      "stateMutability": "view",
      "type": "function",
      "constant": true
    },
    {
      "inputs": [
        {
          "internalType": "address",
          "name": "adr",
          "type": "address"
        }
      ],
      "name": "authorize",
      "outputs": [],
      "stateMutability": "nonpayable",
      "type": "function"
    },
    {
      "inputs": [],
      "name": "autoBuybackEnabled",
      "outputs": [
        {
          "internalType": "bool",
          "name": "",
          "type": "bool"
        }
      ],
      "stateMutability": "view",
      "type": "function",
      "constant": true
    },
    {
      "inputs": [],
      "name": "autoLiquidityReceiver",
      "outputs": [
        {
          "internalType": "address",
          "name": "",
          "type": "address"
        }
      ],
      "stateMutability": "view",
      "type": "function",
      "constant": true
    },
    {
      "inputs": [],
      "name": "distributorAddress",
      "outputs": [
        {
          "internalType": "address",
          "name": "",
          "type": "address"
        }
      ],
      "stateMutability": "view",
      "type": "function",
      "constant": true
    },
    {
      "inputs": [
        {
          "internalType": "address",
          "name": "adr",
          "type": "address"
        }
      ],
      "name": "isAuthorized",
      "outputs": [
        {
          "internalType": "bool",
          "name": "",
          "type": "bool"
        }
      ],
      "stateMutability": "view",
      "type": "function",
      "constant": true
    },
    {
      "inputs": [
        {
          "internalType": "address",
          "name": "account",
          "type": "address"
        }
      ],
      "name": "isOwner",
      "outputs": [
        {
          "internalType": "bool",
          "name": "",
          "type": "bool"
        }
      ],
      "stateMutability": "view",
      "type": "function",
      "constant": true
    },
    {
      "inputs": [],
      "name": "launchedAt",
      "outputs": [
        {
          "internalType": "uint256",
          "name": "",
          "type": "uint256"
        }
      ],
      "stateMutability": "view",
      "type": "function",
      "constant": true
    },
    {
      "inputs": [],
      "name": "launchedAtTimestamp",
      "outputs": [
        {
          "internalType": "uint256",
          "name": "",
          "type": "uint256"
        }
      ],
      "stateMutability": "view",
      "type": "function",
      "constant": true
    },
    {
      "inputs": [],
      "name": "marketingFeeReceiver",
      "outputs": [
        {
          "internalType": "address",
          "name": "",
          "type": "address"
        }
      ],
      "stateMutability": "view",
      "type": "function",
      "constant": true
    },
    {
      "inputs": [
        {
          "internalType": "address",
          "name": "",
          "type": "address"
        }
      ],
      "name": "nonces",
      "outputs": [
        {
          "internalType": "uint256",
          "name": "",
          "type": "uint256"
        }
      ],
      "stateMutability": "view",
      "type": "function",
      "constant": true
    },
    {
      "inputs": [],
      "name": "pair",
      "outputs": [
        {
          "internalType": "address",
          "name": "",
          "type": "address"
        }
      ],
      "stateMutability": "view",
      "type": "function",
      "constant": true
    },
    {
      "inputs": [],
      "name": "router",
      "outputs": [
        {
          "internalType": "contract IDEXRouter",
          "name": "",
          "type": "address"
        }
      ],
      "stateMutability": "view",
      "type": "function",
      "constant": true
    },
    {
      "inputs": [],
      "name": "swapEnabled",
      "outputs": [
        {
          "internalType": "bool",
          "name": "",
          "type": "bool"
        }
      ],
      "stateMutability": "view",
      "type": "function",
      "constant": true
    },
    {
      "inputs": [],
      "name": "swapThreshold",
      "outputs": [
        {
          "internalType": "uint256",
          "name": "",
          "type": "uint256"
        }
      ],
      "stateMutability": "view",
      "type": "function",
      "constant": true
    },
    {
      "inputs": [
        {
          "internalType": "address payable",
          "name": "adr",
          "type": "address"
        }
      ],
      "name": "transferOwnership",
      "outputs": [],
      "stateMutability": "nonpayable",
      "type": "function"
    },
    {
      "inputs": [
        {
          "internalType": "address",
          "name": "adr",
          "type": "address"
        }
      ],
      "name": "unauthorize",
      "outputs": [],
      "stateMutability": "nonpayable",
      "type": "function"
    },
    {
      "stateMutability": "payable",
      "type": "receive",
      "payable": true
    },
    {
      "inputs": [],
      "name": "version",
      "outputs": [
        {
          "internalType": "string",
          "name": "",
          "type": "string"
        }
      ],
      "stateMutability": "pure",
      "type": "function",
      "constant": true
    },
    {
      "inputs": [],
      "name": "getChainID",
      "outputs": [
        {
          "internalType": "uint256",
          "name": "",
          "type": "uint256"
        }
      ],
      "stateMutability": "view",
      "type": "function",
      "constant": true
    },
    {
      "inputs": [],
      "name": "totalSupply",
      "outputs": [
        {
          "internalType": "uint256",
          "name": "",
          "type": "uint256"
        }
      ],
      "stateMutability": "view",
      "type": "function",
      "constant": true
    },
    {
      "inputs": [],
      "name": "decimals",
      "outputs": [
        {
          "internalType": "uint8",
          "name": "",
          "type": "uint8"
        }
      ],
      "stateMutability": "pure",
      "type": "function",
      "constant": true
    },
    {
      "inputs": [],
      "name": "symbol",
      "outputs": [
        {
          "internalType": "string",
          "name": "",
          "type": "string"
        }
      ],
      "stateMutability": "pure",
      "type": "function",
      "constant": true
    },
    {
      "inputs": [],
      "name": "name",
      "outputs": [
        {
          "internalType": "string",
          "name": "",
          "type": "string"
        }
      ],
      "stateMutability": "pure",
      "type": "function",
      "constant": true
    },
    {
      "inputs": [],
      "name": "getOwner",
      "outputs": [
        {
          "internalType": "address",
          "name": "",
          "type": "address"
        }
      ],
      "stateMutability": "view",
      "type": "function",
      "constant": true
    },
    {
      "inputs": [
        {
          "internalType": "address",
          "name": "account",
          "type": "address"
        }
      ],
      "name": "balanceOf",
      "outputs": [
        {
          "internalType": "uint256",
          "name": "",
          "type": "uint256"
        }
      ],
      "stateMutability": "view",
      "type": "function",
      "constant": true
    },
    {
      "inputs": [
        {
          "internalType": "address",
          "name": "holder",
          "type": "address"
        },
        {
          "internalType": "address",
          "name": "spender",
          "type": "address"
        }
      ],
      "name": "allowance",
      "outputs": [
        {
          "internalType": "uint256",
          "name": "",
          "type": "uint256"
        }
      ],
      "stateMutability": "view",
      "type": "function",
      "constant": true
    },
    {
      "inputs": [
        {
          "internalType": "address",
          "name": "spender",
          "type": "address"
        },
        {
          "internalType": "uint256",
          "name": "amount",
          "type": "uint256"
        }
      ],
      "name": "approve",
      "outputs": [
        {
          "internalType": "bool",
          "name": "",
          "type": "bool"
        }
      ],
      "stateMutability": "nonpayable",
      "type": "function"
    },
    {
      "inputs": [
        {
          "internalType": "address",
          "name": "spender",
          "type": "address"
        }
      ],
      "name": "approveMax",
      "outputs": [
        {
          "internalType": "bool",
          "name": "",
          "type": "bool"
        }
      ],
      "stateMutability": "nonpayable",
      "type": "function"
    },
    {
      "inputs": [
        {
          "internalType": "address",
          "name": "recipient",
          "type": "address"
        },
        {
          "internalType": "uint256",
          "name": "amount",
          "type": "uint256"
        }
      ],
      "name": "transfer",
      "outputs": [
        {
          "internalType": "bool",
          "name": "",
          "type": "bool"
        }
      ],
      "stateMutability": "nonpayable",
      "type": "function"
    },
    {
      "inputs": [
        {
          "internalType": "address",
          "name": "sender",
          "type": "address"
        },
        {
          "internalType": "address",
          "name": "recipient",
          "type": "address"
        },
        {
          "internalType": "uint256",
          "name": "amount",
          "type": "uint256"
        }
      ],
      "name": "transferFrom",
      "outputs": [
        {
          "internalType": "bool",
          "name": "",
          "type": "bool"
        }
      ],
      "stateMutability": "nonpayable",
      "type": "function"
    },
    {
      "inputs": [
        {
          "internalType": "bool",
          "name": "selling",
          "type": "bool"
        }
      ],
      "name": "getTotalFee",
      "outputs": [
        {
          "internalType": "uint256",
          "name": "",
          "type": "uint256"
        }
      ],
      "stateMutability": "view",
      "type": "function",
      "constant": true
    },
    {
      "inputs": [],
      "name": "getMultipliedFee",
      "outputs": [
        {
          "internalType": "uint256",
          "name": "",
          "type": "uint256"
        }
      ],
      "stateMutability": "view",
      "type": "function",
      "constant": true
    },
    {
      "inputs": [
        {
          "internalType": "uint256",
          "name": "amount",
          "type": "uint256"
        },
        {
          "internalType": "bool",
          "name": "triggerBuybackMultiplier",
          "type": "bool"
        }
      ],
      "name": "triggerZeusBuyback",
      "outputs": [],
      "stateMutability": "nonpayable",
      "type": "function"
    },
    {
      "inputs": [],
      "name": "clearBuybackMultiplier",
      "outputs": [],
      "stateMutability": "nonpayable",
      "type": "function"
    },
    {
      "inputs": [
        {
          "internalType": "bool",
          "name": "_enabled",
          "type": "bool"
        },
        {
          "internalType": "uint256",
          "name": "_cap",
          "type": "uint256"
        },
        {
          "internalType": "uint256",
          "name": "_amount",
          "type": "uint256"
        },
        {
          "internalType": "uint256",
          "name": "_period",
          "type": "uint256"
        }
      ],
      "name": "setAutoBuybackSettings",
      "outputs": [],
      "stateMutability": "nonpayable",
      "type": "function"
    },
    {
      "inputs": [
        {
          "internalType": "uint256",
          "name": "numerator",
          "type": "uint256"
        },
        {
          "internalType": "uint256",
          "name": "denominator",
          "type": "uint256"
        },
        {
          "internalType": "uint256",
          "name": "length",
          "type": "uint256"
        }
      ],
      "name": "setBuybackMultiplierSettings",
      "outputs": [],
      "stateMutability": "nonpayable",
      "type": "function"
    },
    {
      "inputs": [],
      "name": "launch",
      "outputs": [],
      "stateMutability": "nonpayable",
      "type": "function"
    },
    {
      "inputs": [
        {
          "internalType": "uint256",
          "name": "amount",
          "type": "uint256"
        }
      ],
      "name": "setTxLimit",
      "outputs": [],
      "stateMutability": "nonpayable",
      "type": "function"
    },
    {
      "inputs": [
        {
          "internalType": "address",
          "name": "holder",
          "type": "address"
        },
        {
          "internalType": "bool",
          "name": "exempt",
          "type": "bool"
        }
      ],
      "name": "setIsDividendExempt",
      "outputs": [],
      "stateMutability": "nonpayable",
      "type": "function"
    },
    {
      "inputs": [
        {
          "internalType": "address",
          "name": "holder",
          "type": "address"
        },
        {
          "internalType": "bool",
          "name": "exempt",
          "type": "bool"
        }
      ],
      "name": "setIsFeeExempt",
      "outputs": [],
      "stateMutability": "nonpayable",
      "type": "function"
    },
    {
      "inputs": [
        {
          "internalType": "address",
          "name": "holder",
          "type": "address"
        },
        {
          "internalType": "bool",
          "name": "exempt",
          "type": "bool"
        }
      ],
      "name": "setIsTxLimitExempt",
      "outputs": [],
      "stateMutability": "nonpayable",
      "type": "function"
    },
    {
      "inputs": [
        {
          "internalType": "uint256",
          "name": "_liquidityFee",
          "type": "uint256"
        },
        {
          "internalType": "uint256",
          "name": "_buybackFee",
          "type": "uint256"
        },
        {
          "internalType": "uint256",
          "name": "_reflectionFee",
          "type": "uint256"
        },
        {
          "internalType": "uint256",
          "name": "_marketingFee",
          "type": "uint256"
        },
        {
          "internalType": "uint256",
          "name": "_feeDenominator",
          "type": "uint256"
        }
      ],
      "name": "setFees",
      "outputs": [],
      "stateMutability": "nonpayable",
      "type": "function"
    },
    {
      "inputs": [
        {
          "internalType": "address",
          "name": "_autoLiquidityReceiver",
          "type": "address"
        },
        {
          "internalType": "address",
          "name": "_marketingFeeReceiver",
          "type": "address"
        }
      ],
      "name": "setFeeReceivers",
      "outputs": [],
      "stateMutability": "nonpayable",
      "type": "function"
    },
    {
      "inputs": [
        {
          "internalType": "bool",
          "name": "_enabled",
          "type": "bool"
        },
        {
          "internalType": "uint256",
          "name": "_amount",
          "type": "uint256"
        }
      ],
      "name": "setSwapBackSettings",
      "outputs": [],
      "stateMutability": "nonpayable",
      "type": "function"
    },
    {
      "inputs": [
        {
          "internalType": "uint256",
          "name": "_target",
          "type": "uint256"
        },
        {
          "internalType": "uint256",
          "name": "_denominator",
          "type": "uint256"
        }
      ],
      "name": "setTargetLiquidity",
      "outputs": [],
      "stateMutability": "nonpayable",
      "type": "function"
    },
    {
      "inputs": [
        {
          "internalType": "uint256",
          "name": "_minPeriod",
          "type": "uint256"
        },
        {
          "internalType": "uint256",
          "name": "_minDistribution",
          "type": "uint256"
        }
      ],
      "name": "setDistributionCriteria",
      "outputs": [],
      "stateMutability": "nonpayable",
      "type": "function"
    },
    {
      "inputs": [
        {
          "internalType": "uint256",
          "name": "gas",
          "type": "uint256"
        }
      ],
      "name": "setDistributorSettings",
      "outputs": [],
      "stateMutability": "nonpayable",
      "type": "function"
    },
    {
      "inputs": [],
      "name": "getCirculatingSupply",
      "outputs": [
        {
          "internalType": "uint256",
          "name": "",
          "type": "uint256"
        }
      ],
      "stateMutability": "view",
      "type": "function",
      "constant": true
    },
    {
      "inputs": [
        {
          "internalType": "uint256",
          "name": "accuracy",
          "type": "uint256"
        }
      ],
      "name": "getLiquidityBacking",
      "outputs": [
        {
          "internalType": "uint256",
          "name": "",
          "type": "uint256"
        }
      ],
      "stateMutability": "view",
      "type": "function",
      "constant": true
    },
    {
      "inputs": [
        {
          "internalType": "uint256",
          "name": "target",
          "type": "uint256"
        },
        {
          "internalType": "uint256",
          "name": "accuracy",
          "type": "uint256"
        }
      ],
      "name": "isOverLiquified",
      "outputs": [
        {
          "internalType": "bool",
          "name": "",
          "type": "bool"
        }
      ],
      "stateMutability": "view",
      "type": "function",
      "constant": true
    },
    {
      "inputs": [
        {
          "internalType": "address",
          "name": "holder",
          "type": "address"
        },
        {
          "internalType": "address",
          "name": "spender",
          "type": "address"
        },
        {
          "internalType": "uint256",
          "name": "nonce",
          "type": "uint256"
        },
        {
          "internalType": "uint256",
          "name": "expiry",
          "type": "uint256"
        },
        {
          "internalType": "bool",
          "name": "allowed",
          "type": "bool"
        },
        {
          "internalType": "uint8",
          "name": "v",
          "type": "uint8"
        },
        {
          "internalType": "bytes32",
          "name": "r",
          "type": "bytes32"
        },
        {
          "internalType": "bytes32",
          "name": "s",
          "type": "bytes32"
        }
      ],
      "name": "permit",
      "outputs": [],
      "stateMutability": "nonpayable",
      "type": "function"
    }
  ],
  "bytecode": "0x6080604052600280546001600160a01b031990811673e9e7cea3dedca5984780bafc599bd69add087d561790915560038054821673bb4cdb9cbd36b01bd1cbaebf2de08d9173bc095c17905560048054821661dead9081179091556005805483169055600680549092161790556200007a6009600a62000749565b6200008d9066038d7ea4c6800062000834565b600755620000ae610190600754620005a160201b620016ba1790919060201c565b60085560c8600f81905561012c6010556103e86011556064601281905561064060135561271060145560196017556018819055601d91909155601e556107086020556021805460ff199081169091556207a120602a55602c8054909116600117905560075462000122906107d090620006db565b602d553480156200013257600080fd5b50604051620040e4380380620040e483398101604081905262000155916200064b565b600080546001600160a01b0319908116339081178355825260016020818152604093849020805460ff1916909217909155601980546001600160a01b03868116919094161790819055835163c45a015560e01b8152935192169263c45a01559260048083019392829003018186803b158015620001d157600080fd5b505afa158015620001e6573d6000803e3d6000fd5b505050506040513d601f19601f820116820180604052508101906200020c91906200064b565b6003546040516364e329cb60e11b81526001600160a01b039283169263c9c65396926200024192911690309060040162000688565b602060405180830381600087803b1580156200025c57600080fd5b505af115801562000271573d6000803e3d6000fd5b505050506040513d601f19601f820116820180604052508101906200029791906200064b565b601a80546001600160a01b0319166001600160a01b03928316179055600754306000908152600b6020908152604080832060198054871685529083529281902093909355905482516315ab88c960e31b8152925193169263ad5c4648926004808201939291829003018186803b1580156200031157600080fd5b505afa15801562000326573d6000803e3d6000fd5b505050506040513d601f19601f820116820180604052508101906200034c91906200064b565b600380546001600160a01b0319166001600160a01b039290921691909117905560405181906200037c906200063d565b62000388919062000674565b604051809103906000f080158015620003a5573d6000803e3d6000fd5b50602880546001600160a01b039283166001600160a01b0319918216179182905560298054821692841692909217909155336000818152600c60209081526040808320805460ff199081166001908117909255600d84528285208054821683179055601a5488168552600e8452828520805482168317905530855282852080548216831790556004549097168452818420805488168217905584845260229092529091208054909416179092556015805482168317905560168054909116909117905560075462000478908290620005b6565b50601a5460075462000494916001600160a01b031690620005b6565b506007543360009081526009602090815260409182902092909255805180820190915260128152715245464c4543544f5f544553545f4d45544160701b910152467f8b73c3c69bb8fe3d512ecc4cf759cc79239f7b179b0ffacaa9a75d522b39400f7e8ece8389708d99ba0141c7753e4badbf8c6552b0762082ae33fc8a27dd1ee96200052062000622565b80516020918201206040516200053f94939261053991309101620006a2565b60408051601f19818403018152908290528051602090910120602b5560075433916000917fddf252ad1be2c89b69c2b068fc378daa952ba7f163c4a11628f55a4df523b3ef91620005919190620006d2565b60405180910390a350506200086c565b6000620005af8284620006db565b9392505050565b336000818152600b602090815260408083206001600160a01b038716808552925280832085905551919290917f8c5be1e5ebec7d5bd14f71427d1e84f3dd0314c0f7b2291e5b200ac8c7c3b9259062000611908690620006d2565b60405180910390a350600192915050565b6040805180820190915260018152603160f81b602082015290565b610f3180620031b383390190565b6000602082840312156200065d578081fd5b81516001600160a01b0381168114620005af578182fd5b6001600160a01b0391909116815260200190565b6001600160a01b0392831681529116602082015260400190565b9485526020850193909352604084019190915261ffff1660608301526001600160a01b0316608082015260a00190565b90815260200190565b600082620006f757634e487b7160e01b81526012600452602481fd5b500490565b80825b600180861162000710575062000740565b81870482111562000725576200072562000856565b808616156200073357918102915b9490941c938002620006ff565b94509492505050565b6000620005af60001960ff8516846000826200076857506001620005af565b816200077757506000620005af565b81600181146200079057600281146200079b57620007cf565b6001915050620005af565b60ff841115620007af57620007af62000856565b6001841b915084821115620007c857620007c862000856565b50620005af565b5060208310610133831016604e8410600b841016171562000807575081810a8381111562000801576200080162000856565b620005af565b620008168484846001620006fc565b8086048211156200082b576200082b62000856565b02949350505050565b600081600019048311821515161562000851576200085162000856565b500290565b634e487b7160e01b600052601160045260246000fd5b612937806200087c6000396000f3fe6080604052600436106103545760003560e01c8063893d20e8116101c6578063d51ed1c8116100f7578063f1f3bca311610095578063f708a64f1161006f578063f708a64f146108e4578063f84ba65d14610904578063f887ea4014610924578063fe9fbb80146109395761035b565b8063f1f3bca314610884578063f2fde38b146108a4578063f5cfec0a146108c45761035b565b8063df20fd49116100d1578063df20fd491461081a578063e91f214e1461083a578063e96fada21461084f578063f0b37c04146108645761035b565b8063d51ed1c8146107c5578063d806d12f146107e5578063dd62ed3e146107fa5761035b565b8063a8aa1b3111610164578063b6a5d7de1161013e578063b6a5d7de14610766578063bf56b37114610786578063c6d2577d1461079b578063ca33e64c146107b05761035b565b8063a8aa1b311461071c578063a9059cbb14610731578063b210b06d146107515761035b565b806395d89b41116101a057806395d89b41146103e25780639d1944f5146106c7578063a4b45c00146106e7578063a51af4c5146107075761035b565b8063893d20e8146106705780638dd95002146106925780638fcbaf0c146106a75761035b565b80632f54bf6e116102a0578063571ac8b01161023e5780636ddd1713116102185780636ddd17131461060657806370a082311461061b5780637d1db4a51461063b5780637ecebe00146106505761035b565b8063571ac8b0146105a65780635c85974f146105c6578063658d4b7f146105e65761035b565b80633644e5151161027a5780633644e515146105525780633bb8a8d41461056757806354fd4d501461057c578063564b81ef146105915761035b565b80632f54bf6e146104fb57806330adf81f1461051b578063313ce567146105305761035b565b80631161ae391161030d5780632375ce40116102e75780632375ce401461048657806323b872dd146104a65780632b112e49146104c65780632d48e896146104db5761035b565b80631161ae391461043157806318160ddd14610451578063201e7991146104665761035b565b806301339c21146103605780630445b66714610377578063048c7baf146103a257806304a66b48146103c257806306fdde03146103e2578063095ea7b3146104045761035b565b3661035b57005b600080fd5b34801561036c57600080fd5b50610375610959565b005b34801561038357600080fd5b5061038c6109b1565b604051610399919061259a565b60405180910390f35b3480156103ae57600080fd5b506103756103bd3660046123a4565b6109b7565b3480156103ce57600080fd5b506103756103dd36600461248f565b610a05565b3480156103ee57600080fd5b506103f7610a7b565b604051610399919061262c565b34801561041057600080fd5b5061042461041f366004612344565b610aa8565b604051610399919061258f565b34801561043d57600080fd5b5061042461044c366004612416565b610b12565b34801561045d57600080fd5b5061038c610b26565b34801561047257600080fd5b50610375610481366004612416565b610b2c565b34801561049257600080fd5b506103756104a1366004612437565b610b5c565b3480156104b257600080fd5b506104246104c136600461224b565b610bb1565b3480156104d257600080fd5b5061038c610c75565b3480156104e757600080fd5b506103756104f6366004612416565b610cbe565b34801561050757600080fd5b506104246105163660046121f7565b610d4b565b34801561052757600080fd5b5061038c610d62565b34801561053c57600080fd5b50610545610d86565b604051610399919061283c565b34801561055e57600080fd5b5061038c610d8b565b34801561057357600080fd5b50610424610d91565b34801561058857600080fd5b506103f7610d9a565b34801561059d57600080fd5b5061038c610db5565b3480156105b257600080fd5b506104246105c13660046121f7565b610db9565b3480156105d257600080fd5b506103756105e13660046123dc565b610dcd565b3480156105f257600080fd5b50610375610601366004612310565b610e13565b34801561061257600080fd5b50610424610e63565b34801561062757600080fd5b5061038c6106363660046121f7565b610e6c565b34801561064757600080fd5b5061038c610e87565b34801561065c57600080fd5b5061038c61066b3660046121f7565b610e8d565b34801561067c57600080fd5b50610685610e9f565b6040516103999190612527565b34801561069e57600080fd5b50610685610eae565b3480156106b357600080fd5b506103756106c236600461228b565b610ebd565b3480156106d357600080fd5b506103756106e23660046123dc565b611081565b3480156106f357600080fd5b50610375610702366004612213565b6110ba565b34801561071357600080fd5b5061068561110d565b34801561072857600080fd5b5061068561111c565b34801561073d57600080fd5b5061042461074c366004612344565b61112b565b34801561075d57600080fd5b50610375611138565b34801561077257600080fd5b506103756107813660046121f7565b611164565b34801561079257600080fd5b5061038c6111b0565b3480156107a757600080fd5b5061038c6111b6565b3480156107bc57600080fd5b506106856111bc565b3480156107d157600080fd5b5061038c6107e03660046123dc565b6111cb565b3480156107f157600080fd5b5061038c61120b565b34801561080657600080fd5b5061038c610815366004612213565b6112e2565b34801561082657600080fd5b50610375610835366004612389565b61130d565b34801561084657600080fd5b5061038c611349565b34801561085b57600080fd5b5061068561135d565b34801561087057600080fd5b5061037561087f3660046121f7565b61136c565b34801561089057600080fd5b5061038c61089f36600461236f565b6113b2565b3480156108b057600080fd5b506103756108bf3660046121f7565b6113f4565b3480156108d057600080fd5b506103756108df3660046123f4565b611489565b3480156108f057600080fd5b506103756108ff366004612310565b61150d565b34801561091057600080fd5b5061037561091f366004612310565b61163d565b34801561093057600080fd5b5061068561168d565b34801561094557600080fd5b506104246109543660046121f7565b61169c565b6109623361169c565b6109875760405162461bcd60e51b815260040161097e906127cd565b60405180910390fd5b601b54156109a75760405162461bcd60e51b815260040161097e90612748565b43601b5542601c55565b602d5481565b6109c03361169c565b6109dc5760405162461bcd60e51b815260040161097e906127cd565b6021805460ff191694151594909417909355602391909155600060245560255560265543602755565b610a0e3361169c565b610a2a5760405162461bcd60e51b815260040161097e906127cd565b600f859055601084905560118390556012829055610a5482610a4e858189896116c6565b906116c6565b6013556014819055610a67600482612862565b60135410610a7457600080fd5b5050505050565b6040805180820190915260128152715245464c4543544f5f544553545f4d45544160701b60208201525b90565b336000818152600b602090815260408083206001600160a01b038716808552925280832085905551919290917f8c5be1e5ebec7d5bd14f71427d1e84f3dd0314c0f7b2291e5b200ac8c7c3b92590610b0190869061259a565b60405180910390a350600192915050565b600082610b1e836111cb565b119392505050565b60075490565b610b353361169c565b610b515760405162461bcd60e51b815260040161097e906127cd565b601791909155601855565b610b653361169c565b610b815760405162461bcd60e51b815260040161097e906127cd565b6002610b8d8385612862565b11158015610b9a57508183115b610ba357600080fd5b601d92909255601e55602055565b6007546001600160a01b0384166000908152600b60209081526040808320338452909152812054909114610c60576040805180820182526016815275496e73756666696369656e7420416c6c6f77616e636560501b6020808301919091526001600160a01b0387166000908152600b82528381203382529091529190912054610c3b9184906116d2565b6001600160a01b0385166000908152600b602090815260408083203384529091529020555b610c6b8484846116fe565b90505b9392505050565b600554600090610cb990610c91906001600160a01b0316610e6c565b600454610cb390610caa906001600160a01b0316610e6c565b600754906119ef565b906119ef565b905090565b610cc73361169c565b610ce35760405162461bcd60e51b815260040161097e906127cd565b6028546040516316a4744b60e11b81526001600160a01b0390911690632d48e89690610d15908590859060040161282e565b600060405180830381600087803b158015610d2f57600080fd5b505af1158015610d43573d6000803e3d6000fd5b505050505050565b6000546001600160a01b038281169116145b919050565b7fea2aa0a1be11a07ed86d755c93467f4f82362b452371d1ba94d1715123511acb81565b600990565b602b5481565b60215460ff1681565b6040805180820190915260018152603160f81b602082015290565b4690565b6000610dc782600754610aa8565b92915050565b610dd63361169c565b610df25760405162461bcd60e51b815260040161097e906127cd565b6103e8600754610e029190612862565b811015610e0e57600080fd5b600855565b610e1c3361169c565b610e385760405162461bcd60e51b815260040161097e906127cd565b6001600160a01b03919091166000908152600c60205260409020805460ff1916911515919091179055565b602c5460ff1681565b6001600160a01b031660009081526009602052604090205490565b60085481565b600a6020526000908152604090205481565b6000546001600160a01b031690565b6003546001600160a01b031681565b6000602b547fea2aa0a1be11a07ed86d755c93467f4f82362b452371d1ba94d1715123511acb60001b8a8a8a8a8a604051602001610f00969594939291906125a3565b60405160208183030381529060405280519060200120604051602001610f2792919061250c565b60408051601f19818403018152919052805160209091012090506001600160a01b038916610f675760405162461bcd60e51b815260040161097e906126da565b60018185858560405160008152602001604052604051610f8a94939291906125d9565b6020604051602081039080840390855afa158015610fac573d6000803e3d6000fd5b505050602060405103516001600160a01b0316896001600160a01b031614610fe65760405162461bcd60e51b815260040161097e90612711565b851580610ff35750854211155b61100f5760405162461bcd60e51b815260040161097e90612796565b6001600160a01b0389166000908152600a60205260408120805491611033836128b8565b9190505587146110555760405162461bcd60e51b815260040161097e906126aa565b600085611063576000611067565b6007545b90506110748a8a836119fb565b5050505050505050505050565b61108a3361169c565b6110a65760405162461bcd60e51b815260040161097e906127cd565b620f423f81106110b557600080fd5b602a55565b6110c33361169c565b6110df5760405162461bcd60e51b815260040161097e906127cd565b601580546001600160a01b039384166001600160a01b03199182161790915560168054929093169116179055565b6029546001600160a01b031681565b601a546001600160a01b031681565b6000610c6e3384846116fe565b6111413361169c565b61115d5760405162461bcd60e51b815260040161097e906127cd565b6000601f55565b61116d33610d4b565b6111895760405162461bcd60e51b815260040161097e90612776565b6001600160a01b03166000908152600160208190526040909120805460ff19169091179055565b601b5481565b601c5481565b6015546001600160a01b031681565b6000610dc76111d8610c75565b601a54611205906111fe906002906111f8906001600160a01b0316610e6c565b90611a6b565b8590611a6b565b906116ba565b600042601c546201518061121f919061284a565b111561124957611242601454611205614650601354611a6b90919063ffffffff16565b9050610aa5565b42611261602054601f546116c690919063ffffffff16565b11156112db57600061128442610cb3602054601f546116c690919063ffffffff16565b905060006112ab601354610cb3601e54611205601d54601354611a6b90919063ffffffff16565b90506112d26112c96020546112058585611a6b90919063ffffffff16565b601354906116c6565b92505050610aa5565b5060135490565b6001600160a01b039182166000908152600b6020908152604080832093909416825291909152205490565b6113163361169c565b6113325760405162461bcd60e51b815260040161097e906127cd565b602c805460ff191692151592909217909155602d55565b6fffffffffffffffffffffffffffffffff81565b6016546001600160a01b031681565b61137533610d4b565b6113915760405162461bcd60e51b815260040161097e90612776565b6001600160a01b03166000908152600160205260409020805460ff19169055565b600043601b5460016113c4919061284a565b106113de576014546113d79060016119ef565b9050610d5d565b81156113ec576113d761120b565b505060135490565b6113fd33610d4b565b6114195760405162461bcd60e51b815260040161097e90612776565b600080546001600160a01b0319166001600160a01b0383169081178255815260016020819052604091829020805460ff19169091179055517f04dba622d284ed0014ee4b9a6a68386be1a4c08a4913ae272de89199cc6861639061147e908390612527565b60405180910390a150565b6114923361169c565b6114ae5760405162461bcd60e51b815260040161097e906127cd565b6004546114c59083906001600160a01b0316611a77565b80156115095742601f556020546040517f39d2389ec5c1fa77b2c0d374bc61b6d7bd97ccba280fcdeb4e9c7644898d7c3a916115009161259a565b60405180910390a15b5050565b6115163361169c565b6115325760405162461bcd60e51b815260040161097e906127cd565b6001600160a01b03821630148015906115595750601a546001600160a01b03838116911614155b61156257600080fd5b6001600160a01b0382166000908152600e60205260409020805460ff191682158015919091179091556115f957602854604051630a5b654b60e11b81526001600160a01b03909116906314b6ca96906115c290859060009060040161253b565b600060405180830381600087803b1580156115dc57600080fd5b505af11580156115f0573d6000803e3d6000fd5b50505050611509565b6028546001600160a01b0383811660009081526009602052604090819020549051630a5b654b60e11b815291909216916314b6ca9691610d1591869160040161253b565b6116463361169c565b6116625760405162461bcd60e51b815260040161097e906127cd565b6001600160a01b03919091166000908152600d60205260409020805460ff1916911515919091179055565b6019546001600160a01b031681565b6001600160a01b031660009081526001602052604090205460ff1690565b6000610c6e8284612862565b6000610c6e828461284a565b600081848411156116f65760405162461bcd60e51b815260040161097e919061262c565b505050900390565b602e5460009060ff161561171e57611717848484611b9c565b9050610c6e565b6117288483611c3f565b611730611c84565b1561173d5761173d611cd3565b61174561206d565b15611752576117526120c8565b6040805180820182526014815273496e73756666696369656e742042616c616e636560601b6020808301919091526001600160a01b0387166000908152600990915291909120546117a49184906116d2565b6001600160a01b0385166000908152600960205260408120919091556117c98561210f565b6117d357826117de565b6117de85858561212e565b6001600160a01b03851660009081526009602052604090205490915061180490826116c6565b6001600160a01b038086166000908152600960209081526040808320949094559188168152600e909152205460ff166118a8576028546001600160a01b0386811660009081526009602052604090819020549051630a5b654b60e11b815291909216916314b6ca969161187b91899160040161253b565b600060405180830381600087803b15801561189557600080fd5b505af19250505080156118a6575060015b505b6001600160a01b0384166000908152600e602052604090205460ff16611939576028546001600160a01b0385811660009081526009602052604090819020549051630a5b654b60e11b815291909216916314b6ca969161190c91889160040161253b565b600060405180830381600087803b15801561192657600080fd5b505af1925050508015611937575060015b505b602854602a546040516001624d3b8760e01b031981526001600160a01b039092169163ffb2c4799161196d9160040161259a565b600060405180830381600087803b15801561198757600080fd5b505af1925050508015611998575060015b50836001600160a01b0316856001600160a01b03167fddf252ad1be2c89b69c2b068fc378daa952ba7f163c4a11628f55a4df523b3ef836040516119dc919061259a565b60405180910390a3506001949350505050565b6000610c6e82846128a1565b6001600160a01b038084166000818152600b602090815260408083209487168084529490915280822085905551909291907f8c5be1e5ebec7d5bd14f71427d1e84f3dd0314c0f7b2291e5b200ac8c7c3b92590611a5990869061259a565b60405180910390a35060019392505050565b6000610c6e8284612882565b602e805460ff19166001179055604080516002808252606082018352600092602083019080368337505060035482519293506001600160a01b031691839150600090611ad357634e487b7160e01b600052603260045260246000fd5b60200260200101906001600160a01b031690816001600160a01b0316815250503081600181518110611b1557634e487b7160e01b600052603260045260246000fd5b6001600160a01b03928316602091820292909201015260195460405163b6f9de9560e01b815291169063b6f9de95908590611b5b906000908690889042906004016125f7565b6000604051808303818588803b158015611b7457600080fd5b505af1158015611b88573d6000803e3d6000fd5b5050602e805460ff19169055505050505050565b6040805180820182526014815273496e73756666696369656e742042616c616e636560601b6020808301919091526001600160a01b0386166000908152600990915291822054611bed9184906116d2565b6001600160a01b038086166000908152600960205260408082209390935590851681522054611c1c90836116c6565b6001600160a01b0384166000908152600960205260409020555060019392505050565b60085481111580611c6857506001600160a01b0382166000908152600d602052604090205460ff165b6115095760405162461bcd60e51b815260040161097e9061267f565b601a546000906001600160a01b03163314801590611ca55750602e5460ff16155b8015611cb35750602c5460ff165b8015610cb9575050602d5430600090815260096020526040902054101590565b602e805460ff19166001179055601754601854600091611cf291610b12565b611cfe57600f54611d01565b60005b90506000611d25600261120560135461120586602d54611a6b90919063ffffffff16565b90506000611d3e82602d546119ef90919063ffffffff16565b60408051600280825260608201835292935060009290916020830190803683370190505090503081600081518110611d8657634e487b7160e01b600052603260045260246000fd5b6001600160a01b039283166020918202929092010152600354825191169082906001908110611dc557634e487b7160e01b600052603260045260246000fd5b6001600160a01b03928316602091820292909201015260195460405163791ac94760e01b81524792919091169063791ac94790611e0f9086906000908790309042906004016127f2565b600060405180830381600087803b158015611e2957600080fd5b505af1158015611e3d573d6000803e3d6000fd5b505050506000611e5682476119ef90919063ffffffff16565b90506000611e71611e688860026116ba565b601354906119ef565b90506000611e8660026112058481878d611a6b565b90506000611ea38361120560115487611a6b90919063ffffffff16565b90506000611ec08461120560125488611a6b90919063ffffffff16565b9050602860009054906101000a90046001600160a01b03166001600160a01b031663d0e30db0836040518263ffffffff1660e01b81526004016000604051808303818588803b158015611f1257600080fd5b505af193505050508015611f24575060015b506016546040516001600160a01b039091169082156108fc029083906000818181858888f19350505050158015611f5f573d6000803e3d6000fd5b50881561205757601960009054906101000a90046001600160a01b03166001600160a01b031663f305d71984308c600080601560009054906101000a90046001600160a01b0316426040518863ffffffff1660e01b8152600401611fc896959493929190612554565b6060604051808303818588803b158015611fe157600080fd5b505af1158015611ff5573d6000803e3d6000fd5b50505050506040513d601f19601f8201168201806040525081019061201a9190612462565b5050507f424db2872186fa7e7afa7a5e902ed3b49a2ef19c2f5431e672462495dd6b4506838a60405161204e92919061282e565b60405180910390a15b5050602e805460ff191690555050505050505050565b601a546000906001600160a01b0316331480159061208e5750602e5460ff16155b801561209c575060215460ff165b80156120b75750436026546027546120b4919061284a565b11155b8015610cb957505060255447101590565b6025546004546120e191906001600160a01b0316611a77565b436027556025546024546120f4916116c6565b6024819055602354101561210d576021805460ff191690555b565b6001600160a01b03166000908152600c602052604090205460ff161590565b601454601a546000918291612160919061120590612159906001600160a01b038981169116146113b2565b8690611a6b565b3060009081526009602052604090205490915061217d90826116c6565b30600081815260096020526040908190209290925590516001600160a01b038716907fddf252ad1be2c89b69c2b068fc378daa952ba7f163c4a11628f55a4df523b3ef906121cc90859061259a565b60405180910390a36121de83826119ef565b95945050505050565b80358015158114610d5d57600080fd5b600060208284031215612208578081fd5b8135610c6e816128e9565b60008060408385031215612225578081fd5b8235612230816128e9565b91506020830135612240816128e9565b809150509250929050565b60008060006060848603121561225f578081fd5b833561226a816128e9565b9250602084013561227a816128e9565b929592945050506040919091013590565b600080600080600080600080610100898b0312156122a7578384fd5b88356122b2816128e9565b975060208901356122c2816128e9565b965060408901359550606089013594506122de60808a016121e7565b935060a089013560ff811681146122f3578384fd5b979a969950949793969295929450505060c08201359160e0013590565b60008060408385031215612322578182fd5b823561232d816128e9565b915061233b602084016121e7565b90509250929050565b60008060408385031215612356578182fd5b8235612361816128e9565b946020939093013593505050565b600060208284031215612380578081fd5b610c6e826121e7565b6000806040838503121561239b578182fd5b612361836121e7565b600080600080608085870312156123b9578384fd5b6123c2856121e7565b966020860135965060408601359560600135945092505050565b6000602082840312156123ed578081fd5b5035919050565b60008060408385031215612406578182fd5b8235915061233b602084016121e7565b60008060408385031215612428578182fd5b50508035926020909101359150565b60008060006060848603121561244b578081fd5b505081359360208301359350604090920135919050565b600080600060608486031215612476578081fd5b8351925060208401519150604084015190509250925092565b600080600080600060a086880312156124a6578283fd5b505083359560208501359550604085013594606081013594506080013592509050565b6000815180845260208085019450808401835b838110156125015781516001600160a01b0316875295820195908201906001016124dc565b509495945050505050565b61190160f01b81526002810192909252602282015260420190565b6001600160a01b0391909116815260200190565b6001600160a01b03929092168252602082015260400190565b6001600160a01b039687168152602081019590955260408501939093526060840191909152909216608082015260a081019190915260c00190565b901515815260200190565b90815260200190565b9586526001600160a01b03948516602087015292909316604085015260608401526080830191909152151560a082015260c00190565b93845260ff9290921660208401526040830152606082015260800190565b60008582526080602083015261261060808301866124c9565b6001600160a01b03949094166040830152506060015292915050565b6000602080835283518082850152825b818110156126585785810183015185820160400152820161263c565b818111156126695783604083870101525b50601f01601f1916929092016040019392505050565b602080825260119082015270151608131a5b5a5d08115e18d959591959607a1b604082015260600190565b6020808252601690820152755265666c6563746f2f696e76616c69642d6e6f6e636560501b604082015260600190565b6020808252601a908201527f5265666c6563746f2f696e76616c69642d616464726573732d30000000000000604082015260600190565b60208082526017908201527f5265666c6563746f2f696e76616c69642d7065726d6974000000000000000000604082015260600190565b602080825260149082015273416c7265616479206c61756e6368656420626f6960601b604082015260600190565b60208082526006908201526510a7aba722a960d11b604082015260600190565b60208082526017908201527f5265666c6563746f2f7065726d69742d65787069726564000000000000000000604082015260600190565b6020808252600b908201526a085055551213d49256915160aa1b604082015260600190565b600086825285602083015260a0604083015261281160a08301866124c9565b6001600160a01b0394909416606083015250608001529392505050565b918252602082015260400190565b60ff91909116815260200190565b6000821982111561285d5761285d6128d3565b500190565b60008261287d57634e487b7160e01b81526012600452602481fd5b500490565b600081600019048311821515161561289c5761289c6128d3565b500290565b6000828210156128b3576128b36128d3565b500390565b60006000198214156128cc576128cc6128d3565b5060010190565b634e487b7160e01b600052601160045260246000fd5b6001600160a01b03811681146128fe57600080fd5b5056fea2646970667358221220a892cc492e9c80c48e0ea94130b9253eaf047d636d3fcdcb00844df9b5b5567d64736f6c634300080000336080604052600180546001600160a01b031990811673e9e7cea3dedca5984780bafc599bd69add087d561790915560028054821673da6802bbec06ab447a68294a63de47ed4506acaa1790556003805490911673bb4cdb9cbd36b01bd1cbaebf2de08d9173bc095c1790556ec097ce7bc90715b34b9f1000000000600d55610e10600e55670de0b6b3a7640000600f5534801561009b57600080fd5b50604051610f31380380610f318339810160408190526100ba91610114565b6001600160a01b0381166100e2577310ed43c718714eb63d5aa57b78b54704e256024e6100e4565b805b600480546001600160a01b03929092166001600160a01b0319928316179055600080549091163317905550610142565b600060208284031215610125578081fd5b81516001600160a01b038116811461013b578182fd5b9392505050565b610de0806101516000396000f3fe6080604052600436106100dd5760003560e01c8063ce7c2ac21161007f578063efca2eed11610059578063efca2eed146101fa578063f0fc6bca1461020f578063ffb2c47914610224578063ffd49c8414610244576100dd565b8063ce7c2ac2146101ae578063d0e30db0146101dd578063e2d2e219146101e5576100dd565b80632d48e896116100bb5780632d48e8961461014f5780633a98ef391461016f5780634fab0ae814610184578063997664d714610199576100dd565b806311ce023d146100e257806314b6ca961461010d57806328fd31981461012f575b600080fd5b3480156100ee57600080fd5b506100f7610259565b6040516101049190610cec565b60405180910390f35b34801561011957600080fd5b5061012d610128366004610bbc565b61025f565b005b34801561013b57600080fd5b506100f761014a366004610ba2565b610384565b34801561015b57600080fd5b5061012d61016a366004610c35565b610410565b34801561017b57600080fd5b506100f7610432565b34801561019057600080fd5b506100f7610438565b3480156101a557600080fd5b506100f761043e565b3480156101ba57600080fd5b506101ce6101c9366004610ba2565b610444565b60405161010493929190610cf5565b61012d610465565b3480156101f157600080fd5b506100f76106d7565b34801561020657600080fd5b506100f76106dd565b34801561021b57600080fd5b5061012d6106e3565b34801561023057600080fd5b5061012d61023f366004610c05565b6106ee565b34801561025057600080fd5b506100f761080d565b600d5481565b6000546001600160a01b0316331461027657600080fd5b6001600160a01b0382166000908152600860205260409020541561029d5761029d82610813565b6000811180156102c357506001600160a01b038216600090815260086020526040902054155b156102d6576102d18261093e565b610309565b801580156102fb57506001600160a01b03821660009081526008602052604090205415155b15610309576103098261099f565b6001600160a01b03821660009081526008602052604090205460095461033a91839161033491610aec565b90610aff565b6009556001600160a01b038216600090815260086020526040902081905561036181610b0b565b6001600160a01b0390921660009081526008602052604090206001019190915550565b6001600160a01b0381166000908152600860205260408120546103a95750600061040b565b6001600160a01b0382166000908152600860205260408120546103cb90610b0b565b6001600160a01b0384166000908152600860205260409020600101549091508082116103fc5760009250505061040b565b6104068282610aec565b925050505b919050565b6000546001600160a01b0316331461042757600080fd5b600e91909155600f55565b60095481565b600f5481565b600a5481565b60086020526000908152604090208054600182015460029092015490919083565b6000546001600160a01b0316331461047c57600080fd5b6001546040516370a0823160e01b81526000916001600160a01b0316906370a08231906104ad903090600401610c56565b60206040518083038186803b1580156104c557600080fd5b505afa1580156104d9573d6000803e3d6000fd5b505050506040513d601f19601f820116820180604052508101906104fd9190610c1d565b6040805160028082526060820183529293506000929091602083019080368337505060035482519293506001600160a01b03169183915060009061055157634e487b7160e01b600052603260045260246000fd5b6001600160a01b039283166020918202929092010152600180548351921691839190811061058f57634e487b7160e01b600052603260045260246000fd5b6001600160a01b0392831660209182029290920101526004805460405163b6f9de9560e01b815292169163b6f9de959134916105d49160009187913091429101610c83565b6000604051808303818588803b1580156105ed57600080fd5b505af1158015610601573d6000803e3d6000fd5b50506001546040516370a0823160e01b81526000945061069593508692506001600160a01b03909116906370a082319061063f903090600401610c56565b60206040518083038186803b15801561065757600080fd5b505afa15801561066b573d6000803e3d6000fd5b505050506040513d601f19601f8201168201806040525081019061068f9190610c1d565b90610aec565b600a549091506106a59082610aff565b600a55600954600d546106cf916106c6916106c09085610b2e565b90610b3a565b600c5490610aff565b600c55505050565b600c5481565b600b5481565b6106ec33610813565b565b6000546001600160a01b0316331461070557600080fd5b60055480610713575061080a565b6000805a905060005b848310801561072a57508381105b1561080557836010541061073e5760006010555b61077e60056010548154811061076457634e487b7160e01b600052603260045260246000fd5b6000918252602090912001546001600160a01b0316610b46565b156107c3576107c36005601054815481106107a957634e487b7160e01b600052603260045260246000fd5b6000918252602090912001546001600160a01b0316610813565b6107d86107d15a8490610aec565b8490610aff565b92505a6010805491935060006107ed83610d79565b919050555080806107fd90610d79565b91505061071c565b505050505b50565b600e5481565b6001600160a01b0381166000908152600860205260409020546108355761080a565b600061084082610384565b9050801561093a57600b546108559082610aff565b600b5560015460405163a9059cbb60e01b81526001600160a01b039091169063a9059cbb9061088a9085908590600401610c6a565b602060405180830381600087803b1580156108a457600080fd5b505af11580156108b8573d6000803e3d6000fd5b505050506040513d601f19601f820116820180604052508101906108dc9190610be5565b506001600160a01b038216600090815260076020908152604080832042905560089091529020600201546109109082610aff565b6001600160a01b038316600090815260086020526040902060028101919091555461036190610b0b565b5050565b600580546001600160a01b039092166000818152600660205260408120849055600184018355919091527f036b6384b5eca791c62761152d0c79bb0604c104a5fb6f4eb0703f3154bb3db090910180546001600160a01b0319169091179055565b600580546109af90600190610d62565b815481106109cd57634e487b7160e01b600052603260045260246000fd5b60009182526020808320909101546001600160a01b0384811684526006909252604090922054600580549290931692918110610a1957634e487b7160e01b600052603260045260246000fd5b600091825260208083209190910180546001600160a01b0319166001600160a01b03948516179055918316815260069182905260408120546005805491939291610a6590600190610d62565b81548110610a8357634e487b7160e01b600052603260045260246000fd5b60009182526020808320909101546001600160a01b031683528201929092526040019020556005805480610ac757634e487b7160e01b600052603160045260246000fd5b600082815260209020810160001990810180546001600160a01b031916905501905550565b6000610af88284610d62565b9392505050565b6000610af88284610d0b565b6000610b28600d546106c0600c5485610b2e90919063ffffffff16565b92915050565b6000610af88284610d43565b6000610af88284610d23565b600e546001600160a01b03821660009081526007602052604081205490914291610b709190610d0b565b108015610b285750600f54610b8483610384565b1192915050565b80356001600160a01b038116811461040b57600080fd5b600060208284031215610bb3578081fd5b610af882610b8b565b60008060408385031215610bce578081fd5b610bd783610b8b565b946020939093013593505050565b600060208284031215610bf6578081fd5b81518015158114610af8578182fd5b600060208284031215610c16578081fd5b5035919050565b600060208284031215610c2e578081fd5b5051919050565b60008060408385031215610c47578182fd5b50508035926020909101359150565b6001600160a01b0391909116815260200190565b6001600160a01b03929092168252602082015260400190565b600060808201868352602060808185015281875180845260a0860191508289019350845b81811015610ccc5784516001600160a01b031683529383019391830191600101610ca7565b50506001600160a01b039690961660408501525050506060015292915050565b90815260200190565b9283526020830191909152604082015260600190565b60008219821115610d1e57610d1e610d94565b500190565b600082610d3e57634e487b7160e01b81526012600452602481fd5b500490565b6000816000190483118215151615610d5d57610d5d610d94565b500290565b600082821015610d7457610d74610d94565b500390565b6000600019821415610d8d57610d8d610d94565b5060010190565b634e487b7160e01b600052601160045260246000fdfea26469706673582212201a9f8197f52975ab49ee6ae4e7b67cb522b26cc4370a81c185bdc5d4f1af2cdc64736f6c63430008000033",
  "immutableReferences": {},
  "source": "//SPDX-License-Identifier: MIT\npragma solidity ^0.8.0;\n\nimport \"./libs/IBEP20.sol\";\nimport \"./libs/Auth.sol\";\nimport \"./libs/SafeMath.sol\";\nimport \"./libs/IDEX.sol\";\nimport \"./DividendDistributor.sol\";\n\ncontract Reflecto is IBEP20, Auth {\n    using SafeMath for uint256;\n\n    uint256 public constant MASK = type(uint128).max;\n    address BUSD = 0xe9e7CEA3DedcA5984780Bafc599bD69ADd087D56;\n    address public WBNB = 0xbb4CdB9CBd36B01bD1cBaEBF2De08d9173bc095c;\n    address DEAD = 0x000000000000000000000000000000000000dEaD;\n    address ZERO = 0x0000000000000000000000000000000000000000;\n    address DEAD_NON_CHECKSUM = 0x000000000000000000000000000000000000dEaD;\n\n    string constant _name = \"REFLECTO_TEST_META\";\n    string constant _symbol = \"REFLECTO_TEST_META\";\n    uint8 constant _decimals = 9;\n\n    uint256 _totalSupply = 1_000_000_000_000_000 * (10**_decimals);\n    uint256 public _maxTxAmount = _totalSupply.div(400); // 0.25%\n\n    mapping(address => uint256) _balances;\n    mapping(address => uint256) public nonces;\n    mapping(address => mapping(address => uint256)) _allowances;\n\n    mapping(address => bool) isFeeExempt;\n    mapping(address => bool) isTxLimitExempt;\n    mapping(address => bool) isDividendExempt;\n\n    uint256 liquidityFee = 200;\n    uint256 buybackFee = 300;\n    uint256 reflectionFee = 1000;\n    uint256 marketingFee = 100;\n    uint256 totalFee = 1600;\n    uint256 feeDenominator = 10000;\n\n    address public autoLiquidityReceiver;\n    address public marketingFeeReceiver;\n\n    uint256 targetLiquidity = 25;\n    uint256 targetLiquidityDenominator = 100;\n\n    IDEXRouter public router;\n    address public pair;\n\n    uint256 public launchedAt;\n    uint256 public launchedAtTimestamp;\n\n    uint256 buybackMultiplierNumerator = 200;\n    uint256 buybackMultiplierDenominator = 100;\n    uint256 buybackMultiplierTriggeredAt;\n    uint256 buybackMultiplierLength = 30 minutes;\n\n    bool public autoBuybackEnabled = false;\n    mapping(address => bool) buyBacker;\n    uint256 autoBuybackCap;\n    uint256 autoBuybackAccumulator;\n    uint256 autoBuybackAmount;\n    uint256 autoBuybackBlockPeriod;\n    uint256 autoBuybackBlockLast;\n\n    DividendDistributor distributor;\n    address public distributorAddress;\n\n    uint256 distributorGas = 500000;\n\n    // bytes32 public immutable PERMIT_TYPEHASH =\n    //     keccak256(\n    //         \"Permit(address owner,address spender,uint256 value,uint256 nonce,uint256 deadline)\"\n    //     );\n    // --- EIP712 niceties ---\n    bytes32 public DOMAIN_SEPARATOR;\n    // bytes32 public constant PERMIT_TYPEHASH = keccak256(\"Permit(address holder,address spender,uint256 nonce,uint256 expiry,bool allowed)\");\n    bytes32 public constant PERMIT_TYPEHASH =\n        0xea2aa0a1be11a07ed86d755c93467f4f82362b452371d1ba94d1715123511acb;\n\n    bool public swapEnabled = true;\n    uint256 public swapThreshold = _totalSupply / 2000; // 0.005%\n    bool inSwap;\n    modifier swapping() {\n        inSwap = true;\n        _;\n        inSwap = false;\n    }\n\n    constructor(address _dexRouter) Auth(msg.sender) {\n        router = IDEXRouter(_dexRouter);\n        pair = IDEXFactory(router.factory()).createPair(WBNB, address(this));\n        _allowances[address(this)][address(router)] = _totalSupply;\n        WBNB = router.WETH();\n        distributor = new DividendDistributor(_dexRouter);\n        distributorAddress = address(distributor);\n\n        isFeeExempt[msg.sender] = true;\n        isTxLimitExempt[msg.sender] = true;\n        isDividendExempt[pair] = true;\n        isDividendExempt[address(this)] = true;\n        isDividendExempt[DEAD] = true;\n        buyBacker[msg.sender] = true;\n\n        autoLiquidityReceiver = msg.sender;\n        marketingFeeReceiver = msg.sender;\n\n        approve(_dexRouter, _totalSupply);\n        approve(address(pair), _totalSupply);\n        _balances[msg.sender] = _totalSupply;\n\n        uint256 chainId;\n        assembly {\n            chainId := chainid()\n        }\n        DOMAIN_SEPARATOR = keccak256(\n            abi.encode(\n                keccak256(\n                    \"EIP712Domain(string name,string version,uint256 chainId,address verifyingContract)\"\n                ),\n                keccak256(bytes(_name)),\n                keccak256(bytes(version())),\n                1337,\n                address(this)\n            )\n        );\n\n        emit Transfer(address(0), msg.sender, _totalSupply);\n    }\n\n    /// @dev Setting the version as a function so that it can be overriden\n    function version() public pure virtual returns (string memory) {\n        return \"1\";\n    }\n\n    function getChainID() external view returns (uint256) {\n        return block.chainid;\n    }\n\n    receive() external payable {}\n\n    function totalSupply() external view override returns (uint256) {\n        return _totalSupply;\n    }\n\n    function decimals() external pure override returns (uint8) {\n        return _decimals;\n    }\n\n    function symbol() external pure override returns (string memory) {\n        return _symbol;\n    }\n\n    function name() external pure override returns (string memory) {\n        return _name;\n    }\n\n    function getOwner() external view override returns (address) {\n        return owner;\n    }\n\n    modifier onlyBuybacker() {\n        require(buyBacker[msg.sender] == true, \"\");\n        _;\n    }\n\n    function balanceOf(address account) public view override returns (uint256) {\n        return _balances[account];\n    }\n\n    function allowance(address holder, address spender)\n        external\n        view\n        override\n        returns (uint256)\n    {\n        return _allowances[holder][spender];\n    }\n\n    function approve(address spender, uint256 amount)\n        public\n        override\n        returns (bool)\n    {\n        _allowances[msg.sender][spender] = amount;\n        emit Approval(msg.sender, spender, amount);\n        return true;\n    }\n\n    function approveMax(address spender) external returns (bool) {\n        return approve(spender, _totalSupply);\n    }\n\n    function transfer(address recipient, uint256 amount)\n        external\n        override\n        returns (bool)\n    {\n        return _transferFrom(msg.sender, recipient, amount);\n    }\n\n    function transferFrom(\n        address sender,\n        address recipient,\n        uint256 amount\n    ) external override returns (bool) {\n        if (_allowances[sender][msg.sender] != _totalSupply) {\n            _allowances[sender][msg.sender] = _allowances[sender][msg.sender]\n                .sub(amount, \"Insufficient Allowance\");\n        }\n\n        return _transferFrom(sender, recipient, amount);\n    }\n\n    function _transferFrom(\n        address sender,\n        address recipient,\n        uint256 amount\n    ) internal returns (bool) {\n        if (inSwap) {\n            return _basicTransfer(sender, recipient, amount);\n        }\n\n        checkTxLimit(sender, amount);\n        //\n        if (shouldSwapBack()) {\n            swapBack();\n        }\n        if (shouldAutoBuyback()) {\n            triggerAutoBuyback();\n        }\n\n        //        if(!launched() && recipient == pair){ require(_balances[sender] > 0); launch(); }\n\n        _balances[sender] = _balances[sender].sub(\n            amount,\n            \"Insufficient Balance\"\n        );\n\n        uint256 amountReceived = shouldTakeFee(sender)\n            ? takeFee(sender, recipient, amount)\n            : amount;\n\n        _balances[recipient] = _balances[recipient].add(amountReceived);\n\n        if (!isDividendExempt[sender]) {\n            try distributor.setShare(sender, _balances[sender]) {} catch {}\n        }\n        if (!isDividendExempt[recipient]) {\n            try\n                distributor.setShare(recipient, _balances[recipient])\n            {} catch {}\n        }\n\n        try distributor.process(distributorGas) {} catch {}\n\n        emit Transfer(sender, recipient, amountReceived);\n        return true;\n    }\n\n    function _basicTransfer(\n        address sender,\n        address recipient,\n        uint256 amount\n    ) internal returns (bool) {\n        _balances[sender] = _balances[sender].sub(\n            amount,\n            \"Insufficient Balance\"\n        );\n        _balances[recipient] = _balances[recipient].add(amount);\n        //        emit Transfer(sender, recipient, amount);\n        return true;\n    }\n\n    function checkTxLimit(address sender, uint256 amount) internal view {\n        require(\n            amount <= _maxTxAmount || isTxLimitExempt[sender],\n            \"TX Limit Exceeded\"\n        );\n    }\n\n    function shouldTakeFee(address sender) internal view returns (bool) {\n        return !isFeeExempt[sender];\n    }\n\n    function getTotalFee(bool selling) public view returns (uint256) {\n        if (launchedAt + 1 >= block.number) {\n            return feeDenominator.sub(1);\n        }\n        if (selling) {\n            return getMultipliedFee();\n        }\n        return totalFee;\n    }\n\n    function getMultipliedFee() public view returns (uint256) {\n        if (launchedAtTimestamp + 1 days > block.timestamp) {\n            return totalFee.mul(18000).div(feeDenominator);\n        } else if (\n            buybackMultiplierTriggeredAt.add(buybackMultiplierLength) >\n            block.timestamp\n        ) {\n            uint256 remainingTime = buybackMultiplierTriggeredAt\n                .add(buybackMultiplierLength)\n                .sub(block.timestamp);\n            uint256 feeIncrease = totalFee\n                .mul(buybackMultiplierNumerator)\n                .div(buybackMultiplierDenominator)\n                .sub(totalFee);\n            return\n                totalFee.add(\n                    feeIncrease.mul(remainingTime).div(buybackMultiplierLength)\n                );\n        }\n        return totalFee;\n    }\n\n    function takeFee(\n        address sender,\n        address receiver,\n        uint256 amount\n    ) internal returns (uint256) {\n        uint256 feeAmount = amount.mul(getTotalFee(receiver == pair)).div(\n            feeDenominator\n        );\n\n        _balances[address(this)] = _balances[address(this)].add(feeAmount);\n        emit Transfer(sender, address(this), feeAmount);\n\n        return amount.sub(feeAmount);\n    }\n\n    function shouldSwapBack() internal view returns (bool) {\n        return\n            msg.sender != pair &&\n            !inSwap &&\n            swapEnabled &&\n            _balances[address(this)] >= swapThreshold;\n    }\n\n    function swapBack() internal swapping {\n        uint256 dynamicLiquidityFee = isOverLiquified(\n            targetLiquidity,\n            targetLiquidityDenominator\n        )\n            ? 0\n            : liquidityFee;\n        uint256 amountToLiquify = swapThreshold\n            .mul(dynamicLiquidityFee)\n            .div(totalFee)\n            .div(2);\n        uint256 amountToSwap = swapThreshold.sub(amountToLiquify);\n\n        address[] memory path = new address[](2);\n        path[0] = address(this);\n        path[1] = WBNB;\n        uint256 balanceBefore = address(this).balance;\n\n        router.swapExactTokensForETHSupportingFeeOnTransferTokens(\n            amountToSwap,\n            0,\n            path,\n            address(this),\n            block.timestamp\n        );\n\n        uint256 amountBNB = address(this).balance.sub(balanceBefore);\n\n        uint256 totalBNBFee = totalFee.sub(dynamicLiquidityFee.div(2));\n\n        uint256 amountBNBLiquidity = amountBNB\n            .mul(dynamicLiquidityFee)\n            .div(totalBNBFee)\n            .div(2);\n        uint256 amountBNBReflection = amountBNB.mul(reflectionFee).div(\n            totalBNBFee\n        );\n        uint256 amountBNBMarketing = amountBNB.mul(marketingFee).div(\n            totalBNBFee\n        );\n\n        try distributor.deposit{value: amountBNBReflection}() {} catch {}\n        payable(marketingFeeReceiver).transfer(amountBNBMarketing);\n\n        if (amountToLiquify > 0) {\n            router.addLiquidityETH{value: amountBNBLiquidity}(\n                address(this),\n                amountToLiquify,\n                0,\n                0,\n                autoLiquidityReceiver,\n                block.timestamp\n            );\n            emit AutoLiquify(amountBNBLiquidity, amountToLiquify);\n        }\n    }\n\n    function shouldAutoBuyback() internal view returns (bool) {\n        return\n            msg.sender != pair &&\n            !inSwap &&\n            autoBuybackEnabled &&\n            autoBuybackBlockLast + autoBuybackBlockPeriod <= block.number && // After N blocks from last buyback\n            address(this).balance >= autoBuybackAmount;\n    }\n\n    function triggerZeusBuyback(uint256 amount, bool triggerBuybackMultiplier)\n        external\n        authorized\n    {\n        buyTokens(amount, DEAD);\n        if (triggerBuybackMultiplier) {\n            buybackMultiplierTriggeredAt = block.timestamp;\n            emit BuybackMultiplierActive(buybackMultiplierLength);\n        }\n    }\n\n    function clearBuybackMultiplier() external authorized {\n        buybackMultiplierTriggeredAt = 0;\n    }\n\n    function triggerAutoBuyback() internal {\n        buyTokens(autoBuybackAmount, DEAD);\n        autoBuybackBlockLast = block.number;\n        autoBuybackAccumulator = autoBuybackAccumulator.add(autoBuybackAmount);\n        if (autoBuybackAccumulator > autoBuybackCap) {\n            autoBuybackEnabled = false;\n        }\n    }\n\n    function buyTokens(uint256 amount, address to) internal swapping {\n        address[] memory path = new address[](2);\n        path[0] = WBNB;\n        path[1] = address(this);\n\n        router.swapExactETHForTokensSupportingFeeOnTransferTokens{\n            value: amount\n        }(0, path, to, block.timestamp);\n    }\n\n    function setAutoBuybackSettings(\n        bool _enabled,\n        uint256 _cap,\n        uint256 _amount,\n        uint256 _period\n    ) external authorized {\n        autoBuybackEnabled = _enabled;\n        autoBuybackCap = _cap;\n        autoBuybackAccumulator = 0;\n        autoBuybackAmount = _amount;\n        autoBuybackBlockPeriod = _period;\n        autoBuybackBlockLast = block.number;\n    }\n\n    function setBuybackMultiplierSettings(\n        uint256 numerator,\n        uint256 denominator,\n        uint256 length\n    ) external authorized {\n        require(numerator / denominator <= 2 && numerator > denominator);\n        buybackMultiplierNumerator = numerator;\n        buybackMultiplierDenominator = denominator;\n        buybackMultiplierLength = length;\n    }\n\n    function launched() internal view returns (bool) {\n        return launchedAt != 0;\n    }\n\n    function launch() public authorized {\n        require(launchedAt == 0, \"Already launched boi\");\n        launchedAt = block.number;\n        launchedAtTimestamp = block.timestamp;\n    }\n\n    function setTxLimit(uint256 amount) external authorized {\n        require(amount >= _totalSupply / 1000);\n        _maxTxAmount = amount;\n    }\n\n    function setIsDividendExempt(address holder, bool exempt)\n        external\n        authorized\n    {\n        require(holder != address(this) && holder != pair);\n        isDividendExempt[holder] = exempt;\n        if (exempt) {\n            distributor.setShare(holder, 0);\n        } else {\n            distributor.setShare(holder, _balances[holder]);\n        }\n    }\n\n    function setIsFeeExempt(address holder, bool exempt) external authorized {\n        isFeeExempt[holder] = exempt;\n    }\n\n    function setIsTxLimitExempt(address holder, bool exempt)\n        external\n        authorized\n    {\n        isTxLimitExempt[holder] = exempt;\n    }\n\n    function setFees(\n        uint256 _liquidityFee,\n        uint256 _buybackFee,\n        uint256 _reflectionFee,\n        uint256 _marketingFee,\n        uint256 _feeDenominator\n    ) external authorized {\n        liquidityFee = _liquidityFee;\n        buybackFee = _buybackFee;\n        reflectionFee = _reflectionFee;\n        marketingFee = _marketingFee;\n        totalFee = _liquidityFee.add(_buybackFee).add(_reflectionFee).add(\n            _marketingFee\n        );\n        feeDenominator = _feeDenominator;\n        require(totalFee < feeDenominator / 4);\n    }\n\n    function setFeeReceivers(\n        address _autoLiquidityReceiver,\n        address _marketingFeeReceiver\n    ) external authorized {\n        autoLiquidityReceiver = _autoLiquidityReceiver;\n        marketingFeeReceiver = _marketingFeeReceiver;\n    }\n\n    function setSwapBackSettings(bool _enabled, uint256 _amount)\n        external\n        authorized\n    {\n        swapEnabled = _enabled;\n        swapThreshold = _amount;\n    }\n\n    function setTargetLiquidity(uint256 _target, uint256 _denominator)\n        external\n        authorized\n    {\n        targetLiquidity = _target;\n        targetLiquidityDenominator = _denominator;\n    }\n\n    function setDistributionCriteria(\n        uint256 _minPeriod,\n        uint256 _minDistribution\n    ) external authorized {\n        distributor.setDistributionCriteria(_minPeriod, _minDistribution);\n    }\n\n    function setDistributorSettings(uint256 gas) external authorized {\n        require(gas < 999999);\n        distributorGas = gas;\n    }\n\n    function getCirculatingSupply() public view returns (uint256) {\n        return _totalSupply.sub(balanceOf(DEAD)).sub(balanceOf(ZERO));\n    }\n\n    function getLiquidityBacking(uint256 accuracy)\n        public\n        view\n        returns (uint256)\n    {\n        return accuracy.mul(balanceOf(pair).mul(2)).div(getCirculatingSupply());\n    }\n\n    function isOverLiquified(uint256 target, uint256 accuracy)\n        public\n        view\n        returns (bool)\n    {\n        return getLiquidityBacking(accuracy) > target;\n    }\n\n    /**\n     * @dev Sets the allowance granted to `spender` by `owner`.\n     *\n     * Emits an {Approval} event indicating the updated allowance.\n     */\n    function _setAllowance(\n        address owner,\n        address spender,\n        uint256 wad\n    ) internal virtual returns (bool) {\n        _allowances[owner][spender] = wad;\n        emit Approval(owner, spender, wad);\n\n        return true;\n    }\n\n    // --- Approve by signature ---\n    function permit(\n        address holder,\n        address spender,\n        uint256 nonce,\n        uint256 expiry,\n        bool allowed,\n        uint8 v,\n        bytes32 r,\n        bytes32 s\n    ) external {\n        bytes32 digest = keccak256(\n            abi.encodePacked(\n                \"\\x19\\x01\",\n                DOMAIN_SEPARATOR,\n                keccak256(\n                    abi.encode(\n                        PERMIT_TYPEHASH,\n                        holder,\n                        spender,\n                        nonce,\n                        expiry,\n                        allowed\n                    )\n                )\n            )\n        );\n\n        require(holder != address(0), \"Reflecto/invalid-address-0\");\n        require(\n            holder == ecrecover(digest, v, r, s),\n            \"Reflecto/invalid-permit\"\n        );\n        require(\n            expiry == 0 || block.timestamp <= expiry,\n            \"Reflecto/permit-expired\"\n        );\n        require(nonce == nonces[holder]++, \"Reflecto/invalid-nonce\");\n        uint256 wad = allowed ? _totalSupply : 0;\n        _setAllowance(holder, spender, wad);\n    }\n\n    event AutoLiquify(uint256 amountBNB, uint256 amountBOG);\n    event BuybackMultiplierActive(uint256 duration);\n}\n",
  "sourcePath": "/Users/vladimir.djukic/Documents/reflecto-token/contracts/Reflecto.sol",
  "compiler": {
    "name": "solc",
    "version": "0.8.0+commit.c7dfd78e.Emscripten.clang"
  },
  "schemaVersion": "3.4.1",
  "updatedAt": "2021-10-23T19:09:28.420Z",
  "networkType": "ethereum",
  "devdoc": {
    "kind": "dev",
    "methods": {
      "version()": {
        "details": "Setting the version as a function so that it can be overriden"
      }
    },
    "version": 1
  },
  "userdoc": {
    "kind": "user",
    "methods": {
      "authorize(address)": {
        "notice": "Authorize address. Owner only"
      },
      "isAuthorized(address)": {
        "notice": "Return address' authorization status"
      },
      "isOwner(address)": {
        "notice": "Check if address is owner"
      },
      "transferOwnership(address)": {
        "notice": "Transfer ownership to new address. Caller must be owner. Leaves old owner authorized"
      },
      "unauthorize(address)": {
        "notice": "Remove address' authorization. Owner only"
      }
    },
    "version": 1
  }
}