{
  "contractName": "Reflecto",
  "abi": [
    {
      "inputs": [
        {
          "internalType": "address",
          "name": "_dexRouter",
          "type": "address"
        },
        {
          "internalType": "address",
          "name": "_WBNBinput",
          "type": "address"
        }
      ],
      "stateMutability": "nonpayable",
      "type": "constructor"
    },
    {
      "anonymous": false,
      "inputs": [
        {
          "indexed": true,
          "internalType": "address",
          "name": "owner",
          "type": "address"
        },
        {
          "indexed": true,
          "internalType": "address",
          "name": "spender",
          "type": "address"
        },
        {
          "indexed": false,
          "internalType": "uint256",
          "name": "value",
          "type": "uint256"
        }
      ],
      "name": "Approval",
      "type": "event"
    },
    {
      "anonymous": false,
      "inputs": [
        {
          "indexed": false,
          "internalType": "uint256",
          "name": "amountBNB",
          "type": "uint256"
        },
        {
          "indexed": false,
          "internalType": "uint256",
          "name": "amountBOG",
          "type": "uint256"
        }
      ],
      "name": "AutoLiquify",
      "type": "event"
    },
    {
      "anonymous": false,
      "inputs": [
        {
          "indexed": false,
          "internalType": "uint256",
          "name": "duration",
          "type": "uint256"
        }
      ],
      "name": "BuybackMultiplierActive",
      "type": "event"
    },
    {
      "anonymous": false,
      "inputs": [
        {
          "indexed": false,
          "internalType": "address",
          "name": "owner",
          "type": "address"
        }
      ],
      "name": "OwnershipTransferred",
      "type": "event"
    },
    {
      "anonymous": false,
      "inputs": [
        {
          "indexed": true,
          "internalType": "address",
          "name": "from",
          "type": "address"
        },
        {
          "indexed": true,
          "internalType": "address",
          "name": "to",
          "type": "address"
        },
        {
          "indexed": false,
          "internalType": "uint256",
          "name": "value",
          "type": "uint256"
        }
      ],
      "name": "Transfer",
      "type": "event"
    },
    {
      "inputs": [],
      "name": "DOMAIN_SEPARATOR",
      "outputs": [
        {
          "internalType": "bytes32",
          "name": "",
          "type": "bytes32"
        }
      ],
      "stateMutability": "view",
      "type": "function",
      "constant": true
    },
    {
      "inputs": [],
      "name": "MASK",
      "outputs": [
        {
          "internalType": "uint256",
          "name": "",
          "type": "uint256"
        }
      ],
      "stateMutability": "view",
      "type": "function",
      "constant": true
    },
    {
      "inputs": [],
      "name": "PERMIT_TYPEHASH",
      "outputs": [
        {
          "internalType": "bytes32",
          "name": "",
          "type": "bytes32"
        }
      ],
      "stateMutability": "view",
      "type": "function",
      "constant": true
    },
    {
      "inputs": [],
      "name": "WBNB",
      "outputs": [
        {
          "internalType": "address",
          "name": "",
          "type": "address"
        }
      ],
      "stateMutability": "view",
      "type": "function",
      "constant": true
    },
    {
      "inputs": [],
      "name": "_maxTxAmount",
      "outputs": [
        {
          "internalType": "uint256",
          "name": "",
          "type": "uint256"
        }
      ],
      "stateMutability": "view",
      "type": "function",
      "constant": true
    },
    {
      "inputs": [
        {
          "internalType": "address",
          "name": "adr",
          "type": "address"
        }
      ],
      "name": "authorize",
      "outputs": [],
      "stateMutability": "nonpayable",
      "type": "function"
    },
    {
      "inputs": [],
      "name": "autoBuybackEnabled",
      "outputs": [
        {
          "internalType": "bool",
          "name": "",
          "type": "bool"
        }
      ],
      "stateMutability": "view",
      "type": "function",
      "constant": true
    },
    {
      "inputs": [],
      "name": "autoLiquidityReceiver",
      "outputs": [
        {
          "internalType": "address",
          "name": "",
          "type": "address"
        }
      ],
      "stateMutability": "view",
      "type": "function",
      "constant": true
    },
    {
      "inputs": [
        {
          "internalType": "address",
          "name": "adr",
          "type": "address"
        }
      ],
      "name": "isAuthorized",
      "outputs": [
        {
          "internalType": "bool",
          "name": "",
          "type": "bool"
        }
      ],
      "stateMutability": "view",
      "type": "function",
      "constant": true
    },
    {
      "inputs": [
        {
          "internalType": "address",
          "name": "account",
          "type": "address"
        }
      ],
      "name": "isOwner",
      "outputs": [
        {
          "internalType": "bool",
          "name": "",
          "type": "bool"
        }
      ],
      "stateMutability": "view",
      "type": "function",
      "constant": true
    },
    {
      "inputs": [],
      "name": "launchedAt",
      "outputs": [
        {
          "internalType": "uint256",
          "name": "",
          "type": "uint256"
        }
      ],
      "stateMutability": "view",
      "type": "function",
      "constant": true
    },
    {
      "inputs": [],
      "name": "launchedAtTimestamp",
      "outputs": [
        {
          "internalType": "uint256",
          "name": "",
          "type": "uint256"
        }
      ],
      "stateMutability": "view",
      "type": "function",
      "constant": true
    },
    {
      "inputs": [],
      "name": "marketingFeeReceiver",
      "outputs": [
        {
          "internalType": "address",
          "name": "",
          "type": "address"
        }
      ],
      "stateMutability": "view",
      "type": "function",
      "constant": true
    },
    {
      "inputs": [
        {
          "internalType": "address",
          "name": "",
          "type": "address"
        }
      ],
      "name": "nonces",
      "outputs": [
        {
          "internalType": "uint256",
          "name": "",
          "type": "uint256"
        }
      ],
      "stateMutability": "view",
      "type": "function",
      "constant": true
    },
    {
      "inputs": [],
      "name": "pair",
      "outputs": [
        {
          "internalType": "address",
          "name": "",
          "type": "address"
        }
      ],
      "stateMutability": "view",
      "type": "function",
      "constant": true
    },
    {
      "inputs": [],
      "name": "router",
      "outputs": [
        {
          "internalType": "contract IDEXRouter",
          "name": "",
          "type": "address"
        }
      ],
      "stateMutability": "view",
      "type": "function",
      "constant": true
    },
    {
      "inputs": [],
      "name": "swapEnabled",
      "outputs": [
        {
          "internalType": "bool",
          "name": "",
          "type": "bool"
        }
      ],
      "stateMutability": "view",
      "type": "function",
      "constant": true
    },
    {
      "inputs": [],
      "name": "swapThreshold",
      "outputs": [
        {
          "internalType": "uint256",
          "name": "",
          "type": "uint256"
        }
      ],
      "stateMutability": "view",
      "type": "function",
      "constant": true
    },
    {
      "inputs": [
        {
          "internalType": "address payable",
          "name": "adr",
          "type": "address"
        }
      ],
      "name": "transferOwnership",
      "outputs": [],
      "stateMutability": "nonpayable",
      "type": "function"
    },
    {
      "inputs": [
        {
          "internalType": "address",
          "name": "adr",
          "type": "address"
        }
      ],
      "name": "unauthorize",
      "outputs": [],
      "stateMutability": "nonpayable",
      "type": "function"
    },
    {
      "stateMutability": "payable",
      "type": "receive",
      "payable": true
    },
    {
      "inputs": [
        {
          "internalType": "address",
          "name": "_dexRouter",
          "type": "address"
        },
        {
          "internalType": "address",
          "name": "_BEP_TOKEN",
          "type": "address"
        }
      ],
      "name": "addDistributor",
      "outputs": [],
      "stateMutability": "nonpayable",
      "type": "function"
    },
    {
      "inputs": [
        {
          "internalType": "address",
          "name": "_BEP_TOKEN",
          "type": "address"
        }
      ],
      "name": "deleteDistributor",
      "outputs": [],
      "stateMutability": "nonpayable",
      "type": "function"
    },
    {
      "inputs": [],
      "name": "getDistributersBEP20Keys",
      "outputs": [
        {
          "internalType": "address[]",
          "name": "",
          "type": "address[]"
        }
      ],
      "stateMutability": "view",
      "type": "function",
      "constant": true
    },
    {
      "inputs": [
        {
          "internalType": "address",
          "name": "_BEP_TOKEN",
          "type": "address"
        }
      ],
      "name": "getDistributer",
      "outputs": [
        {
          "internalType": "contract DividendDistributor",
          "name": "",
          "type": "address"
        }
      ],
      "stateMutability": "view",
      "type": "function",
      "constant": true
    },
    {
      "inputs": [],
      "name": "version",
      "outputs": [
        {
          "internalType": "string",
          "name": "",
          "type": "string"
        }
      ],
      "stateMutability": "pure",
      "type": "function",
      "constant": true
    },
    {
      "inputs": [],
      "name": "getChainID",
      "outputs": [
        {
          "internalType": "uint256",
          "name": "",
          "type": "uint256"
        }
      ],
      "stateMutability": "view",
      "type": "function",
      "constant": true
    },
    {
      "inputs": [],
      "name": "donate",
      "outputs": [],
      "stateMutability": "payable",
      "type": "function",
      "payable": true
    },
    {
      "inputs": [],
      "name": "totalSupply",
      "outputs": [
        {
          "internalType": "uint256",
          "name": "",
          "type": "uint256"
        }
      ],
      "stateMutability": "view",
      "type": "function",
      "constant": true
    },
    {
      "inputs": [],
      "name": "decimals",
      "outputs": [
        {
          "internalType": "uint8",
          "name": "",
          "type": "uint8"
        }
      ],
      "stateMutability": "pure",
      "type": "function",
      "constant": true
    },
    {
      "inputs": [],
      "name": "symbol",
      "outputs": [
        {
          "internalType": "string",
          "name": "",
          "type": "string"
        }
      ],
      "stateMutability": "pure",
      "type": "function",
      "constant": true
    },
    {
      "inputs": [],
      "name": "name",
      "outputs": [
        {
          "internalType": "string",
          "name": "",
          "type": "string"
        }
      ],
      "stateMutability": "pure",
      "type": "function",
      "constant": true
    },
    {
      "inputs": [],
      "name": "getOwner",
      "outputs": [
        {
          "internalType": "address",
          "name": "",
          "type": "address"
        }
      ],
      "stateMutability": "view",
      "type": "function",
      "constant": true
    },
    {
      "inputs": [
        {
          "internalType": "address",
          "name": "account",
          "type": "address"
        }
      ],
      "name": "balanceOf",
      "outputs": [
        {
          "internalType": "uint256",
          "name": "",
          "type": "uint256"
        }
      ],
      "stateMutability": "view",
      "type": "function",
      "constant": true
    },
    {
      "inputs": [
        {
          "internalType": "address",
          "name": "holder",
          "type": "address"
        },
        {
          "internalType": "address",
          "name": "spender",
          "type": "address"
        }
      ],
      "name": "allowance",
      "outputs": [
        {
          "internalType": "uint256",
          "name": "",
          "type": "uint256"
        }
      ],
      "stateMutability": "view",
      "type": "function",
      "constant": true
    },
    {
      "inputs": [
        {
          "internalType": "address",
          "name": "spender",
          "type": "address"
        },
        {
          "internalType": "uint256",
          "name": "amount",
          "type": "uint256"
        }
      ],
      "name": "approve",
      "outputs": [
        {
          "internalType": "bool",
          "name": "",
          "type": "bool"
        }
      ],
      "stateMutability": "nonpayable",
      "type": "function"
    },
    {
      "inputs": [
        {
          "internalType": "address",
          "name": "spender",
          "type": "address"
        }
      ],
      "name": "approveMax",
      "outputs": [
        {
          "internalType": "bool",
          "name": "",
          "type": "bool"
        }
      ],
      "stateMutability": "nonpayable",
      "type": "function"
    },
    {
      "inputs": [
        {
          "internalType": "address",
          "name": "recipient",
          "type": "address"
        },
        {
          "internalType": "uint256",
          "name": "amount",
          "type": "uint256"
        }
      ],
      "name": "transfer",
      "outputs": [
        {
          "internalType": "bool",
          "name": "",
          "type": "bool"
        }
      ],
      "stateMutability": "nonpayable",
      "type": "function"
    },
    {
      "inputs": [
        {
          "internalType": "address",
          "name": "sender",
          "type": "address"
        },
        {
          "internalType": "address",
          "name": "recipient",
          "type": "address"
        },
        {
          "internalType": "uint256",
          "name": "amount",
          "type": "uint256"
        }
      ],
      "name": "transferFrom",
      "outputs": [
        {
          "internalType": "bool",
          "name": "",
          "type": "bool"
        }
      ],
      "stateMutability": "nonpayable",
      "type": "function"
    },
    {
      "inputs": [
        {
          "internalType": "bool",
          "name": "selling",
          "type": "bool"
        }
      ],
      "name": "getTotalFee",
      "outputs": [
        {
          "internalType": "uint256",
          "name": "",
          "type": "uint256"
        }
      ],
      "stateMutability": "view",
      "type": "function",
      "constant": true
    },
    {
      "inputs": [],
      "name": "getMultipliedFee",
      "outputs": [
        {
          "internalType": "uint256",
          "name": "",
          "type": "uint256"
        }
      ],
      "stateMutability": "view",
      "type": "function",
      "constant": true
    },
    {
      "inputs": [
        {
          "internalType": "uint256",
          "name": "amount",
          "type": "uint256"
        },
        {
          "internalType": "bool",
          "name": "triggerBuybackMultiplier",
          "type": "bool"
        }
      ],
      "name": "triggerZeusBuyback",
      "outputs": [],
      "stateMutability": "nonpayable",
      "type": "function"
    },
    {
      "inputs": [],
      "name": "clearBuybackMultiplier",
      "outputs": [],
      "stateMutability": "nonpayable",
      "type": "function"
    },
    {
      "inputs": [
        {
          "internalType": "bool",
          "name": "_enabled",
          "type": "bool"
        },
        {
          "internalType": "uint256",
          "name": "_cap",
          "type": "uint256"
        },
        {
          "internalType": "uint256",
          "name": "_amount",
          "type": "uint256"
        },
        {
          "internalType": "uint256",
          "name": "_period",
          "type": "uint256"
        }
      ],
      "name": "setAutoBuybackSettings",
      "outputs": [],
      "stateMutability": "nonpayable",
      "type": "function"
    },
    {
      "inputs": [
        {
          "internalType": "uint256",
          "name": "numerator",
          "type": "uint256"
        },
        {
          "internalType": "uint256",
          "name": "denominator",
          "type": "uint256"
        },
        {
          "internalType": "uint256",
          "name": "length",
          "type": "uint256"
        }
      ],
      "name": "setBuybackMultiplierSettings",
      "outputs": [],
      "stateMutability": "nonpayable",
      "type": "function"
    },
    {
      "inputs": [],
      "name": "launch",
      "outputs": [],
      "stateMutability": "nonpayable",
      "type": "function"
    },
    {
      "inputs": [
        {
          "internalType": "uint256",
          "name": "amount",
          "type": "uint256"
        }
      ],
      "name": "setTxLimit",
      "outputs": [],
      "stateMutability": "nonpayable",
      "type": "function"
    },
    {
      "inputs": [
        {
          "internalType": "address",
          "name": "holder",
          "type": "address"
        },
        {
          "internalType": "bool",
          "name": "exempt",
          "type": "bool"
        }
      ],
      "name": "setIsDividendExempt",
      "outputs": [],
      "stateMutability": "nonpayable",
      "type": "function"
    },
    {
      "inputs": [
        {
          "internalType": "address",
          "name": "holder",
          "type": "address"
        },
        {
          "internalType": "bool",
          "name": "exempt",
          "type": "bool"
        }
      ],
      "name": "setIsFeeExempt",
      "outputs": [],
      "stateMutability": "nonpayable",
      "type": "function"
    },
    {
      "inputs": [
        {
          "internalType": "address",
          "name": "holder",
          "type": "address"
        },
        {
          "internalType": "bool",
          "name": "exempt",
          "type": "bool"
        }
      ],
      "name": "setIsTxLimitExempt",
      "outputs": [],
      "stateMutability": "nonpayable",
      "type": "function"
    },
    {
      "inputs": [
        {
          "internalType": "uint256",
          "name": "_liquidityFee",
          "type": "uint256"
        },
        {
          "internalType": "uint256",
          "name": "_buybackFee",
          "type": "uint256"
        },
        {
          "internalType": "uint256",
          "name": "_reflectionFee",
          "type": "uint256"
        },
        {
          "internalType": "uint256",
          "name": "_marketingFee",
          "type": "uint256"
        },
        {
          "internalType": "uint256",
          "name": "_feeDenominator",
          "type": "uint256"
        }
      ],
      "name": "setFees",
      "outputs": [],
      "stateMutability": "nonpayable",
      "type": "function"
    },
    {
      "inputs": [
        {
          "internalType": "address",
          "name": "_autoLiquidityReceiver",
          "type": "address"
        },
        {
          "internalType": "address",
          "name": "_marketingFeeReceiver",
          "type": "address"
        }
      ],
      "name": "setFeeReceivers",
      "outputs": [],
      "stateMutability": "nonpayable",
      "type": "function"
    },
    {
      "inputs": [
        {
          "internalType": "bool",
          "name": "_enabled",
          "type": "bool"
        },
        {
          "internalType": "uint256",
          "name": "_amount",
          "type": "uint256"
        }
      ],
      "name": "setSwapBackSettings",
      "outputs": [],
      "stateMutability": "nonpayable",
      "type": "function"
    },
    {
      "inputs": [
        {
          "internalType": "uint256",
          "name": "_target",
          "type": "uint256"
        },
        {
          "internalType": "uint256",
          "name": "_denominator",
          "type": "uint256"
        }
      ],
      "name": "setTargetLiquidity",
      "outputs": [],
      "stateMutability": "nonpayable",
      "type": "function"
    },
    {
      "inputs": [
        {
          "internalType": "address",
          "name": "_BEP_TOKEN",
          "type": "address"
        },
        {
          "internalType": "uint256",
          "name": "_minPeriod",
          "type": "uint256"
        },
        {
          "internalType": "uint256",
          "name": "_minDistribution",
          "type": "uint256"
        }
      ],
      "name": "setDistributionCriteria",
      "outputs": [],
      "stateMutability": "nonpayable",
      "type": "function"
    },
    {
      "inputs": [
        {
          "internalType": "uint256",
          "name": "gas",
          "type": "uint256"
        }
      ],
      "name": "setDistributorSettings",
      "outputs": [],
      "stateMutability": "nonpayable",
      "type": "function"
    },
    {
      "inputs": [],
      "name": "getCirculatingSupply",
      "outputs": [
        {
          "internalType": "uint256",
          "name": "",
          "type": "uint256"
        }
      ],
      "stateMutability": "view",
      "type": "function",
      "constant": true
    },
    {
      "inputs": [
        {
          "internalType": "uint256",
          "name": "accuracy",
          "type": "uint256"
        }
      ],
      "name": "getLiquidityBacking",
      "outputs": [
        {
          "internalType": "uint256",
          "name": "",
          "type": "uint256"
        }
      ],
      "stateMutability": "view",
      "type": "function",
      "constant": true
    },
    {
      "inputs": [
        {
          "internalType": "uint256",
          "name": "target",
          "type": "uint256"
        },
        {
          "internalType": "uint256",
          "name": "accuracy",
          "type": "uint256"
        }
      ],
      "name": "isOverLiquified",
      "outputs": [
        {
          "internalType": "bool",
          "name": "",
          "type": "bool"
        }
      ],
      "stateMutability": "view",
      "type": "function",
      "constant": true
    },
    {
      "inputs": [
        {
          "internalType": "address",
          "name": "holder",
          "type": "address"
        },
        {
          "internalType": "address",
          "name": "spender",
          "type": "address"
        },
        {
          "internalType": "uint256",
          "name": "nonce",
          "type": "uint256"
        },
        {
          "internalType": "uint256",
          "name": "expiry",
          "type": "uint256"
        },
        {
          "internalType": "bool",
          "name": "allowed",
          "type": "bool"
        },
        {
          "internalType": "uint8",
          "name": "v",
          "type": "uint8"
        },
        {
          "internalType": "bytes32",
          "name": "r",
          "type": "bytes32"
        },
        {
          "internalType": "bytes32",
          "name": "s",
          "type": "bytes32"
        }
      ],
      "name": "permit",
      "outputs": [],
      "stateMutability": "nonpayable",
      "type": "function"
    }
  ],
  "bytecode": "0x60806040526005805461dead6001600160a01b0319918216811790925560068054821690556007805490911690911790556200003e6009600a6200071f565b620000519066038d7ea4c680006200080a565b600855620000726101906008546200054760201b62001abc1790919060201c565b60095560c8601081905561012c6011556103e86012556064601381905561064060145561271060155560196018819055819055601e91909155601f556107086021556022805460ff199081169091556207a120602a55602c80549091166001179055600854620000e6906107d090620006b1565b602d55348015620000f657600080fd5b5060405162005af738038062005af783398101604081905262000119916200062b565b60008054336001600160a01b031991821681178355825260016020818152604093849020805460ff19169092179091556004805483166001600160a01b03868116919091178255601a80549094168782161793849055845163c45a015560e01b8152945193169363c45a01559381830193929091829003018186803b158015620001a257600080fd5b505afa158015620001b7573d6000803e3d6000fd5b505050506040513d601f19601f82011682018060405250810190620001dd91906200060e565b600480546040516364e329cb60e11b81526001600160a01b039384169363c9c653969362000212939091169130910162000662565b602060405180830381600087803b1580156200022d57600080fd5b505af115801562000242573d6000803e3d6000fd5b505050506040513d601f19601f820116820180604052508101906200026891906200060e565b601b80546001600160a01b0319166001600160a01b03928316179055600854306000908152600c60209081526040808320601a8054871685529083529281902093909355905482516315ab88c960e31b8152925193169263ad5c4648926004808201939291829003018186803b158015620002e257600080fd5b505afa158015620002f7573d6000803e3d6000fd5b505050506040513d601f19601f820116820180604052508101906200031d91906200060e565b600480546001600160a01b0319166001600160a01b03929092169190911790556040516200034b90620005e3565b604051809103906000f08015801562000368573d6000803e3d6000fd5b50602980546001600160a01b039283166001600160a01b031991821617909155336000818152600d60209081526040808320805460ff199081166001908117909255600e84528285208054821683179055601b5488168552600f845282852080548216831790553085528285208054821683179055600554909716845281842080548816821790558484526023909252909120805490941617909255601680548216831790556017805490911690911790556008546200042a9083906200055c565b50601b5460085462000446916001600160a01b0316906200055c565b5060088054336000908152600a6020908152604091829020929092558051808201909152918252675245464c4543544f60c01b9101527f8b73c3c69bb8fe3d512ecc4cf759cc79239f7b179b0ffacaa9a75d522b39400f7f56106f775e1c8580382031630a62fb3fc9d0f5d69cdd0435cc62fdfeb2f26de1620004c8620005c8565b8051602091820120604051620004e594939246913091016200067c565b60408051601f19818403018152908290528051602090910120602b5560085433916000917fddf252ad1be2c89b69c2b068fc378daa952ba7f163c4a11628f55a4df523b3ef91620005379190620006a8565b60405180910390a3505062000842565b6000620005558284620006b1565b9392505050565b336000818152600c602090815260408083206001600160a01b038716808552925280832085905551919290917f8c5be1e5ebec7d5bd14f71427d1e84f3dd0314c0f7b2291e5b200ac8c7c3b92590620005b7908690620006a8565b60405180910390a350600192915050565b6040805180820190915260018152603160f81b602082015290565b61230d80620037ea83390190565b80516001600160a01b03811681146200060957600080fd5b919050565b60006020828403121562000620578081fd5b6200055582620005f1565b600080604083850312156200063e578081fd5b6200064983620005f1565b91506200065960208401620005f1565b90509250929050565b6001600160a01b0392831681529116602082015260400190565b9485526020850193909352604084019190915260608301526001600160a01b0316608082015260a00190565b90815260200190565b600082620006cd57634e487b7160e01b81526012600452602481fd5b500490565b80825b6001808611620006e6575062000716565b818704821115620006fb57620006fb6200082c565b808616156200070957918102915b9490941c938002620006d5565b94509492505050565b60006200055560001960ff8516846000826200073e5750600162000555565b816200074d5750600062000555565b81600181146200076657600281146200077157620007a5565b600191505062000555565b60ff8411156200078557620007856200082c565b6001841b9150848211156200079e576200079e6200082c565b5062000555565b5060208310610133831016604e8410600b8410161715620007dd575081810a83811115620007d757620007d76200082c565b62000555565b620007ec8484846001620006d2565b8086048211156200080157620008016200082c565b02949350505050565b60008160001904831182151516156200082757620008276200082c565b500290565b634e487b7160e01b600052601160045260246000fd5b612f9880620008526000396000f3fe6080604052600436106103905760003560e01c806395d89b41116101dc578063d51ed1c811610102578063f0b37c04116100a0578063f708a64f1161006f578063f708a64f14610995578063f84ba65d146109b5578063f887ea40146109d5578063fe9fbb80146109ea57610397565b8063f0b37c0414610915578063f1f3bca314610935578063f2fde38b14610955578063f5cfec0a1461097557610397565b8063df20fd49116100dc578063df20fd49146108c3578063e91f214e146108e3578063e96fada2146108f8578063ed88c68e1461090d57610397565b8063d51ed1c81461086e578063d806d12f1461088e578063dd62ed3e146108a357610397565b8063b210b06d1161017a578063c99913c511610149578063c99913c5146107f7578063ca33e64c14610819578063cd78f2fc1461082e578063d20747ea1461084e57610397565b8063b210b06d14610798578063b6a5d7de146107ad578063bf56b371146107cd578063c6d2577d146107e257610397565b8063a4b45c00116101b6578063a4b45c0014610723578063a8aa1b3114610743578063a9059cbb14610758578063ab3d8e4f1461077857610397565b806395d89b411461041e5780639a236fd5146106e35780639d1944f51461070357610397565b8063313ce567116102c1578063658d4b7f1161025f5780637ecebe001161022e5780637ecebe001461066c578063893d20e81461068c5780638dd95002146106ae5780638fcbaf0c146106c357610397565b8063658d4b7f146106025780636ddd17131461062257806370a08231146106375780637d1db4a51461065757610397565b806354fd4d501161029b57806354fd4d5014610598578063564b81ef146105ad578063571ac8b0146105c25780635c85974f146105e257610397565b8063313ce5671461054c5780633644e5151461056e5780633bb8a8d41461058357610397565b806318160ddd1161032e57806323b872dd1161030857806323b872dd146104e25780632b112e49146105025780632f54bf6e1461051757806330adf81f1461053757610397565b806318160ddd1461048d578063201e7991146104a25780632375ce40146104c257610397565b806304a66b481161036a57806304a66b48146103fe57806306fdde031461041e578063095ea7b3146104405780631161ae391461046d57610397565b806301339c211461039c5780630445b667146103b3578063048c7baf146103de57610397565b3661039757005b600080fd5b3480156103a857600080fd5b506103b1610a0a565b005b3480156103bf57600080fd5b506103c8610a62565b6040516103d59190612b92565b60405180910390f35b3480156103ea57600080fd5b506103b16103f936600461290a565b610a68565b34801561040a57600080fd5b506103b1610419366004612a15565b610ab6565b34801561042a57600080fd5b50610433610b2c565b6040516103d59190612c24565b34801561044c57600080fd5b5061046061045b366004612795565b610b64565b6040516103d59190612b87565b34801561047957600080fd5b5061046061048836600461299c565b610bce565b34801561049957600080fd5b506103c8610be2565b3480156104ae57600080fd5b506103b16104bd36600461299c565b610be8565b3480156104ce57600080fd5b506103b16104dd3660046129bd565b610c18565b3480156104ee57600080fd5b506104606104fd3660046126a1565b610c6d565b34801561050e57600080fd5b506103c8610d38565b34801561052357600080fd5b5061046061053236600461264d565b610d81565b34801561054357600080fd5b506103c8610d98565b34801561055857600080fd5b50610561610dbc565b6040516103d59190612e79565b34801561057a57600080fd5b506103c8610dc1565b34801561058f57600080fd5b50610460610dc7565b3480156105a457600080fd5b50610433610dd0565b3480156105b957600080fd5b506103c8610e07565b3480156105ce57600080fd5b506104606105dd36600461264d565b610e0b565b3480156105ee57600080fd5b506103b16105fd366004612960565b610e1f565b34801561060e57600080fd5b506103b161061d366004612768565b610e65565b34801561062e57600080fd5b50610460610eb5565b34801561064357600080fd5b506103c861065236600461264d565b610ebe565b34801561066357600080fd5b506103c8610ed9565b34801561067857600080fd5b506103c861068736600461264d565b610edf565b34801561069857600080fd5b506106a1610ef1565b6040516103d59190612ac8565b3480156106ba57600080fd5b506106a1610f00565b3480156106cf57600080fd5b506103b16106de3660046126e1565b610f0f565b3480156106ef57600080fd5b506103b16106fe36600461264d565b6110d3565b34801561070f57600080fd5b506103b161071e366004612960565b611197565b34801561072f57600080fd5b506103b161073e366004612669565b6111d0565b34801561074f57600080fd5b506106a1611230565b34801561076457600080fd5b50610460610773366004612795565b61123f565b34801561078457600080fd5b506103b1610793366004612669565b61124c565b3480156107a457600080fd5b506103b1611319565b3480156107b957600080fd5b506103b16107c836600461264d565b611345565b3480156107d957600080fd5b506103c8611391565b3480156107ee57600080fd5b506103c8611397565b34801561080357600080fd5b5061080c61139d565b6040516103d59190612b74565b34801561082557600080fd5b506106a1611437565b34801561083a57600080fd5b506103b16108493660046127c0565b611446565b34801561085a57600080fd5b506106a161086936600461264d565b6114ef565b34801561087a57600080fd5b506103c8610889366004612960565b611589565b34801561089a57600080fd5b506103c86115c9565b3480156108af57600080fd5b506103c86108be366004612669565b6116a0565b3480156108cf57600080fd5b506103b16108de3660046128ed565b6116cb565b3480156108ef57600080fd5b506103c8611707565b34801561090457600080fd5b506106a161171b565b6103b161172a565b34801561092157600080fd5b506103b161093036600461264d565b61172c565b34801561094157600080fd5b506103c86109503660046128b5565b611772565b34801561096157600080fd5b506103b161097036600461264d565b6117b4565b34801561098157600080fd5b506103b1610990366004612978565b611856565b3480156109a157600080fd5b506103b16109b0366004612768565b6118d9565b3480156109c157600080fd5b506103b16109d0366004612768565b611a3f565b3480156109e157600080fd5b506106a1611a8f565b3480156109f657600080fd5b50610460610a0536600461264d565b611a9e565b610a1333611a9e565b610a385760405162461bcd60e51b8152600401610a2f90612df8565b60405180910390fd5b601c5415610a585760405162461bcd60e51b8152600401610a2f90612d53565b43601c5542601d55565b602d5481565b610a7133611a9e565b610a8d5760405162461bcd60e51b8152600401610a2f90612df8565b6022805460ff191694151594909417909355602491909155600060255560265560275543602855565b610abf33611a9e565b610adb5760405162461bcd60e51b8152600401610a2f90612df8565b6010859055601184905560128390556013829055610b0582610aff85818989611ac8565b90611ac8565b6014556015819055610b18600482612e9f565b60145410610b2557600080fd5b5050505050565b60408051808201909152600881527f5245464c4543544f00000000000000000000000000000000000000000000000060208201525b90565b336000818152600c602090815260408083206001600160a01b038716808552925280832085905551919290917f8c5be1e5ebec7d5bd14f71427d1e84f3dd0314c0f7b2291e5b200ac8c7c3b92590610bbd908690612b92565b60405180910390a350600192915050565b600082610bda83611589565b119392505050565b60085490565b610bf133611a9e565b610c0d5760405162461bcd60e51b8152600401610a2f90612df8565b601891909155601955565b610c2133611a9e565b610c3d5760405162461bcd60e51b8152600401610a2f90612df8565b6002610c498385612e9f565b11158015610c5657508183115b610c5f57600080fd5b601e92909255601f55602155565b6008546001600160a01b0384166000908152600c60209081526040808320338452909152812054909114610d2357604080518082018252601681527f496e73756666696369656e7420416c6c6f77616e6365000000000000000000006020808301919091526001600160a01b0387166000908152600c82528381203382529091529190912054610cfe918490611ad4565b6001600160a01b0385166000908152600c602090815260408083203384529091529020555b610d2e848484611b00565b90505b9392505050565b600654600090610d7c90610d54906001600160a01b0316610ebe565b600554610d7690610d6d906001600160a01b0316610ebe565b60085490611e10565b90611e10565b905090565b6000546001600160a01b038281169116145b919050565b7fea2aa0a1be11a07ed86d755c93467f4f82362b452371d1ba94d1715123511acb81565b600990565b602b5481565b60225460ff1681565b60408051808201909152600181527f3100000000000000000000000000000000000000000000000000000000000000602082015290565b4690565b6000610e1982600854610b64565b92915050565b610e2833611a9e565b610e445760405162461bcd60e51b8152600401610a2f90612df8565b6103e8600854610e549190612e9f565b811015610e6057600080fd5b600955565b610e6e33611a9e565b610e8a5760405162461bcd60e51b8152600401610a2f90612df8565b6001600160a01b03919091166000908152600d60205260409020805460ff1916911515919091179055565b602c5460ff1681565b6001600160a01b03166000908152600a602052604090205490565b60095481565b600b6020526000908152604090205481565b6000546001600160a01b031690565b6004546001600160a01b031681565b6000602b547fea2aa0a1be11a07ed86d755c93467f4f82362b452371d1ba94d1715123511acb60001b8a8a8a8a8a604051602001610f5296959493929190612b9b565b60405160208183030381529060405280519060200120604051602001610f79929190612a92565b60408051601f19818403018152919052805160209091012090506001600160a01b038916610fb95760405162461bcd60e51b8152600401610a2f90612ce5565b60018185858560405160008152602001604052604051610fdc9493929190612bd1565b6020604051602081039080840390855afa158015610ffe573d6000803e3d6000fd5b505050602060405103516001600160a01b0316896001600160a01b0316146110385760405162461bcd60e51b8152600401610a2f90612d1c565b8515806110455750854211155b6110615760405162461bcd60e51b8152600401610a2f90612dc1565b6001600160a01b0389166000908152600b6020526040812080549161108583612ef5565b9190505587146110a75760405162461bcd60e51b8152600401610a2f90612cae565b6000856110b55760006110b9565b6008545b90506110c68a8a83611e1c565b5050505050505050505050565b6110dc33611a9e565b6110f85760405162461bcd60e51b8152600401610a2f90612df8565b6029546040517f9a236fd50000000000000000000000000000000000000000000000000000000081526001600160a01b0390911690639a236fd590611141908490600401612ac8565b602060405180830381600087803b15801561115b57600080fd5b505af115801561116f573d6000803e3d6000fd5b505050506040513d601f19601f8201168201806040525081019061119391906128d1565b5050565b6111a033611a9e565b6111bc5760405162461bcd60e51b8152600401610a2f90612df8565b620f423f81106111cb57600080fd5b602a55565b6111d933611a9e565b6111f55760405162461bcd60e51b8152600401610a2f90612df8565b601680546001600160a01b0393841673ffffffffffffffffffffffffffffffffffffffff199182161790915560178054929093169116179055565b601b546001600160a01b031681565b6000610d31338484611b00565b61125533611a9e565b6112715760405162461bcd60e51b8152600401610a2f90612df8565b602954600480546040517f79c7a9dd0000000000000000000000000000000000000000000000000000000081526001600160a01b03938416936379c7a9dd936112c293889388939091169101612adc565b602060405180830381600087803b1580156112dc57600080fd5b505af11580156112f0573d6000803e3d6000fd5b505050506040513d601f19601f8201168201806040525081019061131491906128d1565b505050565b61132233611a9e565b61133e5760405162461bcd60e51b8152600401610a2f90612df8565b6000602055565b61134e33610d81565b61136a5760405162461bcd60e51b8152600401610a2f90612d8a565b6001600160a01b03166000908152600160208190526040909120805460ff19169091179055565b601c5481565b601d5481565b602954604080517fc322a35500000000000000000000000000000000000000000000000000000000815290516060926001600160a01b03169163c322a355916004808301926000929190829003018186803b1580156113fb57600080fd5b505afa15801561140f573d6000803e3d6000fd5b505050506040513d6000823e601f3d908101601f19168201604052610d7c91908101906127f4565b6016546001600160a01b031681565b61144f33611a9e565b61146b5760405162461bcd60e51b8152600401610a2f90612df8565b6029546040517fcd78f2fc0000000000000000000000000000000000000000000000000000000081526001600160a01b039091169063cd78f2fc906114b890869086908690600401612b53565b600060405180830381600087803b1580156114d257600080fd5b505af11580156114e6573d6000803e3d6000fd5b50505050505050565b6029546040517f993df8c60000000000000000000000000000000000000000000000000000000081526000916001600160a01b03169063993df8c690611539908590600401612ac8565b60206040518083038186803b15801561155157600080fd5b505afa158015611565573d6000803e3d6000fd5b505050506040513d601f19601f82011682018060405250810190610e199190612944565b6000610e19611596610d38565b601b546115c3906115bc906002906115b6906001600160a01b0316610ebe565b90611e8c565b8590611e8c565b90611abc565b600042601d54620151806115dd9190612e87565b1115611607576116006015546115c3614650601454611e8c90919063ffffffff16565b9050610b61565b4261161f602154602054611ac890919063ffffffff16565b111561169957600061164242610d76602154602054611ac890919063ffffffff16565b90506000611669601454610d76601f546115c3601e54601454611e8c90919063ffffffff16565b90506116906116876021546115c38585611e8c90919063ffffffff16565b60145490611ac8565b92505050610b61565b5060145490565b6001600160a01b039182166000908152600c6020908152604080832093909416825291909152205490565b6116d433611a9e565b6116f05760405162461bcd60e51b8152600401610a2f90612df8565b602c805460ff191692151592909217909155602d55565b6fffffffffffffffffffffffffffffffff81565b6017546001600160a01b031681565b565b61173533610d81565b6117515760405162461bcd60e51b8152600401610a2f90612d8a565b6001600160a01b03166000908152600160205260409020805460ff19169055565b600043601c5460016117849190612e87565b1061179e57601554611797906001611e10565b9050610d93565b81156117ac576117976115c9565b505060145490565b6117bd33610d81565b6117d95760405162461bcd60e51b8152600401610a2f90612d8a565b6000805473ffffffffffffffffffffffffffffffffffffffff19166001600160a01b0383169081178255815260016020819052604091829020805460ff19169091179055517f04dba622d284ed0014ee4b9a6a68386be1a4c08a4913ae272de89199cc6861639061184b908390612ac8565b60405180910390a150565b61185f33611a9e565b61187b5760405162461bcd60e51b8152600401610a2f90612df8565b6005546118929083906001600160a01b0316611e98565b801561119357426020556021546040517f39d2389ec5c1fa77b2c0d374bc61b6d7bd97ccba280fcdeb4e9c7644898d7c3a916118cd91612b92565b60405180910390a15050565b6118e233611a9e565b6118fe5760405162461bcd60e51b8152600401610a2f90612df8565b6001600160a01b03821630148015906119255750601b546001600160a01b03838116911614155b61192e57600080fd5b6001600160a01b0382166000908152600f60205260409020805460ff191682158015919091179091556119c557602954604051630a5b654b60e11b81526001600160a01b03909116906314b6ca969061198e908590600090600401612aff565b600060405180830381600087803b1580156119a857600080fd5b505af11580156119bc573d6000803e3d6000fd5b50505050611193565b6029546001600160a01b038381166000908152600a602052604090819020549051630a5b654b60e11b815291909216916314b6ca9691611a09918691600401612aff565b600060405180830381600087803b158015611a2357600080fd5b505af1158015611a37573d6000803e3d6000fd5b505050505050565b611a4833611a9e565b611a645760405162461bcd60e51b8152600401610a2f90612df8565b6001600160a01b03919091166000908152600e60205260409020805460ff1916911515919091179055565b601a546001600160a01b031681565b6001600160a01b031660009081526001602052604090205460ff1690565b6000610d318284612e9f565b6000610d318284612e87565b60008184841115611af85760405162461bcd60e51b8152600401610a2f9190612c24565b505050900390565b602e5460009060ff1615611b2057611b19848484611fd6565b9050610d31565b611b2a8483612082565b611b326120c7565b15611b3f57611b3f612116565b611b476124c9565b15611b5457611b54612524565b604080518082018252601481527f496e73756666696369656e742042616c616e63650000000000000000000000006020808301919091526001600160a01b0387166000908152600a9091529190912054611baf918490611ad4565b6001600160a01b0385166000908152600a6020526040812091909155611bd48561256a565b611bde5782611be9565b611be9858585612589565b6001600160a01b0385166000908152600a6020526040902054909150611c0f9082611ac8565b6001600160a01b038086166000908152600a60209081526040808320949094559188168152600f909152205460ff16611cb3576029546001600160a01b038681166000908152600a602052604090819020549051630a5b654b60e11b815291909216916314b6ca9691611c86918991600401612aff565b600060405180830381600087803b158015611ca057600080fd5b505af1925050508015611cb1575060015b505b6001600160a01b0384166000908152600f602052604090205460ff16611d44576029546001600160a01b038581166000908152600a602052604090819020549051630a5b654b60e11b815291909216916314b6ca9691611d17918891600401612aff565b600060405180830381600087803b158015611d3157600080fd5b505af1925050508015611d42575060015b505b602954602a546040517fffb2c4790000000000000000000000000000000000000000000000000000000081526001600160a01b039092169163ffb2c47991611d8e91600401612b92565b600060405180830381600087803b158015611da857600080fd5b505af1925050508015611db9575060015b50836001600160a01b0316856001600160a01b03167fddf252ad1be2c89b69c2b068fc378daa952ba7f163c4a11628f55a4df523b3ef83604051611dfd9190612b92565b60405180910390a3506001949350505050565b6000610d318284612ede565b6001600160a01b038084166000818152600c602090815260408083209487168084529490915280822085905551909291907f8c5be1e5ebec7d5bd14f71427d1e84f3dd0314c0f7b2291e5b200ac8c7c3b92590611e7a908690612b92565b60405180910390a35060019392505050565b6000610d318284612ebf565b602e805460ff19166001179055604080516002808252606082018352600092602083019080368337505060045482519293506001600160a01b031691839150600090611ef457634e487b7160e01b600052603260045260246000fd5b60200260200101906001600160a01b031690816001600160a01b0316815250503081600181518110611f3657634e487b7160e01b600052603260045260246000fd5b6001600160a01b039283166020918202929092010152601a546040517fb6f9de9500000000000000000000000000000000000000000000000000000000815291169063b6f9de95908590611f9590600090869088904290600401612bef565b6000604051808303818588803b158015611fae57600080fd5b505af1158015611fc2573d6000803e3d6000fd5b5050602e805460ff19169055505050505050565b604080518082018252601481527f496e73756666696369656e742042616c616e63650000000000000000000000006020808301919091526001600160a01b0386166000908152600a90915291822054612030918490611ad4565b6001600160a01b038086166000908152600a6020526040808220939093559085168152205461205f9083611ac8565b6001600160a01b0384166000908152600a60205260409020555060019392505050565b600954811115806120ab57506001600160a01b0382166000908152600e602052604090205460ff165b6111935760405162461bcd60e51b8152600401610a2f90612c77565b601b546000906001600160a01b031633148015906120e85750602e5460ff16155b80156120f65750602c5460ff165b8015610d7c575050602d54306000908152600a6020526040902054101590565b602e805460ff1916600117905560185460195460009161213591610bce565b61214157601054612144565b60005b9050600061216860026115c36014546115c386602d54611e8c90919063ffffffff16565b9050600061218182602d54611e1090919063ffffffff16565b604080516002808252606082018352929350600092909160208301908036833701905050905030816000815181106121c957634e487b7160e01b600052603260045260246000fd5b6001600160a01b03928316602091820292909201015260045482519116908290600190811061220857634e487b7160e01b600052603260045260246000fd5b6001600160a01b039283166020918202929092010152601a546040517f791ac9470000000000000000000000000000000000000000000000000000000081524792919091169063791ac9479061226b908690600090879030904290600401612e2f565b600060405180830381600087803b15801561228557600080fd5b505af1158015612299573d6000803e3d6000fd5b5050505060006122b28247611e1090919063ffffffff16565b905060006122cd6122c4886002611abc565b60145490611e10565b905060006122e260026115c38481878d611e8c565b905060006122ff836115c360125487611e8c90919063ffffffff16565b9050600061231c846115c360135488611e8c90919063ffffffff16565b9050602960009054906101000a90046001600160a01b03166001600160a01b031663d0e30db0836040518263ffffffff1660e01b81526004016000604051808303818588803b15801561236e57600080fd5b505af193505050508015612380575060015b506017546040516001600160a01b039091169082156108fc029083906000818181858888f193505050501580156123bb573d6000803e3d6000fd5b5088156124b357601a60009054906101000a90046001600160a01b03166001600160a01b031663f305d71984308c600080601660009054906101000a90046001600160a01b0316426040518863ffffffff1660e01b815260040161242496959493929190612b18565b6060604051808303818588803b15801561243d57600080fd5b505af1158015612451573d6000803e3d6000fd5b50505050506040513d601f19601f8201168201806040525081019061247691906129e8565b5050507f424db2872186fa7e7afa7a5e902ed3b49a2ef19c2f5431e672462495dd6b4506838a6040516124aa929190612e6b565b60405180910390a15b5050602e805460ff191690555050505050505050565b601b546000906001600160a01b031633148015906124ea5750602e5460ff16155b80156124f8575060225460ff165b80156125135750436027546028546125109190612e87565b11155b8015610d7c57505060265447101590565b60265460055461253d91906001600160a01b0316611e98565b4360285560265460255461255091611ac8565b6025819055602454101561172a576022805460ff19169055565b6001600160a01b03166000908152600d602052604090205460ff161590565b601554601b5460009182916125bb91906115c3906125b4906001600160a01b03898116911614611772565b8690611e8c565b306000908152600a60205260409020549091506125d89082611ac8565b306000818152600a6020526040908190209290925590516001600160a01b038716907fddf252ad1be2c89b69c2b068fc378daa952ba7f163c4a11628f55a4df523b3ef90612627908590612b92565b60405180910390a36126398382611e10565b95945050505050565b8051610d9381612f3c565b60006020828403121561265e578081fd5b8135610d3181612f3c565b6000806040838503121561267b578081fd5b823561268681612f3c565b9150602083013561269681612f3c565b809150509250929050565b6000806000606084860312156126b5578081fd5b83356126c081612f3c565b925060208401356126d081612f3c565b929592945050506040919091013590565b600080600080600080600080610100898b0312156126fd578384fd5b883561270881612f3c565b9750602089013561271881612f3c565b96506040890135955060608901359450608089013561273681612f54565b935060a089013560ff8116811461274b578384fd5b979a969950949793969295929450505060c08201359160e0013590565b6000806040838503121561277a578182fd5b823561278581612f3c565b9150602083013561269681612f54565b600080604083850312156127a7578182fd5b82356127b281612f3c565b946020939093013593505050565b6000806000606084860312156127d4578283fd5b83356127df81612f3c565b95602085013595506040909401359392505050565b60006020808385031215612806578182fd5b825167ffffffffffffffff8082111561281d578384fd5b818501915085601f830112612830578384fd5b81518181111561284257612842612f26565b8381026040518582820101818110858211171561286157612861612f26565b604052828152858101935084860182860187018a101561287f578788fd5b8795505b838610156128a85761289481612642565b855260019590950194938601938601612883565b5098975050505050505050565b6000602082840312156128c6578081fd5b8135610d3181612f54565b6000602082840312156128e2578081fd5b8151610d3181612f54565b600080604083850312156128ff578182fd5b82356127b281612f54565b6000806000806080858703121561291f578182fd5b843561292a81612f54565b966020860135965060408601359560600135945092505050565b600060208284031215612955578081fd5b8151610d3181612f3c565b600060208284031215612971578081fd5b5035919050565b6000806040838503121561298a578182fd5b82359150602083013561269681612f54565b600080604083850312156129ae578182fd5b50508035926020909101359150565b6000806000606084860312156129d1578081fd5b505081359360208301359350604090920135919050565b6000806000606084860312156129fc578081fd5b8351925060208401519150604084015190509250925092565b600080600080600060a08688031215612a2c578283fd5b505083359560208501359550604085013594606081013594506080013592509050565b6000815180845260208085019450808401835b83811015612a875781516001600160a01b031687529582019590820190600101612a62565b509495945050505050565b7f190100000000000000000000000000000000000000000000000000000000000081526002810192909252602282015260420190565b6001600160a01b0391909116815260200190565b6001600160a01b0393841681529183166020830152909116604082015260600190565b6001600160a01b03929092168252602082015260400190565b6001600160a01b039687168152602081019590955260408501939093526060840191909152909216608082015260a081019190915260c00190565b6001600160a01b039390931683526020830191909152604082015260600190565b600060208252610d316020830184612a4f565b901515815260200190565b90815260200190565b9586526001600160a01b03948516602087015292909316604085015260608401526080830191909152151560a082015260c00190565b93845260ff9290921660208401526040830152606082015260800190565b600085825260806020830152612c086080830186612a4f565b6001600160a01b03949094166040830152506060015292915050565b6000602080835283518082850152825b81811015612c5057858101830151858201604001528201612c34565b81811115612c615783604083870101525b50601f01601f1916929092016040019392505050565b60208082526011908201527f5458204c696d6974204578636565646564000000000000000000000000000000604082015260600190565b60208082526016908201527f5265666c6563746f2f696e76616c69642d6e6f6e636500000000000000000000604082015260600190565b6020808252601a908201527f5265666c6563746f2f696e76616c69642d616464726573732d30000000000000604082015260600190565b60208082526017908201527f5265666c6563746f2f696e76616c69642d7065726d6974000000000000000000604082015260600190565b60208082526014908201527f416c7265616479206c61756e6368656420626f69000000000000000000000000604082015260600190565b60208082526006908201527f214f574e45520000000000000000000000000000000000000000000000000000604082015260600190565b60208082526017908201527f5265666c6563746f2f7065726d69742d65787069726564000000000000000000604082015260600190565b6020808252600b908201527f21415554484f52495a4544000000000000000000000000000000000000000000604082015260600190565b600086825285602083015260a06040830152612e4e60a0830186612a4f565b6001600160a01b0394909416606083015250608001529392505050565b918252602082015260400190565b60ff91909116815260200190565b60008219821115612e9a57612e9a612f10565b500190565b600082612eba57634e487b7160e01b81526012600452602481fd5b500490565b6000816000190483118215151615612ed957612ed9612f10565b500290565b600082821015612ef057612ef0612f10565b500390565b6000600019821415612f0957612f09612f10565b5060010190565b634e487b7160e01b600052601160045260246000fd5b634e487b7160e01b600052604160045260246000fd5b6001600160a01b0381168114612f5157600080fd5b50565b8015158114612f5157600080fdfea2646970667358221220098525fb08f987758704c5a935ff7326a2eda29c81687eeb5fb20849a7cd852f64736f6c63430008000033608060405234801561001057600080fd5b50600080546001600160a01b031916331790556122db806100326000396000f3fe608060405260043610620000ce5760003560e01c80639be572f6116200007f578063cd78f2fc1162000055578063cd78f2fc146200023a578063d0e30db0146200025f578063ffb2c479146200026957620000ce565b80639be572f614620001b5578063bc23725814620001dc578063c322a355146200021357620000ce565b806379c7a9dd11620000b557806379c7a9dd1462000137578063993df8c6146200016b5780639a236fd5146200019057620000ce565b806314b6ca9614620000d357806338081d5014620000fa575b600080fd5b348015620000e057600080fd5b50620000f8620000f236600462000f71565b6200028e565b005b3480156200010757600080fd5b506200011f6200011936600462001081565b620003ec565b6040516200012e91906200109a565b60405180910390f35b3480156200014457600080fd5b506200015c6200015636600462000f28565b62000417565b6040516200012e919062001139565b3480156200017857600080fd5b506200011f6200018a36600462000f0b565b6200064f565b3480156200019d57600080fd5b506200015c620001af36600462000f0b565b62000670565b348015620001c257600080fd5b50620001cd6200094c565b6040516200012e91906200122c565b348015620001e957600080fd5b5062000201620001fb36600462000f0b565b62000952565b6040516200012e949392919062001144565b3480156200022057600080fd5b506200022b62000a1b565b6040516200012e9190620010ea565b3480156200024757600080fd5b50620000f86200025936600462000f9d565b62000a7f565b620000f862000b2c565b3480156200027657600080fd5b50620000f86200028836600462001081565b62000c8f565b6000546001600160a01b03163314620002a657600080fd5b60025460005b81811015620003e6576001600060028381548110620002db57634e487b7160e01b600052603260045260246000fd5b60009182526020808320909101546001600160a01b0390811684529083019390935260409091019020541615620003d15760016000600283815481106200033257634e487b7160e01b600052603260045260246000fd5b60009182526020808320909101546001600160a01b03908116845290830193909352604091820190205490517f14b6ca960000000000000000000000000000000000000000000000000000000081529116906314b6ca96906200039c9087908790600401620010d1565b600060405180830381600087803b158015620003b757600080fd5b505af1158015620003cc573d6000803e3d6000fd5b505050505b80620003dd81620012ea565b915050620002ac565b50505050565b60028181548110620003fd57600080fd5b6000918252602090912001546001600160a01b0316905081565b600080546001600160a01b031633146200043057600080fd5b6001600160a01b03831660009081526001602052604090206003015460ff1615620004785760405162461bcd60e51b81526004016200046f9062001198565b60405180910390fd5b60008390506000858585604051620004909062000dfa565b6200049e93929190620010ae565b604051809103906000f080158015620004bb573d6000803e3d6000fd5b5060028054600180820183557f405787fa12a823e0f2b7631cc41b3ba8828b3321ca811111fa75cd3aa3bb5ace909101805473ffffffffffffffffffffffffffffffffffffffff199081166001600160a01b038b8116918217909355600090815260208490526040902080549091169185169190911790559054919250620005439162001264565b60016000876001600160a01b03166001600160a01b0316815260200190815260200160002060010181905550816001600160a01b03166306fdde036040518163ffffffff1660e01b815260040160006040518083038186803b158015620005a957600080fd5b505afa158015620005be573d6000803e3d6000fd5b505050506040513d6000823e601f3d908101601f19168201604052620005e8919081019062000fd2565b6001600160a01b038616600090815260016020908152604090912082516200061b93600290920192919091019062000e08565b5050506001600160a01b0383166000908152600160208190526040909120600301805460ff19168217905590509392505050565b6001600160a01b03808216600090815260016020526040902054165b919050565b600080546001600160a01b031633146200068957600080fd5b6001600160a01b03821660009081526001602052604090206003015460ff16620006c75760405162461bcd60e51b81526004016200046f90620011f5565b6001600160a01b0380831660009081526001602081815260408084208151608081018352815490961686529283015491850191909152600282018054939493918401916200071590620012ad565b80601f01602080910402602001604051908101604052809291908181526020018280546200074390620012ad565b8015620007945780601f10620007685761010080835404028352916020019162000794565b820191906000526020600020905b8154815290600101906020018083116200077657829003601f168201915b50505091835250506003919091015460ff161515602090910152600254909150620007c29060019062001264565b81602001511462000895576002805460009190620007e39060019062001264565b815481106200080257634e487b7160e01b600052603260045260246000fd5b9060005260206000200160009054906101000a90046001600160a01b031690508060028360200151815481106200084957634e487b7160e01b600052603260045260246000fd5b6000918252602080832091909101805473ffffffffffffffffffffffffffffffffffffffff19166001600160a01b03948516179055848101519390921681526001918290526040902001555b6001600160a01b03831660009081526001602081905260408220805473ffffffffffffffffffffffffffffffffffffffff1916815590810182905590620008e0600283018262000e97565b50600301805460ff1916905560028054620008fe9060019062001264565b815481106200091d57634e487b7160e01b600052603260045260246000fd5b6000918252602090912001805473ffffffffffffffffffffffffffffffffffffffff1916905550600192915050565b60025490565b60016020819052600091825260409091208054918101546002820180546001600160a01b03909416939192916200098990620012ad565b80601f0160208091040260200160405190810160405280929190818152602001828054620009b790620012ad565b801562000a085780601f10620009dc5761010080835404028352916020019162000a08565b820191906000526020600020905b815481529060010190602001808311620009ea57829003601f168201915b5050506003909301549192505060ff1684565b6060600280548060200260200160405190810160405280929190818152602001828054801562000a7557602002820191906000526020600020905b81546001600160a01b0316815260019091019060200180831162000a56575b5050505050905090565b6000546001600160a01b0316331462000a9757600080fd5b6001600160a01b03808416600090815260016020526040908190205490517f2d48e896000000000000000000000000000000000000000000000000000000008152911690632d48e8969062000af3908590859060040162001235565b600060405180830381600087803b15801562000b0e57600080fd5b505af115801562000b23573d6000803e3d6000fd5b50505050505050565b6000546001600160a01b0316331462000b4457600080fd5b600254600062000b55348362000de5565b905060005b8281101562000c8a57600160006002838154811062000b8957634e487b7160e01b600052603260045260246000fd5b60009182526020808320909101546001600160a01b039081168452908301939093526040909101902054161562000c7557600160006002838154811062000be057634e487b7160e01b600052603260045260246000fd5b60009182526020808320909101546001600160a01b03908116845290830193909352604091820181205482517fd0e30db0000000000000000000000000000000000000000000000000000000008152925193169263d0e30db0928692600480830193919282900301818588803b15801562000c5a57600080fd5b505af115801562000c6f573d6000803e3d6000fd5b50505050505b8062000c8181620012ea565b91505062000b5a565b505050565b6000546001600160a01b0316331462000ca757600080fd5b60025460005b8181101562000c8a57600160006002838154811062000cdc57634e487b7160e01b600052603260045260246000fd5b60009182526020808320909101546001600160a01b039081168452908301939093526040909101902054161562000dd057600160006002838154811062000d3357634e487b7160e01b600052603260045260246000fd5b60009182526020808320909101546001600160a01b03908116845290830193909352604091820190205490517fffb2c47900000000000000000000000000000000000000000000000000000000815291169063ffb2c4799062000d9b9086906004016200122c565b600060405180830381600087803b15801562000db657600080fd5b505af115801562000dcb573d6000803e3d6000fd5b505050505b8062000ddc81620012ea565b91505062000cad565b600062000df3828462001243565b9392505050565b610f71806200133583390190565b82805462000e1690620012ad565b90600052602060002090601f01602090048101928262000e3a576000855562000e85565b82601f1062000e5557805160ff191683800117855562000e85565b8280016001018555821562000e85579182015b8281111562000e8557825182559160200191906001019062000e68565b5062000e9392915062000edc565b5090565b50805462000ea590620012ad565b6000825580601f1062000eb9575062000ed9565b601f01602090049060005260206000209081019062000ed9919062000edc565b50565b5b8082111562000e93576000815560010162000edd565b80356001600160a01b03811681146200066b57600080fd5b60006020828403121562000f1d578081fd5b62000df38262000ef3565b60008060006060848603121562000f3d578182fd5b62000f488462000ef3565b925062000f586020850162000ef3565b915062000f686040850162000ef3565b90509250925092565b6000806040838503121562000f84578182fd5b62000f8f8362000ef3565b946020939093013593505050565b60008060006060848603121562000fb2578283fd5b62000fbd8462000ef3565b95602085013595506040909401359392505050565b60006020828403121562000fe4578081fd5b815167ffffffffffffffff8082111562000ffc578283fd5b818401915084601f83011262001010578283fd5b8151818111156200102557620010256200131e565b604051601f8201601f1916810160200183811182821017156200104c576200104c6200131e565b60405281815283820160200187101562001064578485fd5b620010778260208301602087016200127e565b9695505050505050565b60006020828403121562001093578081fd5b5035919050565b6001600160a01b0391909116815260200190565b6001600160a01b0393841681529183166020830152909116604082015260600190565b6001600160a01b03929092168252602082015260400190565b6020808252825182820181905260009190848201906040850190845b818110156200112d5783516001600160a01b03168352928401929184019160010162001106565b50909695505050505050565b901515815260200190565b60006001600160a01b03861682528460208301526080604083015283518060808401526200117a8160a08501602088016200127e565b921515606083015250601f91909101601f19160160a0019392505050565b60208082526023908201527f5265666c6563746f2f4469737472696275746f7220616c72656164792065786960408201527f7374730000000000000000000000000000000000000000000000000000000000606082015260800190565b6020808252601e908201527f5265666c6563746f2f4469737472696275746f72206e6f7420666f756e640000604082015260600190565b90815260200190565b918252602082015260400190565b6000826200125f57634e487b7160e01b81526012600452602481fd5b500490565b60008282101562001279576200127962001308565b500390565b60005b838110156200129b57818101518382015260200162001281565b83811115620003e65750506000910152565b600281046001821680620012c257607f821691505b60208210811415620012e457634e487b7160e01b600052602260045260246000fd5b50919050565b600060001982141562001301576200130162001308565b5060010190565b634e487b7160e01b600052601160045260246000fd5b634e487b7160e01b600052604160045260246000fdfe60806040526ec097ce7bc90715b34b9f1000000000600c55610e10600d55670de0b6b3a7640000600e5534801561003557600080fd5b50604051610f71380380610f71833981016040819052610054916100e6565b6001600160a01b03831661007c577310ed43c718714eb63d5aa57b78b54704e256024e61007e565b825b600380546001600160a01b03199081166001600160a01b039384161790915560008054339083161790556001805482169483169490941790935560028054909316911617905550610128565b80516001600160a01b03811681146100e157600080fd5b919050565b6000806000606084860312156100fa578283fd5b610103846100ca565b9250610111602085016100ca565b915061011f604085016100ca565b90509250925092565b610e3a806101376000396000f3fe6080604052600436106100dd5760003560e01c8063ce7c2ac21161007f578063efca2eed11610059578063efca2eed146101fa578063f0fc6bca1461020f578063ffb2c47914610224578063ffd49c8414610244576100dd565b8063ce7c2ac2146101ae578063d0e30db0146101dd578063e2d2e219146101e5576100dd565b80632d48e896116100bb5780632d48e8961461014f5780633a98ef391461016f5780634fab0ae814610184578063997664d714610199576100dd565b806311ce023d146100e257806314b6ca961461010d57806328fd31981461012f575b600080fd5b3480156100ee57600080fd5b506100f7610259565b6040516101049190610d46565b60405180910390f35b34801561011957600080fd5b5061012d610128366004610c16565b61025f565b005b34801561013b57600080fd5b506100f761014a366004610bfc565b610384565b34801561015b57600080fd5b5061012d61016a366004610c8f565b610410565b34801561017b57600080fd5b506100f7610432565b34801561019057600080fd5b506100f7610438565b3480156101a557600080fd5b506100f761043e565b3480156101ba57600080fd5b506101ce6101c9366004610bfc565b610444565b60405161010493929190610d4f565b61012d610465565b3480156101f157600080fd5b506100f76106f1565b34801561020657600080fd5b506100f76106f7565b34801561021b57600080fd5b5061012d6106fd565b34801561023057600080fd5b5061012d61023f366004610c5f565b610708565b34801561025057600080fd5b506100f7610827565b600c5481565b6000546001600160a01b0316331461027657600080fd5b6001600160a01b0382166000908152600760205260409020541561029d5761029d8261082d565b6000811180156102c357506001600160a01b038216600090815260076020526040902054155b156102d6576102d182610971565b610309565b801580156102fb57506001600160a01b03821660009081526007602052604090205415155b1561030957610309826109df565b6001600160a01b03821660009081526007602052604090205460085461033a91839161033491610b46565b90610b59565b6008556001600160a01b038216600090815260076020526040902081905561036181610b65565b6001600160a01b0390921660009081526007602052604090206001019190915550565b6001600160a01b0381166000908152600760205260408120546103a95750600061040b565b6001600160a01b0382166000908152600760205260408120546103cb90610b65565b6001600160a01b0384166000908152600760205260409020600101549091508082116103fc5760009250505061040b565b6104068282610b46565b925050505b919050565b6000546001600160a01b0316331461042757600080fd5b600d91909155600e55565b60085481565b600e5481565b60095481565b60076020526000908152604090208054600182015460029092015490919083565b6000546001600160a01b0316331461047c57600080fd5b6001546040516370a0823160e01b81526000916001600160a01b0316906370a08231906104ad903090600401610cb0565b60206040518083038186803b1580156104c557600080fd5b505afa1580156104d9573d6000803e3d6000fd5b505050506040513d601f19601f820116820180604052508101906104fd9190610c77565b6040805160028082526060820183529293506000929091602083019080368337505060025482519293506001600160a01b03169183915060009061055157634e487b7160e01b600052603260045260246000fd5b6001600160a01b039283166020918202929092010152600180548351921691839190811061058f57634e487b7160e01b600052603260045260246000fd5b6001600160a01b0392831660209182029290920101526003546040517fb6f9de9500000000000000000000000000000000000000000000000000000000815291169063b6f9de959034906105ee90600090869030904290600401610cdd565b6000604051808303818588803b15801561060757600080fd5b505af115801561061b573d6000803e3d6000fd5b50506001546040516370a0823160e01b8152600094506106af93508692506001600160a01b03909116906370a0823190610659903090600401610cb0565b60206040518083038186803b15801561067157600080fd5b505afa158015610685573d6000803e3d6000fd5b505050506040513d601f19601f820116820180604052508101906106a99190610c77565b90610b46565b6009549091506106bf9082610b59565b600955600854600c546106e9916106e0916106da9085610b88565b90610b94565b600b5490610b59565b600b55505050565b600b5481565b600a5481565b6107063361082d565b565b6000546001600160a01b0316331461071f57600080fd5b6004548061072d5750610824565b6000805a905060005b848310801561074457508381105b1561081f5783600f5410610758576000600f555b6107986004600f548154811061077e57634e487b7160e01b600052603260045260246000fd5b6000918252602090912001546001600160a01b0316610ba0565b156107dd576107dd6004600f54815481106107c357634e487b7160e01b600052603260045260246000fd5b6000918252602090912001546001600160a01b031661082d565b6107f26107eb5a8490610b46565b8490610b59565b92505a600f8054919350600061080783610dd3565b9190505550808061081790610dd3565b915050610736565b505050505b50565b600d5481565b6001600160a01b03811660009081526007602052604090205461084f57610824565b600061085a82610384565b9050801561096d57600a5461086f9082610b59565b600a556001546040517fa9059cbb0000000000000000000000000000000000000000000000000000000081526001600160a01b039091169063a9059cbb906108bd9085908590600401610cc4565b602060405180830381600087803b1580156108d757600080fd5b505af11580156108eb573d6000803e3d6000fd5b505050506040513d601f19601f8201168201806040525081019061090f9190610c3f565b506001600160a01b038216600090815260066020908152604080832042905560079091529020600201546109439082610b59565b6001600160a01b038316600090815260076020526040902060028101919091555461036190610b65565b5050565b600480546001600160a01b039092166000818152600560205260408120849055600184018355919091527f8a35acfbc15ff81a39ae7d344fd709f28e8600b4aa8c65c6b64bfe7fe36bd19b909101805473ffffffffffffffffffffffffffffffffffffffff19169091179055565b600480546109ef90600190610dbc565b81548110610a0d57634e487b7160e01b600052603260045260246000fd5b60009182526020808320909101546001600160a01b0384811684526005909252604090922054600480549290931692918110610a5957634e487b7160e01b600052603260045260246000fd5b6000918252602080832091909101805473ffffffffffffffffffffffffffffffffffffffff19166001600160a01b03948516179055918316815260059182905260408120546004805491939291610ab290600190610dbc565b81548110610ad057634e487b7160e01b600052603260045260246000fd5b60009182526020808320909101546001600160a01b031683528201929092526040019020556004805480610b1457634e487b7160e01b600052603160045260246000fd5b6000828152602090208101600019908101805473ffffffffffffffffffffffffffffffffffffffff1916905501905550565b6000610b528284610dbc565b9392505050565b6000610b528284610d65565b6000610b82600c546106da600b5485610b8890919063ffffffff16565b92915050565b6000610b528284610d9d565b6000610b528284610d7d565b600d546001600160a01b03821660009081526006602052604081205490914291610bca9190610d65565b108015610b825750600e54610bde83610384565b1192915050565b80356001600160a01b038116811461040b57600080fd5b600060208284031215610c0d578081fd5b610b5282610be5565b60008060408385031215610c28578081fd5b610c3183610be5565b946020939093013593505050565b600060208284031215610c50578081fd5b81518015158114610b52578182fd5b600060208284031215610c70578081fd5b5035919050565b600060208284031215610c88578081fd5b5051919050565b60008060408385031215610ca1578182fd5b50508035926020909101359150565b6001600160a01b0391909116815260200190565b6001600160a01b03929092168252602082015260400190565b600060808201868352602060808185015281875180845260a0860191508289019350845b81811015610d265784516001600160a01b031683529383019391830191600101610d01565b50506001600160a01b039690961660408501525050506060015292915050565b90815260200190565b9283526020830191909152604082015260600190565b60008219821115610d7857610d78610dee565b500190565b600082610d9857634e487b7160e01b81526012600452602481fd5b500490565b6000816000190483118215151615610db757610db7610dee565b500290565b600082821015610dce57610dce610dee565b500390565b6000600019821415610de757610de7610dee565b5060010190565b634e487b7160e01b600052601160045260246000fdfea2646970667358221220f7ced21a8a6ea352ae9dd54945032d68e71e47c2c9db36770ca4f00925a1df2664736f6c63430008000033a2646970667358221220b3e8cf92220744f75c0aee35ae849b169cc4443e009d834122c41e6d300b29d064736f6c63430008000033",
  "immutableReferences": {},
  "source": "//SPDX-License-Identifier: MIT\npragma solidity ^0.8.0;\n\nimport \"./libs/IBEP20.sol\";\nimport \"./libs/Auth.sol\";\nimport \"./libs/SafeMath.sol\";\nimport \"./libs/IDEX.sol\";\nimport \"./DistributorFactory.sol\";\nimport \"./DividendDistributor.sol\";\n\ncontract Reflecto is IBEP20, Auth {\n    using SafeMath for uint256;\n\n    uint256 public constant MASK = type(uint128).max;\n    address BUSD;\n    address Crypter;\n    address public WBNB;\n    address DEAD = 0x000000000000000000000000000000000000dEaD;\n    address ZERO = 0x0000000000000000000000000000000000000000;\n    address DEAD_NON_CHECKSUM = 0x000000000000000000000000000000000000dEaD;\n\n    string constant _name = \"REFLECTO\";\n    string constant _symbol = \"REFLECTO\";\n    uint8 constant _decimals = 9;\n\n    uint256 _totalSupply = 1_000_000_000_000_000 * (10**_decimals);\n    uint256 public _maxTxAmount = _totalSupply.div(400); // 0.25%\n\n    mapping(address => uint256) _balances;\n    mapping(address => uint256) public nonces;\n    mapping(address => mapping(address => uint256)) _allowances;\n\n    mapping(address => bool) isFeeExempt;\n    mapping(address => bool) isTxLimitExempt;\n    mapping(address => bool) isDividendExempt;\n\n    uint256 liquidityFee = 200;\n    uint256 buybackFee = 300;\n    uint256 reflectionFee = 1000;\n    uint256 marketingFee = 100;\n    uint256 totalFee = 1600;\n    uint256 feeDenominator = 10000;\n\n    address public autoLiquidityReceiver;\n    address public marketingFeeReceiver;\n\n    uint256 targetLiquidity = 25;\n    uint256 targetLiquidityDenominator = 100;\n\n    IDEXRouter public router;\n    address public pair;\n\n    uint256 public launchedAt;\n    uint256 public launchedAtTimestamp;\n\n    uint256 buybackMultiplierNumerator = 200;\n    uint256 buybackMultiplierDenominator = 100;\n    uint256 buybackMultiplierTriggeredAt;\n    uint256 buybackMultiplierLength = 30 minutes;\n\n    bool public autoBuybackEnabled = false;\n    mapping(address => bool) buyBacker;\n    uint256 autoBuybackCap;\n    uint256 autoBuybackAccumulator;\n    uint256 autoBuybackAmount;\n    uint256 autoBuybackBlockPeriod;\n    uint256 autoBuybackBlockLast;\n\n    DistributorFactory distributor;\n    // address public distributorAddress;\n    uint256 distributorGas = 500000;\n\n    // --- EIP712 niceties ---\n    bytes32 public DOMAIN_SEPARATOR;\n    // bytes32 public constant PERMIT_TYPEHASH = keccak256(\"Permit(address holder,address spender,uint256 nonce,uint256 expiry,bool allowed)\");\n    bytes32 public constant PERMIT_TYPEHASH =\n        0xea2aa0a1be11a07ed86d755c93467f4f82362b452371d1ba94d1715123511acb;\n\n    bool public swapEnabled = true;\n    uint256 public swapThreshold = _totalSupply / 2000; // 0.005%\n    bool inSwap;\n    modifier swapping() {\n        inSwap = true;\n        _;\n        inSwap = false;\n    }\n\n    constructor(\n        address _dexRouter,\n        address _WBNBinput\n    ) Auth(msg.sender) {\n        WBNB = _WBNBinput;\n\n        router = IDEXRouter(_dexRouter);\n        pair = IDEXFactory(router.factory()).createPair(WBNB, address(this));\n        _allowances[address(this)][address(router)] = _totalSupply;\n        WBNB = router.WETH();\n        distributor = new DistributorFactory();\n\n        isFeeExempt[msg.sender] = true;\n        isTxLimitExempt[msg.sender] = true;\n        isDividendExempt[pair] = true;\n        isDividendExempt[address(this)] = true;\n        isDividendExempt[DEAD] = true;\n        buyBacker[msg.sender] = true;\n\n        autoLiquidityReceiver = msg.sender;\n        marketingFeeReceiver = msg.sender;\n\n        approve(_dexRouter, _totalSupply);\n        approve(address(pair), _totalSupply);\n        _balances[msg.sender] = _totalSupply;\n\n        DOMAIN_SEPARATOR = keccak256(\n            abi.encode(\n                keccak256(\n                    \"EIP712Domain(string name,string version,uint256 chainId,address verifyingContract)\"\n                ),\n                keccak256(bytes(_name)),\n                keccak256(bytes(version())),\n                block.chainid,\n                address(this)\n            )\n        );\n\n        emit Transfer(address(0), msg.sender, _totalSupply);\n    }\n\n    function addDistributor(address _dexRouter, address _BEP_TOKEN)\n        external\n        authorized\n    {\n        distributor.addDistributor(_dexRouter, _BEP_TOKEN, WBNB);\n    }\n\n    function deleteDistributor(address _BEP_TOKEN) external authorized {\n        distributor.deleteDistributor(_BEP_TOKEN);\n    }\n\n    function getDistributersBEP20Keys() external view returns (address[] memory)  {\n        return distributor.getDistributorsAddresses();\n    }\n\n    function getDistributer(address _BEP_TOKEN) external view returns (DividendDistributor)  {\n        return distributor.getDistributor(_BEP_TOKEN);\n    }\n\n    /// @dev Setting the version as a function so that it can be overriden\n    function version() public pure virtual returns (string memory) {\n        return \"1\";\n    }\n\n    function getChainID() external view returns (uint256) {\n        return block.chainid;\n    }\n\n    receive() external payable {}\n    function donate() external payable{}\n\n    function totalSupply() external view override returns (uint256) {\n        return _totalSupply;\n    }\n\n    function decimals() external pure override returns (uint8) {\n        return _decimals;\n    }\n\n    function symbol() external pure override returns (string memory) {\n        return _symbol;\n    }\n\n    function name() external pure override returns (string memory) {\n        return _name;\n    }\n\n    function getOwner() external view override returns (address) {\n        return owner;\n    }\n\n    modifier onlyBuybacker() {\n        require(buyBacker[msg.sender] == true, \"\");\n        _;\n    }\n\n    function balanceOf(address account) public view override returns (uint256) {\n        return _balances[account];\n    }\n\n    function allowance(address holder, address spender)\n        external\n        view\n        override\n        returns (uint256)\n    {\n        return _allowances[holder][spender];\n    }\n\n    function approve(address spender, uint256 amount)\n        public\n        override\n        returns (bool)\n    {\n        _allowances[msg.sender][spender] = amount;\n        emit Approval(msg.sender, spender, amount);\n        return true;\n    }\n\n    function approveMax(address spender) external returns (bool) {\n        return approve(spender, _totalSupply);\n    }\n\n    function transfer(address recipient, uint256 amount)\n        external\n        override\n        returns (bool)\n    {\n        return _transferFrom(msg.sender, recipient, amount);\n    }\n\n    function transferFrom(\n        address sender,\n        address recipient,\n        uint256 amount\n    ) external override returns (bool) {\n        if (_allowances[sender][msg.sender] != _totalSupply) {\n            _allowances[sender][msg.sender] = _allowances[sender][msg.sender]\n                .sub(amount, \"Insufficient Allowance\");\n        }\n\n        return _transferFrom(sender, recipient, amount);\n    }\n\n    function _transferFrom(\n        address sender,\n        address recipient,\n        uint256 amount\n    ) internal returns (bool) {\n        if (inSwap) {\n            return _basicTransfer(sender, recipient, amount);\n        }\n\n        checkTxLimit(sender, amount);\n        //\n        if (shouldSwapBack()) {\n            swapBack();\n        }\n        if (shouldAutoBuyback()) {\n            triggerAutoBuyback();\n        }\n\n        //        if(!launched() && recipient == pair){ require(_balances[sender] > 0); launch(); }\n\n        _balances[sender] = _balances[sender].sub(\n            amount,\n            \"Insufficient Balance\"\n        );\n\n        uint256 amountReceived = shouldTakeFee(sender)\n            ? takeFee(sender, recipient, amount)\n            : amount;\n\n        _balances[recipient] = _balances[recipient].add(amountReceived);\n\n        if (!isDividendExempt[sender]) {\n            try distributor.setShare(sender, _balances[sender]) {} catch {}\n        }\n        if (!isDividendExempt[recipient]) {\n            try\n                distributor.setShare(recipient, _balances[recipient])\n            {} catch {}\n        }\n\n        try distributor.process(distributorGas) {} catch {}\n\n        emit Transfer(sender, recipient, amountReceived);\n        return true;\n    }\n\n    function _basicTransfer(\n        address sender,\n        address recipient,\n        uint256 amount\n    ) internal returns (bool) {\n        _balances[sender] = _balances[sender].sub(\n            amount,\n            \"Insufficient Balance\"\n        );\n        _balances[recipient] = _balances[recipient].add(amount);\n        //        emit Transfer(sender, recipient, amount);\n        return true;\n    }\n\n    function checkTxLimit(address sender, uint256 amount) internal view {\n        require(\n            amount <= _maxTxAmount || isTxLimitExempt[sender],\n            \"TX Limit Exceeded\"\n        );\n    }\n\n    function shouldTakeFee(address sender) internal view returns (bool) {\n        return !isFeeExempt[sender];\n    }\n\n    function getTotalFee(bool selling) public view returns (uint256) {\n        if (launchedAt + 1 >= block.number) {\n            return feeDenominator.sub(1);\n        }\n        if (selling) {\n            return getMultipliedFee();\n        }\n        return totalFee;\n    }\n\n    function getMultipliedFee() public view returns (uint256) {\n        if (launchedAtTimestamp + 1 days > block.timestamp) {\n            return totalFee.mul(18000).div(feeDenominator);\n        } else if (\n            buybackMultiplierTriggeredAt.add(buybackMultiplierLength) >\n            block.timestamp\n        ) {\n            uint256 remainingTime = buybackMultiplierTriggeredAt\n                .add(buybackMultiplierLength)\n                .sub(block.timestamp);\n            uint256 feeIncrease = totalFee\n                .mul(buybackMultiplierNumerator)\n                .div(buybackMultiplierDenominator)\n                .sub(totalFee);\n            return\n                totalFee.add(\n                    feeIncrease.mul(remainingTime).div(buybackMultiplierLength)\n                );\n        }\n        return totalFee;\n    }\n\n    function takeFee(\n        address sender,\n        address receiver,\n        uint256 amount\n    ) internal returns (uint256) {\n        uint256 feeAmount = amount.mul(getTotalFee(receiver == pair)).div(\n            feeDenominator\n        );\n\n        _balances[address(this)] = _balances[address(this)].add(feeAmount);\n        emit Transfer(sender, address(this), feeAmount);\n\n        return amount.sub(feeAmount);\n    }\n\n    function shouldSwapBack() internal view returns (bool) {\n        return\n            msg.sender != pair &&\n            !inSwap &&\n            swapEnabled &&\n            _balances[address(this)] >= swapThreshold;\n    }\n\n    function swapBack() internal swapping {\n        uint256 dynamicLiquidityFee = isOverLiquified(\n            targetLiquidity,\n            targetLiquidityDenominator\n        )\n            ? 0\n            : liquidityFee;\n        uint256 amountToLiquify = swapThreshold\n            .mul(dynamicLiquidityFee)\n            .div(totalFee)\n            .div(2);\n        uint256 amountToSwap = swapThreshold.sub(amountToLiquify);\n\n        address[] memory path = new address[](2);\n        path[0] = address(this);\n        path[1] = WBNB;\n        uint256 balanceBefore = address(this).balance;\n\n        router.swapExactTokensForETHSupportingFeeOnTransferTokens(\n            amountToSwap,\n            0,\n            path,\n            address(this),\n            block.timestamp\n        );\n\n        uint256 amountBNB = address(this).balance.sub(balanceBefore);\n\n        uint256 totalBNBFee = totalFee.sub(dynamicLiquidityFee.div(2));\n\n        uint256 amountBNBLiquidity = amountBNB\n            .mul(dynamicLiquidityFee)\n            .div(totalBNBFee)\n            .div(2);\n        uint256 amountBNBReflection = amountBNB.mul(reflectionFee).div(\n            totalBNBFee\n        );\n        uint256 amountBNBMarketing = amountBNB.mul(marketingFee).div(\n            totalBNBFee\n        );\n\n        try distributor.deposit{value: amountBNBReflection}() {} catch {}\n        payable(marketingFeeReceiver).transfer(amountBNBMarketing);\n\n        if (amountToLiquify > 0) {\n            router.addLiquidityETH{value: amountBNBLiquidity}(\n                address(this),\n                amountToLiquify,\n                0,\n                0,\n                autoLiquidityReceiver,\n                block.timestamp\n            );\n            emit AutoLiquify(amountBNBLiquidity, amountToLiquify);\n        }\n    }\n\n    function shouldAutoBuyback() internal view returns (bool) {\n        return\n            msg.sender != pair &&\n            !inSwap &&\n            autoBuybackEnabled &&\n            autoBuybackBlockLast + autoBuybackBlockPeriod <= block.number && // After N blocks from last buyback\n            address(this).balance >= autoBuybackAmount;\n    }\n\n    function triggerZeusBuyback(uint256 amount, bool triggerBuybackMultiplier)\n        external\n        authorized\n    {\n        buyTokens(amount, DEAD);\n        if (triggerBuybackMultiplier) {\n            buybackMultiplierTriggeredAt = block.timestamp;\n            emit BuybackMultiplierActive(buybackMultiplierLength);\n        }\n    }\n\n    function clearBuybackMultiplier() external authorized {\n        buybackMultiplierTriggeredAt = 0;\n    }\n\n    function triggerAutoBuyback() internal {\n        buyTokens(autoBuybackAmount, DEAD);\n        autoBuybackBlockLast = block.number;\n        autoBuybackAccumulator = autoBuybackAccumulator.add(autoBuybackAmount);\n        if (autoBuybackAccumulator > autoBuybackCap) {\n            autoBuybackEnabled = false;\n        }\n    }\n\n    function buyTokens(uint256 amount, address to) internal swapping {\n        address[] memory path = new address[](2);\n        path[0] = WBNB;\n        path[1] = address(this);\n\n        router.swapExactETHForTokensSupportingFeeOnTransferTokens{\n            value: amount\n        }(0, path, to, block.timestamp);\n    }\n\n    function setAutoBuybackSettings(\n        bool _enabled,\n        uint256 _cap,\n        uint256 _amount,\n        uint256 _period\n    ) external authorized {\n        autoBuybackEnabled = _enabled;\n        autoBuybackCap = _cap;\n        autoBuybackAccumulator = 0;\n        autoBuybackAmount = _amount;\n        autoBuybackBlockPeriod = _period;\n        autoBuybackBlockLast = block.number;\n    }\n\n    function setBuybackMultiplierSettings(\n        uint256 numerator,\n        uint256 denominator,\n        uint256 length\n    ) external authorized {\n        require(numerator / denominator <= 2 && numerator > denominator);\n        buybackMultiplierNumerator = numerator;\n        buybackMultiplierDenominator = denominator;\n        buybackMultiplierLength = length;\n    }\n\n    function launched() internal view returns (bool) {\n        return launchedAt != 0;\n    }\n\n    function launch() public authorized {\n        require(launchedAt == 0, \"Already launched boi\");\n        launchedAt = block.number;\n        launchedAtTimestamp = block.timestamp;\n    }\n\n    function setTxLimit(uint256 amount) external authorized {\n        require(amount >= _totalSupply / 1000);\n        _maxTxAmount = amount;\n    }\n\n    function setIsDividendExempt(address holder, bool exempt)\n        external\n        authorized\n    {\n        require(holder != address(this) && holder != pair);\n        isDividendExempt[holder] = exempt;\n        if (exempt) {\n            distributor.setShare(holder, 0);\n        } else {\n            distributor.setShare(holder, _balances[holder]);\n        }\n    }\n\n    function setIsFeeExempt(address holder, bool exempt) external authorized {\n        isFeeExempt[holder] = exempt;\n    }\n\n    function setIsTxLimitExempt(address holder, bool exempt)\n        external\n        authorized\n    {\n        isTxLimitExempt[holder] = exempt;\n    }\n\n    function setFees(\n        uint256 _liquidityFee,\n        uint256 _buybackFee,\n        uint256 _reflectionFee,\n        uint256 _marketingFee,\n        uint256 _feeDenominator\n    ) external authorized {\n        liquidityFee = _liquidityFee;\n        buybackFee = _buybackFee;\n        reflectionFee = _reflectionFee;\n        marketingFee = _marketingFee;\n        totalFee = _liquidityFee.add(_buybackFee).add(_reflectionFee).add(\n            _marketingFee\n        );\n        feeDenominator = _feeDenominator;\n        require(totalFee < feeDenominator / 4);\n    }\n\n    function setFeeReceivers(\n        address _autoLiquidityReceiver,\n        address _marketingFeeReceiver\n    ) external authorized {\n        autoLiquidityReceiver = _autoLiquidityReceiver;\n        marketingFeeReceiver = _marketingFeeReceiver;\n    }\n\n    function setSwapBackSettings(bool _enabled, uint256 _amount)\n        external\n        authorized\n    {\n        swapEnabled = _enabled;\n        swapThreshold = _amount;\n    }\n\n    function setTargetLiquidity(uint256 _target, uint256 _denominator)\n        external\n        authorized\n    {\n        targetLiquidity = _target;\n        targetLiquidityDenominator = _denominator;\n    }\n\n    function setDistributionCriteria(\n        address _BEP_TOKEN,\n        uint256 _minPeriod,\n        uint256 _minDistribution\n    ) external authorized {\n        distributor.setDistributionCriteria(\n            _BEP_TOKEN,\n            _minPeriod,\n            _minDistribution\n        );\n    }\n\n    function setDistributorSettings(uint256 gas) external authorized {\n        require(gas < 999999);\n        distributorGas = gas;\n    }\n\n    function getCirculatingSupply() public view returns (uint256) {\n        return _totalSupply.sub(balanceOf(DEAD)).sub(balanceOf(ZERO));\n    }\n\n    function getLiquidityBacking(uint256 accuracy)\n        public\n        view\n        returns (uint256)\n    {\n        return accuracy.mul(balanceOf(pair).mul(2)).div(getCirculatingSupply());\n    }\n\n    function isOverLiquified(uint256 target, uint256 accuracy)\n        public\n        view\n        returns (bool)\n    {\n        return getLiquidityBacking(accuracy) > target;\n    }\n\n    /**\n     * @dev Sets the allowance granted to `spender` by `owner`.\n     *\n     * Emits an {Approval} event indicating the updated allowance.\n     */\n    function _setAllowance(\n        address owner,\n        address spender,\n        uint256 wad\n    ) internal virtual returns (bool) {\n        _allowances[owner][spender] = wad;\n        emit Approval(owner, spender, wad);\n\n        return true;\n    }\n\n    // --- Approve by signature ---\n    function permit(\n        address holder,\n        address spender,\n        uint256 nonce,\n        uint256 expiry,\n        bool allowed,\n        uint8 v,\n        bytes32 r,\n        bytes32 s\n    ) external {\n        bytes32 digest = keccak256(\n            abi.encodePacked(\n                \"\\x19\\x01\",\n                DOMAIN_SEPARATOR,\n                keccak256(\n                    abi.encode(\n                        PERMIT_TYPEHASH,\n                        holder,\n                        spender,\n                        nonce,\n                        expiry,\n                        allowed\n                    )\n                )\n            )\n        );\n\n        require(holder != address(0), \"Reflecto/invalid-address-0\");\n        require(\n            holder == ecrecover(digest, v, r, s),\n            \"Reflecto/invalid-permit\"\n        );\n        require(\n            expiry == 0 || block.timestamp <= expiry,\n            \"Reflecto/permit-expired\"\n        );\n        require(nonce == nonces[holder]++, \"Reflecto/invalid-nonce\");\n        uint256 wad = allowed ? _totalSupply : 0;\n        _setAllowance(holder, spender, wad);\n    }\n\n    event AutoLiquify(uint256 amountBNB, uint256 amountBOG);\n    event BuybackMultiplierActive(uint256 duration);\n}\n",
  "sourcePath": "/Users/vladimir.djukic/Documents/reflecto-token/contracts/Reflecto.sol",
  "compiler": {
    "name": "solc",
    "version": "0.8.0+commit.c7dfd78e.Emscripten.clang"
  },
  "schemaVersion": "3.4.1",
  "updatedAt": "2021-10-25T10:16:55.952Z",
  "networkType": "ethereum",
  "devdoc": {
    "kind": "dev",
    "methods": {
      "version()": {
        "details": "Setting the version as a function so that it can be overriden"
      }
    },
    "version": 1
  },
  "userdoc": {
    "kind": "user",
    "methods": {
      "authorize(address)": {
        "notice": "Authorize address. Owner only"
      },
      "isAuthorized(address)": {
        "notice": "Return address' authorization status"
      },
      "isOwner(address)": {
        "notice": "Check if address is owner"
      },
      "transferOwnership(address)": {
        "notice": "Transfer ownership to new address. Caller must be owner. Leaves old owner authorized"
      },
      "unauthorize(address)": {
        "notice": "Remove address' authorization. Owner only"
      }
    },
    "version": 1
  }
}